:020000040800F2
:10000000D06D002035050008590500085B05000883
:10001000410500085F0500086305000800000000B6
:10002000000000000000000000000000690100085E
:100030006705000800000000C50100084B870008A4
:100040004F0500084F0500084F0500084F05000840
:100050004F0500084F0500084F0500084F05000830
:100060004F0500084F0500084F0500088D3E0008A9
:10007000AD3E00084F050008F13E00084F0500089E
:100080004F050008CF3E0008214000084F0500083A
:100090004F0500084F0500084F0500084F050008F0
:1000A0004F0500084F0500084F0500084F050008E0
:1000B000093D0008213D00084F0500084F050008D4
:1000C0004F0500084F0500084F0500084F050008C0
:1000D0004F050008193F0008B73F0008E73F000838
:1000E0004F0500084F0500084F0500084F050008A0
:1000F0004F0500084F0500084F05000800000000EC
:100100004F050008000000004F0500084F050008DB
:100110004F0500084F0500084F0500084F0500086F
:100120004F0500084F0500084F0500084F0500085F
:100130004F05000800000000000000004F05000807
:100140004F0500084F0500084F0500084F0500083F
:10015000DFF810D008F0D2FF00480047D3060008AF
:10016000AFF30080D06D00202C4B19680868B0E810
:10017000F04F80F30988BFF36F8F4FF0000080F3DA
:10018000118870470000000008480068006880F38C
:1001900008884FF0000080F3148862B661B6BFF3A0
:1001A0004F8FBFF36F8F00DF00BF00BF08ED00E08F
:1001B000DFF80C00016841F470010160704700BF76
:1001C00088ED00E0EFF30980BFF36F8F134B1A68DF
:1001D0001EF0100F08BF20ED108A20E9F04F1060CC
:1001E00009B44FF0500080F31188BFF34F8FBFF375
:1001F0006F8F06F04CFA4FF0000080F3118809BCB5
:1002000019680868B0E8F04F1EF0100F08BFB0EC96
:10021000108A80F30988BFF36F8F70475C0000205D
:10022000EFF305807047000000200021B34A1268F8
:1002300042F00102B14B1A6000BF401CAF4A126885
:1002400002F0020111B9B0F5A06FF6D1AB4A126805
:1002500002F002020AB900BFFEE7A94A126822F0C2
:100260000702D21CA64B1A60A44A5268A34B5A60DC
:100270001A4652685A601A46526842F480625A60BE
:100280001A4652689F4B1A409C4B5A601A46526855
:100290009D4B1A43994B5A601A46126842F080727D
:1002A0001A6000BF954A126802F00072002AF9D065
:1002B000924A526822F00302904B5A601A465268E2
:1002C00042F002025A6000BF8C4A526802F00802F3
:1002D000002AF9D0704710B5FFF7A6FF10BD08B58A
:1002E0008A48006840F470008849086083480068C4
:1002F00040F001008149086000BF8048006800F0BC
:1003000002000028F9D000BF7C48406840F080001F
:100310007A4948600020009002E00098401C00905C
:1003200000985028F9D37548406840F09000734910
:1003300048600020009002E00098401C0090009867
:100340005028F9D300BF6D48406820F003006B4986
:100350004860084600686E490840684908604FF4E4
:100360007F00886000204860C8620846006820F46A
:1003700080200860FFF7AFFF00214FF0006001F020
:10038000AAFC08BD2DE9F04F85B00023002400250C
:100390000026002100278C46002288468946CDF899
:1003A00010900FF2701999E8004CD9F80C908DE874
:1003B000004CCDF80C90DFF84491D9F80490C9F3C3
:1003C000810323B1012B09D0022B75D10DE0DFF899
:1003D0005491DFF854A1CAF8009074E0DFF844911A
:1003E000DFF844A1CAF800906DE0DFF81091D9F869
:1003F000049009F48034B4F5803F34D1DFF8FC90E8
:10040000D9F82C9009F080450DB9464900E04749DC
:10041000DFF8E890D9F82C9009F48036B6F5803FE3
:1004200016D1DFF8D890D9F82C90C9F3031909F147
:10043000010CDFF8C890D9F82C90C9F3032909F111
:100440000202112A00D11422B1FBFCF909FB02F1CE
:10045000DFF8A890D9F82C9009F00F0909F10107ED
:10046000B1FBF7F100E03249DFF89090D9F8049041
:10047000C9F38340DFF88490D9F8049009F000595B
:10048000B9F1000F01D040F010000F2801D2801CFC
:1004900000E0401C01FB00F9DFF88CA0CAF80090D6
:1004A0000F2807D101EB41094FEA490909EB51092E
:1004B000CAF8009007E0FFE7DFF86890DFF868A06F
:1004C000CAF8009000BF00BFDFF83090D9F8049060
:1004D000C9F303181DF80890CDF81090DFF8489084
:1004E000D9F80090DDF810A029FA0AF9DFF838A051
:1004F000CAF8009005B0BDE8F08F0000001002407F
:1005000000200240FFFFC3DF0000342088ED00E040
:10051000FFFFF6EA000000000000000001020304F3
:100520000607080900127A0000000020006CDC02B7
:1005300000093D000648804706480047FEE7FEE701
:10054000FEE7FEE7FEE7FEE7FEE7FEE7FEE7FEE783
:10055000DF02000851010008704700BFFEE700BF3E
:10056000FEE700BFFEE7704708B500BF06F0E2FAFD
:1005700000901DE000F0CEF94FF0FF3175480068A3
:1005800004F091FD01280DD11522734903F022FAE0
:10059000032005F025FF00231A4619466D48006820
:1005A00004F052FC00BF1421684605F0B4FE00BF01
:1005B000E0E7ADF5FB6D26E04FF0FF3001230022B0
:1005C000082100906548006804F077F9002819D0E8
:1005D00000F067FA02A806F08FFF61A008F0A0FD06
:1005E00002A966A008F09CFD02A806F0FBFF65A02A
:1005F00008F096FD02A961A008F092FD4FF4FA7090
:1006000005F0EEFE00BFD7E708B500BF06F092FA8E
:10061000009009E003F0D0FD00F010FA00BF1421B3
:10062000684605F078FE00BFF4E71CB5044608F004
:1006300049F85C48032100239622CDE900105AA115
:10064000AFF23B0005F0BEFB012802D059A008F034
:1006500067FD5C48012100238022CDE900105AA1EA
:10066000AFF2B10005F0AEFB012802D059A008F0AE
:1006700057FD5C48052100238022CDE900105AA1D6
:10068000AFF21B1005F09EFB012802D059A008F024
:1006900047FD08F03EF85B48006805F0E4FB1CBD30
:1006A00010B503F03CFA03F0DDF903F0C1FB03F0F1
:1006B00051FB03F06FFE4FF4E13003F0BBF847212C
:1006C00040F2E73003F0FEFE03F08EFA03F0BFFACB
:1006D00010BD1CB5FFF7E4FF03F072FF39E01D48C1
:1006E000006820B9012004F090FC1A4908604648CF
:1006F000006830B903220021012004F0E5FA4249E4
:1007000008601648006818B903F0CEFF1349086066
:100710003E48006830B900220821012004F0D4FAD4
:100720003A4908603A48006830B900220121084679
:1007300004F0CAFA36490860324801210023C82271
:10074000CDE9001033A1AFF21D1005F03BFB06F020
:10075000A2F9C4E714000020F00100201C000020D2
:100760000A2020202020202020C7B0D7B4CCAC20E5
:10077000C8BC20D0A1CAA320CBB300000A25730AAD
:10078000000000000A2020202020202020202020FF
:10079000CAB120202020202020202020202020D569
:1007A000BC000000040000204144435F7461736B8F
:1007B000000000004144435F7461736B20CAA70AC4
:1007C000000000000C000020544553545F74617316
:1007D0006B000000544553545F7461736B20CAA7CB
:1007E0000A0000001000002055534152545F74610C
:1007F000736B00005553415254325F7461736B2028
:10080000CAA70A00080000201800002020000020CD
:100810002400002073746172745F7461736B000054
:100820002DE9F04105460C461646D0480570D048E3
:100830000470D0480670012D04D1A02C02DC04F015
:100840000F0040B10020C9490870C949087003F081
:100850002FFEBDE8F081201140F2E73148430A2124
:1008600090FBF1F087B2384603F022FE00BFF0E7BC
:1008700010B50446A078C12804D162792179E078C6
:10088000FFF7CEFF10BD10B50446BB48007850B945
:10089000552C07D1B84801780078401CB64A107032
:1008A000B648445410BDB4480078012816D1AA2C8B
:1008B00008D1B14801780078401CAF4A1070AF48A9
:1008C00044540AE0552C05D10120AB490870AB48CF
:1008D000047002E00020A8490870E3E7A648017808
:1008E0000078401CA44A1070A44844541046007874
:1008F00009280DDBA148C079662806D19F48007AF7
:10090000BB2802D19D48FFF7B3FF00209A49087029
:1009100000BFC7E708B503E09DF80000FFF7B3FF8D
:10092000684602F0CBFF0028F6D108BD10B542544E
:10093000140A4B1CC45410BD10B5044604F0040046
:1009400020B180218E4801F07CF803E080218C48A2
:1009500001F079F804F0020020B10121894801F08A
:1009600070F803E00121874801F06DF804F0010000
:1009700020B10221834801F064F803E0022181489C
:1009800001F061F810BD70B50025002412E020468A
:10099000FFF7D2FF142003F07BF81021784801F014
:1009A0005BF828B1C4F10F010120884080B20543F3
:1009B000601CC4B2092CEAD3284670BD10B555207E
:1009C00071490870AA2048707048028902216E4857
:1009D000FFF7ACFF6D48C28804216B48FFF7A6FF04
:1009E0006A48828806216848FFF7A0FF68480078B7
:1009F000654908726748028809216348FFF796FF36
:100A0000624842890B216048FFF790FF5F484288A7
:100A10000D215D48FFF78AFF5C4802880F215A4884
:100A2000FFF784FF5948828911215748FFF77EFF5D
:100A300066205549C874BB20087510BD10B55648CE
:100A40000089524908815448C088C880524880882B
:100A50008880FFF798FF4D4948811021484800F0F1
:100A6000FBFF4B49088000204849488008804A48DD
:100A7000808988810846808900B2484908804FF003
:100A8000FF314748006804F00EFB012808D1FFF74A
:100A900095FF00231A4619464148006804F0D4F92E
:100AA00010BD10B53FA008F03BFB3B48028937481A
:100AB00001893DA008F034FB3748C2883348C1881B
:100AC0003DA008F02DFB34488288304881883FA043
:100AD00008F026FB2E48018840A008F021FB2D4895
:100AE000018840A008F01CFB2B4842892748418917
:100AF0003FA008F015FB284842882448418840A0C0
:100B000008F00EFB244802882048018840A008F025
:100B100007FB1E48818942A008F002FB43A008F0B1
:100B2000FFFA4EA008F0FCFA002001F031FC044668
:100B3000214656A008F0F4FA012001F029FC0446F1
:100B4000214655A008F0ECFA022001F021FC0446F1
:100B5000214654A008F0E4FA032001F019FC0446F1
:100B6000214653A008F0DCFA10BD0000320000203E
:100B700033000020340000203B000020F200002061
:100B800000080140000C0140F0010020E4000020BA
:100B90003000002058000020D6040020360000203D
:100BA000140000200D0A00004632385655202564F6
:100BB000205B25645D0D0A0046414E5F535045455C
:100BC00044202564205B25645D0D0A00495F4631A1
:100BD000202564205B25645D0D0A000059202564F2
:100BE0000D0A0000465F50574D2025640D0A000095
:100BF0005330202564205B25645D0D0A0000000051
:100C00005331202564205B25645D0D0A000000003F
:100C10005332202564205B25645D0D0A000000002E
:100C200054454D502025640D0A0000002D2D2D2D1A
:100C30002D2D2D2D2D2D2D2D2D2D2D2D2D2D2D2DE4
:100C40002D2D2DC5BA2D2D2D2D2D2D2D2D2D2D2DAF
:100C50002D2D2D2D2D2D0D0A000000002D2D2D2DBB
:100C60002D2D2D2D2D2D2D2D2D2D2D2D2D2D2D2DB4
:100C70002D2D2DCAB1C5BA2D2D2D2D2D2D2D2D2D5E
:100C80002D2D2D2D2D2D2D2D0D0A0000CFB5CDB3E1
:100C9000CAB13A2025640A00414842CAB13A202527
:100CA000640A000041504231CAB13A2025640A006A
:100CB00041504232CAB13A2025640A0010B50446B8
:100CC000FA48204418B1B0F5806F12D108E040F224
:100CD000093001F05FF940F2093001F069F909E0EB
:100CE00040F20A3001F056F940F20A3001F060F9A2
:100CF00000E000BF00BF10BDED49096821F470217C
:100D0000EB4A116011460968014311607047AAB1AE
:100D100001F480731BB1436843F48073436001F4B2
:100D200080631BB1436843F48063436001F00203B6
:100D3000CBB1836843F00203836014E001F4807355
:100D40001BB1436823F48073436001F480631BB1DB
:100D5000436823F48063436001F002031BB183689E
:100D600023F002038360704721B1826842F400627D
:100D7000826003E0826822F40062826070478168CA
:100D800001F0010119B9816841F0010181607047EA
:100D9000816821F0010181607047816841F008019C
:100DA000816000BF816801F008010029FAD18168E3
:100DB00041F00401816000BF816801F00401002955
:100DC000FAD17047BA48001D006840F40000B849E5
:100DD000091D08607047B648001D006820F4000037
:100DE000B349091D0860704750F8802F22F4405223
:100DF000026002680A4340F88029704730B5B1F5B7
:100E0000007F06D1D0F8804044F40074C0F88040E0
:100E100005E0D0F8804024F40074C0F8804050F819
:100E2000804F24F4FE740460046842EA03052C43F6
:100E300040F8804930BDD0F8801041F00101C0F881
:100E400080107047D0F8801021F00101C0F88010A8
:100E50007047816841F4807181607047816821F436
:100E600080718160704730B5436823F4C05343609C
:100E7000012904D0022913D0042916D116E04368B1
:100E800023F4604343604368541E4FF4604505EA11
:100E9000443423434360436843F40063436006E003
:100EA000436843F48053436001E000BF00BF00BFCC
:100EB00030BD30B5012902D002291AD10CE0C36A35
:100EC00023F47003C362C36A541E4FF4700505EA2D
:100ED00004542343C3620DE0836B23F44013836304
:100EE000836B541E4FF4401505EA04542343836377
:100EF00000E000BF00BF30BDF0B51D4606290CDA8A
:100F0000436B01EB81071F26BE40B34301EB810613
:100F100002FA06F63343436322E00C290EDA036B30
:100F20008E1F06EB86071F26BE40B3438E1F06EBBF
:100F3000860602FA06F63343036311E010290FDA3E
:100F4000C36AA1F10C0606EB86071F26BE40B34319
:100F5000A1F10C0606EB860602FA06F63343C362DD
:100F60000A2A0CDA046902EB42070726BE40B443A2
:100F700002EB420605FA06F63443046111E0122A38
:100F80000FDAC468A2F10A0606EB46070726BE4040
:100F9000B443A2F10A0606EB460605FA06F6344308
:100FA000C460F0BDF0B50C46876BC7F30156856B86
:100FB000E71CBF1B07EB870C1F2707FA0CF7BD4385
:100FC000E71CBF1B07EB870702FA07F73D43856362
:100FD0000A2A0DDA016902EB420C072707FA0CF71F
:100FE000B94302EB420703FA07F73943016112E004
:100FF000122A10DAC168A2F10A0707EB470C07278B
:1010000007FA0CF7B943A2F10A0707EB470703FAFF
:1010100007F73943C160F0BD70B50B460021856B01
:10102000C5F30154E51AC5F10301032905D8890068
:10103000C2F30B0600F114056E5070BD012902D0F9
:10104000022910D107E0836823F46023836083685A
:101050001343836008E0836823F4E043836083687C
:101060001343836000E000BF00BF704772B101F01E
:1010700001031BB1836843F48013836001F0020312
:1010800093B1836843F4004383600DE001F00103F2
:101090001BB1836823F48013836001F002031BB14A
:1010A000836823F4004383607047000000DCFEBFC8
:1010B0000424014001F001021AB1826842F4800266
:1010C000826001F002021AB1826842F4001282606A
:1010D00070470146C86C80B2704702460B4633B178
:1010E000012B06D0022B06D0032B08D105E0D16BD3
:1010F00007E0116C05E0516C03E0916C01E0002108
:1011000000BF00BF88B27047574800687047426808
:10111000564B1A40426042680A4342604268544B50
:101120001A43426070474268504B1F331A40426076
:10113000012904D0022907D003290FD109E0426810
:1011400042F4000242600AE0426842F480024260D7
:1011500005E0426842F44002426000E000BF00BF88
:1011600070474168414A114041607047C1F30B0329
:101170008362C2F30B034362704702460020136888
:101180000B4003B10120704702688A430260704738
:10119000014600200A6802F0100202B101207047E7
:1011A000014600200A6802F0080202B101207047DF
:1011B00010B502460B460020012B04D0022B0CD0A8
:1011C000042B1ED113E0146804F00101546804F0EC
:1011D00040040CB101B1012014E0146804F00201D4
:1011E000546804F020040CB101B101200AE0146835
:1011F00004F00401546804F080040CB101B1012032
:1012000000E000BF00BF10BD02688A430260704763
:1012100001F001021AB1426842F04002426001F05E
:1012200002021AB1426842F02002426001F0040258
:101230001AB1426842F080024260704701F0010238
:101240001AB1426822F04002426001F002021AB173
:10125000426822F02002426001F004021AB14268A2
:1012600022F08002426070474C240140E0FD3FFFC5
:101270000002C00002460120FD4B9A4202D104291F
:1012800000DD0020704770B504460D462946204613
:10129000FFF7F0FF08B900BFFEE705EB850081000E
:1012A00004F10800405820F0010105EB85008200A0
:1012B00004F108008150002105EB8500820004F153
:1012C0000800815005EB8500820004F10C0081507C
:1012D00005EB8500820004F11000815005EB8500CC
:1012E000820004F1140081506068AA000F2191402F
:1012F0000843606070BD08B900BFFEE700210160CF
:10130000416001768160C160417601618176416111
:1013100070472DE9F04104460D4616462946204601
:10132000FFF7A8FF08B900BFFEE705EB85008200C4
:1013300004F110003168815005EB8500820004F152
:101340001400B1688150308A81B205EB85008200BB
:1013500004F10C00815005EB8500810004F10800C8
:10136000475827F47C57F16870680843716908434F
:10137000074305EB8500810004F108004750307EEB
:1013800001280ED105EB8500810004F108004058CA
:1013900040F0400105EB8500820004F10800815017
:1013A0000DE005EB8500810004F10800405820F0B5
:1013B000400105EB8500820004F108008150707E39
:1013C00001280ED105EB8500810004F1080040588A
:1013D00040F0800105EB8500820004F10800815097
:1013E0000DE005EB8500810004F10800405820F075
:1013F000800105EB8500820004F108008150B07E79
:1014000070B905EB8500810004F10800405820F018
:10141000100105EB8500820004F1080081500DE009
:1014200005EB8500810004F10800405840F01001F0
:1014300005EB8500820004F108008150BDE8F081D1
:1014400070B505460C4621462846FFF713FF08B93C
:1014500000BFFEE704EB8400810005F1080040585E
:1014600040F0200104EB8400820005F10800815067
:1014700070BD70B505460C4621462846FFF7FAFEBA
:1014800008B900BFFEE704EB8400810005F1080005
:10149000405820F0200104EB8400820005F1080090
:1014A000815070BD70B505460C4621462846FFF7B1
:1014B000E1FE08B900BFFEE704EB8400810005F1FE
:1014C0000800405840F4804104EB8400820005F19C
:1014D0000800815070BD70B505460C46214628466F
:1014E000FFF7C8FE08B900BFFEE704EB84008100E7
:1014F00005F10800405820F4804104EB840082008C
:1015000005F10800815070BD70B505460C462146B6
:101510002846FFF7AFFE08B900BFFEE704EB8400E2
:10152000810005F10800405840F0010104EB8400FF
:10153000820005F10800815070BD70B505460C466B
:1015400021462846FFF796FE08B900BFFEE704EBE8
:101550008400810005F10800405820F0010104EBEF
:101560008400820005F10800815070BD70B5064608
:101570000C46154621463046FFF77CFE08B900BFF1
:10158000FEE704EB8400810006F11000455070BDB9
:1015900070B506460C46154621463046FFF76AFEF2
:1015A00008B900BFFEE704EB8400810006F11400D7
:1015B000455070BD70B506460C461546214630466E
:1015C000FFF758FE08B900BFFEE7A9B204EB84009C
:1015D000820006F10C00815070BD70B505460C46C6
:1015E00021462846FFF746FE08B900BFFEE704EB98
:1015F0008400810005F10C00405870BD2DE9F041D8
:1016000004460D46174629462046FFF733FE08B923
:1016100000BFFEE705EB8500810004F10800465895
:1016200026F440563E4305EB8500810004F1080096
:101630004650BDE8F0812DE9F04104460D461746BD
:1016400029462046FFF716FE08B900BFFEE705EB66
:101650008500810004F10800465826F440663E43A8
:1016600005EB8500810004F108004650BDE8F081DB
:10167000000402402DE9F04104460D461746294674
:101680002046FFF7F7FD08B900BFFEE705EB850030
:10169000810004F10800465826F440763E4305EBED
:1016A0008500810004F108004650BDE8F08170B566
:1016B00005460C4621462846FFF7DCFD08B900BF69
:1016C000FEE704EB8400810005F10800405840F07B
:1016D000800104EB8400820005F10800815070BD98
:1016E00070B505460C4621462846FFF7C3FD08B9EC
:1016F00000BFFEE704EB8400810005F108004058BC
:1017000020F0800104EB8400820005F10800815084
:1017100070BD70B505460C4621462846FFF7AAFD68
:1017200008B900BFFEE704EB8400810005F1080062
:10173000405840F0400104EB8400820005F10800AD
:10174000815070BD70B505460C4621462846FFF70E
:1017500091FD08B900BFFEE704EB8400810005F1AC
:101760000800405820F0400104EB8400820005F19D
:101770000800815070BD70B504460D4616462946D6
:101780002046FFF777FD08B900BFFEE776B905EB05
:101790008500810004F10800405820F0100105EB9D
:1017A0008500820004F1080081500DE005EB850002
:1017B000810004F10800405840F0100105EB85005D
:1017C000820004F10800815070BD30B503461C68EA
:1017D0008D0002FA05F52C400CB1012000E000203C
:1017E00030BD10B543688C0002FA04F42343436013
:1017F00010BD70B5034600BF00BF022A04D0042A02
:1018000011D0082A2DD11DE018688E0002FA06F6C4
:1018100000EA060501EB8100860003F1080080590B
:1018200000F002041FE018688E0002FA06F600EAD3
:10183000060501EB8100860003F10800805900F0E5
:10184000040410E018688E0002FA06F600EA0605A5
:1018500001EB8100860003F10800805900F00804C4
:1018600001E000BFFEE700BF15B10CB1012070BD63
:101870000020FCE710B543688C0002FA04F423430F
:10188000436010BD70B504460D46164629462046F5
:10189000FFF7F0FC08B900BFFEE705EB850081000B
:1018A00004F108004058304305EB85018A0004F13B
:1018B0000801885070BD70B504460D46164629468D
:1018C0002046FFF7D7FC08B900BFFEE705EB85000F
:1018D000810004F108004058B04305EB85018A00FF
:1018E00004F10801885070BD10B50446C749601A5C
:1018F0008C4220D006DCC648204450B1B0F5806F41
:1019000034D10FE0B0F5806F1ED0B0F5006F2DD14F
:1019100023E040F2023000F03DFB40F2023000F0E4
:1019200047FB24E040F2033000F034FB40F2033088
:1019300000F03EFB1BE04FF4417000F02BFB4FF436
:10194000417000F035FB12E040F2053000F022FB60
:1019500040F2053000F02CFB09E040F2063000F0C8
:1019600019FB40F2063000F023FB00E000BF00BF8F
:1019700010BD10B54FF4407000F00CFB4FF44070F8
:1019800000F016FB10BDF0B50446164600250022F7
:1019900001F00F0501F0100747B1042E05D145F005
:1019A0000305E76B1F43E76300E0354300201EE0BB
:1019B000012787401F40C7B122684FEA800C0F27DC
:1019C00007FA0CF7BA43870005FA07F73A432829C4
:1019D00004D1012787401F40676105E0482903D1F2
:1019E000012787401F4027612260471CB8B20828A2
:1019F000DED3082022E0012787401F40E7B162685C
:101A0000A0F108074FEA870C0F2707FA0CF7BA4333
:101A1000A0F10807BF0005FA07F73A43282904D1C7
:101A2000012787401F40676105E0482903D101274E
:101A300087401F4027616260471CB8B21028DAD384
:101A4000F0BD01617047416170470AB1016100E07A
:101A500041617047C160704702469068084008B114
:101A6000012070470020FCE70146886880B270477B
:101A70000246D068084008B1012070470020FCE70A
:101A80000146C86880B27047F0B50A4600230024BA
:101A90000021002500F00046B6F1004F02D15D4E56
:101AA000F16901E05B4E7168C0F3034583B200F455
:101AB0004016B6F5401F08D121F0E061554E76681A
:101AC00026F0E066534F7E6012E000F48016B6F513
:101AD000801F06D1032606FA05F4A14341F0E06118
:101AE00006E0460D360103FA06F6B14341F0E06127
:101AF00022B1460D360103FA06F6314300F00046E6
:101B0000B6F1004F02D1434EF16101E0414E7160E8
:101B1000F0BD10B500228B071C0F0F2303FA04F24F
:101B200004290EDA3B4B9B6893433A4CA36023464F
:101B30009B688C07240F00FA04F42343354CA36000
:101B40002FE008290EDA334BDB689343314CE36016
:101B50002346DB688C07240F00FA04F423432D4C42
:101B6000E3601EE00C290EDA2A4B1B699343294CD3
:101B7000236123461B698C07240F00FA04F42343D6
:101B8000244C23610DE0234B5B699343214C63613B
:101B900023465B698C07240F00FA04F423431D4C91
:101BA000636110BD024600201A4B186820F07F00C8
:101BB00040EA02100843186070471648006840F079
:101BC00080001449086070471248006820F08000C7
:101BD0001049086070474FF480320A438261816186
:101BE00082618269826970470A4A116A21F00101A3
:101BF00041EA0002074B1A6270470648006A00F487
:101C0000807008B1012070470020FCE700100140FF
:101C100000F8FEBF0000014045490143454A1160FC
:101C200070472DE9F04103460D4616460024002773
:101C3000A0464048006800F4E060B0F5A06F15D001
:101C400006DCB0F5407F18D0B0F5806F19D110E0F8
:101C5000B0F5C06F06D0B0F5E06F12D100274FF09D
:101C6000040815E001274FF0030811E00227B846E9
:101C70000EE003274FF001080AE004274FF00008A8
:101C800006E04FF4A060FFF7C7FF0227B84600BF89
:101C900000BFC7F1040005FA00F4C8F104010F20E9
:101CA000C8403040044324012348C45403F01F01BA
:101CB000012088405911890001F1E021C1F800019B
:101CC000BDE8F08100F01F02012191401B4A431141
:101CD00042F8231070471A4A0A400243154B1B1F53
:101CE0001A60BFF34F8F70471249091D09680143FD
:101CF000104A121D116070470E49091D0968814381
:101D00000C4A121D11607047042808D14FF0E021E1
:101D1000096941F004014FF0E022116107E04FF042
:101D2000E021096921F004014FF0E02211617047C0
:101D30000000FA050CED00E000E400E080E100E0C6
:101D400080FFFF1F0146F74A02EB9110006801F087
:101D50001F0301229A40104008B101207047002063
:101D6000FCE7F0B506460024002700251C2E6ED0A7
:101D700007DCB6B3102E10D0182E67D01A2E67D1FC
:101D800076E0B6F5006F19D0B6F5106F4CD0A6F519
:101D9000405010380028F2D134E004E01120FFF761
:101DA000D1FF0546641C1DB94FF6FF708442F5D182
:101DB0001120FFF7C7FF00B101277AE005E040F6E8
:101DC0000100FFF7BFFF0546641C1DB96FF07C40A2
:101DD0008442F4D140F60100FFF7B4FF00B10127BF
:101DE00067E0FFE704E00120FFF7ACFF0546641C55
:101DF00015B9B4F5A06FF6D10120FFF7A3FF00B12C
:101E0000012756E005E043F21100FFF79BFF05466E
:101E1000641C15B9C4488442F5D143F21100FFF7A0
:101E200091FF00B1012744E005E040F60110FFF703
:101E300089FF0546641C15B9BB488442F5D140F6BC
:101E40000110FFF77FFF00B1012732E006E01FE03D
:101E50002EE01920FFF776FF0546641C15B9B2483D
:101E60008442F6D11920FFF76DFF00B1012720E071
:101E700004E01B20FFF766FF0546641C15B9AA485D
:101E80008442F6D11B20FFF75DFF00B1012710E06F
:101E900004E01D20FFF756FF0546641C15B9A24853
:101EA0008442F6D11D20FFF74DFF00B1012700E06D
:101EB00000BF00BF3846F0BD00B59A48006840F04A
:101EC0000100984908600020FFF74BFF95484068E3
:101ED00020F0030093494860084600689349084091
:101EE0009049086008464068914908408D4948601B
:101EF0000846006820F480200860084640688D4944
:101F00000840884948600846006820F0A0500860F2
:101F10004FF47F0088600846C06A874908408149BD
:101F2000C86200BD7F4A02EB9011096800F01F03F0
:101F300001229A4011437B4B03EB901211607047D2
:101F4000784A02EB9011096800F01F0301229A40C1
:101F50009143744B03EB901211607047714A02EB8E
:101F60009011096800F01F0301229A4011436D4B44
:101F700003EB9012116070476A4A02EB90110968F6
:101F800000F01F0301229A409143664B03EB90122D
:101F900011607047634A02EB9011096800F01F035B
:101FA00001229A4011435F4B03EB9012116070477E
:101FB0005C4A02EB9011096800F01F0301229A406D
:101FC0009143584B03EB9012116070475548006ADB
:101FD00040F480305349086270475248006A20F448
:101FE00080305049086270474E4A516821F0030121
:101FF00041EA00024B4B5A6070474A48406800F083
:102000000C007047474A516821F0F00141EA000294
:10201000444B5A607047434A516821F4E06141EAF9
:102020000002404B5A6070473E4A516821F46051AB
:1020300041EA00023B4B5A6070473A4A516821F02E
:10204000706141EA0002374B5A6070470246002037
:10205000344B5868394B184042EA01031843314B5E
:1020600058607047014600202E4AD06A20F0804018
:102070000843D0627047024600202A4BD86A304B92
:10208000184042EA01031843264BD86270470146C4
:102090000020244AD06A20F0F0000843D062704744
:1020A0002049C96A21F470611E4AD1621146C96A89
:1020B0000143D16270471B49C96A21F47041194A32
:1020C000D1621146C96A0143D1627047154B596804
:1020D0001C4B1940134BDA6A22F000520C2833D201
:1020E000DFE800F006070809320C320D1516171844
:1020F00000BF00BF00BF41EA803126E000BF20F0F2
:1021000004004FF0805343EA803319431DE000BFC1
:1021100000BF00BF20F00C0041EA803142F00052C5
:1021200013E0000000100240FFFF0F00FFFFF6FE6B
:102130000C00FFE0FFFF005F0000F89FFFFFC2DF21
:10214000F0FFFEFFFF3FFFEF00BF00BFE84B59600D
:10215000DA627047E64A516821F4400141EA000220
:10216000E34B5A607047E24A116A21F4407141EA38
:102170000002DF4B1A627047DD4AD16A21F4003158
:1021800041EA0002DA4BDA627047D94AD16A21F497
:10219000802141EA0002D64BDA627047D44AC0324D
:1021A000116821F0010141EA0002D14BC3F8C020BF
:1021B0007047CF48406A40F08070CD494862704710
:1021C0000146CB4A02EB9110006801F01F03012287
:1021D0009A40104008B1012070470020FCE7C44A33
:1021E00002EB9011096800F01F0301229A4011438D
:1021F000BF4B03EB901211607047BD4A02EB901188
:10220000096800F01F0301229A401143B84B03EB09
:10221000901211607047B64A02EB9011096800F005
:102220001F0301229A409143B14B03EB90121160BE
:102230007047AF4A116A21F0180141EA0002AC4B25
:102240001A627047AA4A02EB9011096800F01F0356
:1022500001229A401143A64B03EB90121160704784
:10226000A34A02EB9011096800F01F0301229A4073
:1022700091439F4B03EB90121160704701461C295C
:102280002ED007DC39B310290FD0182926D01A29EF
:1022900027D124E0B1F5006F12D0B1F5106F1CD03A
:1022A000A1F54052103AE2B916E0914A106812685E
:1022B00022F480328E4B1A6040F480221A6011E0C2
:1022C0008B4A106A126A22F00102894B1A6240F0AE
:1022D00004021A6206E000BF00BF00BF00BF00BFDB
:1022E00000E000BF00BF704701461C292ED007DC6C
:1022F00039B310290FD0182926D01A2927D124E064
:10230000B1F5006F12D0B1F5106F1CD0A1F540529D
:10231000103AE2B916E0764A1068126822F4803268
:10232000734B1A6020F480221A6011E0704A106A20
:10233000126A22F001026E4B1A6220F004021A6245
:1023400006E000BF00BF00BF00BF00BF00E000BF4D
:1023500000BF70476648006840F400206449086088
:1023600070476348006820F40020614908607047A6
:102370005F4A116821F0F80100F01F0241EAC20231
:102380005B4B1A60704700F003005949486370477F
:102390002DE9F14F8EB000200C9056A090E8004C33
:1023A000C068CDE905BECDF810A0079052A0D0F8C6
:1023B00004A00068CDE9020A0FF23C1ADAE9000A2B
:1023C000CDE9000A4A484068C0F381000D900D989D
:1023D00020B1012804D0022856D103E0494A55E033
:1023E000484A53E04248406800F48039B9F5803FDC
:1023F0002FD13F48C06A00F080400B900B9808B97D
:10240000404900E040493A48C06A00F480300A90F0
:102410000A98B0F5803F12D13548C06AC0F3031066
:10242000401C08903248C06AC0F30320871C112F5B
:1024300000D114270898B1FBF0F000FB07F12C48FD
:10244000C06A00F00F00401C09900998B1FBF0F140
:1024500000E02E4926484068C0F383432448406882
:1024600000F0005008B143F010030F2B01D29B1C69
:1024700000E05B1C01FB03F20F2B04D101EB4100D8
:10248000400000EB510201E01E4A00BF00BF1848A7
:102490004068C0F3031504A8465D22FA06F4144808
:1024A0004068C0F3022502A8465D24FA06FC1048E5
:1024B0004068C0F3C2251DF8056024FA06F80E989E
:1024C00030B1012806D0022806D003280AD106E040
:1024D0000C9208E00C9406E0CDF830C003E0CDF893
:1024E000308000E000BF00BF0C980FB0BDE8F08F57
:1024F0000010024000000000000000000102030480
:102500000607080900127A00006CDC0200093D0091
:1025100010B50446F749601A8C426FD019DCF649B1
:10252000A4EB01008C424ED009DCB4F1804F2ED0D8
:10253000F2482044A0B3B0F5806F72D13AE0B0F514
:10254000806F49D0B0F5006F4FD0B0F5406FF4D137
:102550007BE0B0F5983F5BD009DCB0F5806F73D0BD
:10256000B0F5883F0AD0B0F58C3F5AD147E0B0F5BE
:102570009A3F57D0B0F59C3F53D15CE040F20B300E
:10258000FFF708FD40F20B30FFF712FD79E04FF442
:102590008060FFF7FFFC4FF48060FFF709FD70E0FB
:1025A000FFE740F20140FFF7F5FC40F20140FFF782
:1025B000FFFC66E040F20240FFF7ECFC40F2024014
:1025C000FFF7F6FC5DE040F20340FFF7E3FC40F26A
:1025D0000340FFF7EDFC54E040F20440FFF7DAFC63
:1025E00040F20440FFF7E4FC4BE040F20540FFF707
:1025F000D1FC40F20540FFF7DBFC42E02EE040F268
:102600000D30FFF7C7FC40F20D30FFF7D1FC38E08A
:1026100040F21330FFF7BEFC40F21330FFF7C8FC66
:102620002FE02DE04FF44570FFF7B4FC4FF44570F8
:10263000FFF7BEFC25E040F21530FFF7ABFC40F29F
:102640001530FFF7B5FC1CE011E040F20640FFF743
:10265000A1FC40F20640FFF7ABFC12E040F207405D
:10266000FFF798FC40F20740FFF7A2FC09E04FF4A7
:102670008160FFF78FFC4FF48160FFF799FC00E069
:1026800000BF00BF10BD00210180418081804FF656
:10269000FF71816000218181817370470A888262A5
:1026A000974A90420FD0B0F1804F0CD0934A5242DB
:1026B000904208D0934A904205D08F4A904202D06F
:1026C000914A90420FD1026822F0700202600268C3
:1026D0008B7803F060031A43026002680B7903F001
:1026E00010031A4302608A68C262884A90420CD082
:1026F000874A904209D0026822F440720260026860
:102700008B8903F440731A4302607D4A904202D0E1
:102710007D4A904201D18A7B0263426942F0010204
:1027200042617047016841F0010101607047016832
:1027300021F0010101607047016841F080010160F2
:102740007047016821F0800101607047016821F045
:10275000020101607047016841F0020101607047A9
:10276000026822F06002026002680A430260704759
:10277000016821F0100101607047016841F010010B
:10278000016070478162012A03D1436943F001036C
:102790004361704701637047C1627047416270478F
:1027A00001460020486A7047014600208A6A90B2BC
:1027B0007047082904D1026842F00802026004E070
:1027C00019B9026822F0080202607047042904D196
:1027D000026842F00402026004E019B9026822F0C3
:1027E000040202607047C2680A43C2607047C26850
:1027F0008A43C2607047082904D1426842F0080247
:10280000426004E019B9426822F008024260704751
:1028100010B5836C41F61F74A3438364836C41EA53
:1028200002042343836410BD42690A434261704736
:102830000021018041808180C180018141818181AD
:1028400070470A884B881A438B881A43CB881A43EF
:102850000B891A434B891A438B891A434264704788
:10286000416C41F4805141647047416C21F48051C6
:1028700041647047416C41F4804141647047416C50
:1028800021F4804141647047012904D1426C42F433
:102890000042426403E0426C22F40042426470470A
:1028A000012904D1426842F00102426003E042681B
:1028B00022F001024260704721B9426822F004020E
:1028C000426005E0042903D1426842F004024260FC
:1028D00070470021018041808180C1800181418158
:1028E000704710B5B1B101294FD002297ED003291C
:1028F0007DD1CFE0001C0040000C004000FCFFBF79
:10290000002C01400008004000340140001000404D
:1029100000140040036A23F001030362036A148871
:1029200023430362036A23F002030362036A948869
:1029300023430362F84B984202D0F84B98421FD1D0
:10294000036A23F004030362036A54882343036287
:10295000036A23F008030362036AD48823430362F3
:10296000436823F4807343604368148923434360BE
:10297000436823F4007343604368548923434360EE
:10298000836923F003038361ABE0036A23F0100340
:102990000362036A148843EA04130362036A23F0A0
:1029A00020030362036A948843EA04130362DA4B48
:1029B000984202D0D94B984226D1036A23F04003B3
:1029C0000362036A548843EA04130362036A23F030
:1029D00080030362036AD48843EA041303624368F2
:1029E00023F4806343604368148901E011E077E0D9
:1029F00043EA84034360436823F40063436043680D
:102A0000548943EA84034360836923F440738361F8
:102A100067E0036A23F480730362036A148843EA5D
:102A200004230362036A23F400730362036A948835
:102A300043EA04230362B84B984202D0B74B984252
:102A400023D1036A23F480630362036A548843EA50
:102A500004230362036A23F400630362036AD488D5
:102A600043EA04230362436823F4805343604368CA
:102A7000148943EA04134360436823F4005343601A
:102A80004368548943EA04134360C36923F0030392
:102A9000C36126E0036A23F480530362036A148847
:102AA00043EA04330362036A23F400530362036AB4
:102AB000948843EA04330362974B984202D0974BC1
:102AC000984208D1436823F48043436043681489E3
:102AD00043EA84134360C36923F44073C36100E095
:102AE00000BF00BF10BD31B101290CD0022913D0A5
:102AF000032922D118E0836923F07003836183697D
:102B0000134383611AE0836923F4E043836183699B
:102B100043EA0223836111E0C36923F07003C361B8
:102B2000C3691343C36109E0C36923F4E043C3618C
:102B3000C36943EA0223C36100E000BF00BF7047DE
:102B400031B1012906D0022906D0032908D105E0B8
:102B5000426306E0826304E0C26302E0026400E0D4
:102B600000BF00BF704731B101290CD0022913D03A
:102B7000032922D118E0836923F008038361836964
:102B8000134383611AE0836923F4006383618369DB
:102B900043EA0223836111E0C36923F00803C361A0
:102BA000C3691343C36109E0C36923F40063C361CC
:102BB000C36943EA0223C36100E000BF00BF70475E
:102BC00031B101290CD0022913D0032922D118E0F8
:102BD000836923F0040383618369134383611AE0EB
:102BE000836923F480638361836943EA02238361F9
:102BF00011E0C36923F00403C361C3691343C361D4
:102C000009E0C36923F48063C361C36943EA022313
:102C1000C36100E000BF00BF704731B101290CD093
:102C2000022913D0032922D118E0836923F08003FD
:102C300083618369134383611AE0836923F400434A
:102C40008361836943EA0223836111E0C36923F04E
:102C50008003C361C3691343C36109E0C36923F4FB
:102C60000043C361C36943EA0223C36100E000BFBC
:102C700000BF704731B101290CD0022913D00329BC
:102C800023D119E0036A23F002030362036A1343AA
:102C900003621BE0036A23F020030362036A43EA32
:102CA0000213036212E0036A23F400730362036AEF
:102CB00043EA0223036209E0036A23F40053036238
:102CC000036A43EA0233036200E000BF00BF7047BB
:102CD00021B101290AD002291AD110E0036A23F098
:102CE00008030362036A1343036212E0036A23F0DA
:102CF00080030362036A43EA0213036209E0036A82
:102D000023F400630362036A43EA0223036200E0E0
:102D100000BF00BF70470000002C0140003401409C
:102D200031B101290CD0022913D0032923D119E094
:102D3000036A23F001030362036A134303621BE087
:102D4000036A23F010030362036A43EA0213036277
:102D500012E0036A23F480730362036A43EA0223E6
:102D6000036209E0036A23F480530362036A43EABF
:102D70000233036200E000BF00BF704721B10129A8
:102D80000AD002291AD110E0036A23F00403036277
:102D9000036A1343036212E0036A23F040030362F1
:102DA000036A43EA0213036209E0036A23F48063BF
:102DB0000362036A43EA0223036200E000BF00BF2C
:102DC0007047002101800121418000218180C18064
:102DD000704731B101290CD0022913D0032922D127
:102DE00018E0836923F00C038361836913438361D3
:102DF0001AE0836923F440638361836943EA022311
:102E0000836111E0C36923F00C03C361C3691343F9
:102E1000C36109E0C36923F44063C361C36943EA42
:102E20000223C36100E000BF00BF704770B50446D5
:102E30000E46154636B1012E26D0022E48D0032E5E
:102E40007DD168E0206A20F001002062206A20F035
:102E50000A002062206A298808432062A06920F0C5
:102E60000300A061A06969880843A061A06920F0FF
:102E7000F000A061A069E98840EA0110A061206A21
:102E800040F0010020626DE0206A20F01000206216
:102E9000206A20F0A0002062206A298840EA011000
:102EA0002062A06920F44070A061A069698840EAAE
:102EB0000120A061A06920F47040A061A069E988A8
:102EC00040EA0130A061206A40F01000206249E031
:102ED000206A20F480702062206A20F42060206242
:102EE000206A298840EA01202062E06920F003007E
:102EF000E061E06969880843E061E06920F0F00082
:102F0000E061E069E98840EA0110E061206A40F48C
:102F10008070206226E0206A20F480502062206ABF
:102F200020F400502062206A298840EA01302062A3
:102F3000E06920F44070E061E069698800E010E039
:102F400040EA0120E061E06920F47040E061E0695E
:102F5000E98840EA0130E061206A40F48050206254
:102F600000E000BF00BFAA8831462046FFF731FFCE
:102F700070BD0246002031B1012906D0022906D0D9
:102F8000032908D105E0506B06E0906B04E0D06B9C
:102F900002E0106C00E000BF00BF70472DE9F04177
:102FA00004460E4615460027B846288808B9022769
:102FB00000E000276888012802D14FF0020801E0F4
:102FC0004FF00108002E4CD1206A20F00100206251
:102FD000206A20F00A002062206A298808432062C3
:102FE000A06920F00300A061A06969880843A0617E
:102FF000A06920F0F000A061A069E98840EA011012
:10300000A061206A40F001002062AA8800212046C9
:10301000FFF7DFFE206A20F010002062206A20F017
:10302000A0002062206A40EA07102062A06920F414
:103030004070A061A06940EA0820A061A06920F466
:103040007040A061A069E98840EA0130A061206A6F
:1030500040F010002062AA8801212046FFF7B9FE47
:103060004CE0206A20F010002062206A20F0A000CE
:103070002062206A298840EA01102062A06920F4B9
:103080004070A061A069698840EA0120A061A06940
:1030900020F47040A061A069E98840EA0130A06195
:1030A000206A40F010002062AA8801212046FFF724
:1030B00090FE206A20F001002062206A20F00A00C1
:1030C0002062206A38432062A06920F00300A061DA
:1030D000A06940EA0800A061A06920F0F000A061AA
:1030E000A069E98840EA0110A061206A40F001006F
:1030F0002062AA8800212046FFF76BFEBDE8F08120
:10310000802904D1426842F08002426004E019B98B
:10311000426822F0800242607047826822F07002AA
:10312000826082680A4382607047426822F07002BF
:10313000426042680A4342607047826822F0070298
:10314000826082680A4382607047802904D1826865
:1031500042F08002826004E019B9826822F08002A5
:103160008260704730B5846824F43F44846084688A
:1031700041EA02052C438460846844EA03248460A5
:1031800030BD30B5846824F00704846084680C4343
:103190008460846940F20335AC438461846940F201
:1031A00001152C438461046A24F00A040462046A51
:1031B00024F0A0040462046A42EA03152C4304626A
:1031C00030BD816821F007018160704710B503466A
:1031D0000C4621461846FFF7A0FF986820F007002C
:1031E0009860986840F00700986010BD70B504467C
:1031F0000E461546602E20D1206A20F01000206275
:10320000206A20F0A0002062206A40EA05102062B7
:10321000A06920F44070A061A06940F48070A061B2
:10322000A06920F47040A061A06940EA0330A06169
:10323000206A40F0100020621EE0206A20F00100A9
:103240002062206A20F00A002062206A284320625F
:10325000A06920F00300A061A06940F00100A06116
:10326000A06920F0F000A061A06940EA0310A0610D
:10327000206A40F00100206231462046FFF74DFFF2
:10328000A06820F00700A060A06840F00700A060E0
:1032900070BDF0B504460D4616461F463B46324605
:1032A00029462046FFF75EFFA06820F07700A06067
:1032B000A06840F07700A060F0BDF0B504460D4670
:1032C00016461F463B46324629462046FFF74AFF30
:1032D000A06840F48040A060F0BD816821F4804186
:1032E00081607047012906D1D0F8FC2042F002022B
:1032F000C0F8FC2006E029B9D0F8FC2022F0020238
:10330000C0F8FC207047012906D1D0F8FC2042F01B
:103310000102C0F8FC2006E029B9D0F8FC2022F018
:103320000102C0F8FC207047C2680A43C2607047BF
:10333000C2688A43C26070470246D06800EA01034F
:103340001069084010B10BB1012070470020FCE764
:10335000CA430261704702461069084008B1012063
:1033600070470020FCE7CA430261704710B504466D
:10337000F949601A8C4228D006DCF848204490B104
:10338000B0F5806F33D117E0B0F5806F26D0B0F57F
:103390006C4F2CD140F20E30FEF7FCFD40F20E30A7
:1033A000FEF706FE24E040F21140FEF7F3FD40F286
:1033B0001140FEF7FDFD1BE040F21240FEF7EAFD72
:1033C00040F21240FEF7F4FD12E040F21340FEF727
:1033D000E1FD40F21340FEF7EBFD09E040F214403E
:1033E000FEF7D8FD40F21440FEF7E2FD00E000BF1A
:1033F00000BF10BD2DE9F04704460D460027B84632
:10340000B9460026D449601A8C421CD006DCD34849
:10341000204470B1B0F5806F1FD10FE0B0F5806F20
:1034200016D0B0F56C4F18D10320FEF7B1FF074658
:1034300014E00220FEF7ACFF07460FE00220FEF783
:10344000A7FF07460AE00220FEF7A2FF074605E0B5
:103450000220FEF79DFF074600E000BF00BF07EB1C
:103460005500B0FBF5F64FF6F07006EA000806F0DE
:103470000F0948EA0900A060BDE8F087C26822F49D
:10348000C062C260C2680A43C2607047C26822F468
:103490008052C260C2680A43C2607047026922F467
:1034A0004052026102690A4302617047C16841F4F7
:1034B0000051C1607047C16821F40051C16070477C
:1034C0000A460021C16821F008011143C16070471C
:1034D0000A460021C16821F004011143C160704710
:1034E0000A460021D0F8801021F400611143C0F891
:1034F0008010704706292ED2DFE801F003180A1F5A
:103500001126D0F8802042F48062C0F8802023E0A9
:10351000D0F8802042F40072C0F880201CE0D0F87F
:10352000802042F48072C0F8802015E0D0F880201E
:1035300022F48062C0F880200EE0D0F8802022F4CF
:103540000072C0F8802007E0D0F8802022F480725A
:10355000C0F8802000E000BF00BF7047D0F88010A6
:1035600041F00101C0F880107047D0F8801021F0C0
:103570000101C0F88010704750F8842F02F07F429C
:10358000026002680A4340F884297047C1F30802C8
:103590004260704701464868C0F3080070470269FE
:1035A00022F00F020261026901F00F031A43026167
:1035B0007047C16841F00201C1607047C16821F0E5
:1035C0000201C1607047C26822F40062C260C26832
:1035D0000A43C2607047016941F48041016170474C
:1035E000016921F4804101617047026922F02002E3
:1035F0000261026901F020031A4302617047C16849
:1036000041F00101C1607047416941F00801416129
:103610007047416921F0080141617047016941F437
:10362000006101617047016921F400610161704727
:1036300070B50C460021016921F4E06104F4807545
:1036400002F40076354303F4806635432943016173
:1036500070BD826922F47F42826182694FF47F43A8
:1036600003EA01231A4382617047416941F0200156
:1036700041617047416921F0200141617047416912
:1036800041F0100141617047416921F01001416131
:10369000704750F8802F22F00E02026002680E235D
:1036A00003EA41031A4340F88029704750F8842FF9
:1036B00022F07F42026002684FF07F4303EA016319
:1036C0001A4340F884297047416941F00201416181
:1036D0007047416921F0020141617047826922F01F
:1036E000FF02826182690A4382617047426922F067
:1036F00004024261426901F004031A4342617047C7
:103700000A460021416921F48071114341617047EB
:103710000A460021416921F400711143416170475B
:103720000A460021416921F040011143416170477F
:103730000A460021416921F080011143416170472F
:1037400050F8C02F22F001020260026801F001036C
:103750001A4340F8C0297047004C004000BCFFBF2E
:1037600010B5024602EB9110006801F01F0401231E
:10377000A340184008B1012010BD0020FCE710B59F
:1037800000EB9112126801F01F040123A3409A4339
:1037900000EB91131A6010BD10B500EB9112126886
:1037A00001F01F040123A3401A4300EB91131A6098
:1037B00010BD10B500EB9112126801F01F04012337
:1037C000A3409A4300EB91131A6010BD70B50246F6
:1037D00000230024C1F38910105801F01F060125B1
:1037E000B54000EA050302EB91500068C1F30446BE
:1037F0000125B54000EA050414B10BB1012070BDEC
:103800000020FCE710B500EB91521268C1F30444AC
:103810000123A3409A4300EB91531A6010BD0000AE
:1038200072B6002088490880884908808849087055
:1038300062B6704710B5044640F21170FEF772FB95
:103840008448FFF793FD21468248FFF7D3FD04210A
:103850008048FFF73DFE08217E48FFF731FEFFF765
:10386000DFFF4FF441717B48FFF7A3FF7948FFF773
:103870001DFE80217748FFF75BFF00217548FFF7A9
:103880004FFF40F205317348FFF786FF10BD014638
:103890006D4A1288521C90B2642800DB00206B4AEB
:1038A0001288904206D06C4A674B1B88D154664AF6
:1038B000108002E00122664B1A707047014609B978
:1038C0000020704760480088604A1288904201D109
:1038D0000020F6E772B65C4800885C4A1288904285
:1038E00012D05D48594A1288805C08705748008899
:1038F000401C564A108010460088642801DB0020D6
:10390000108062B60120DCE762B60020D9E770B50E
:1039100004460D4629462046FFF738FE00BF062123
:103920002046FFF71DFF0028F9D070BD70B5044692
:103930000D46E1B24948FFF7EAFF204670BD2DE988
:10394000F04107460D461646002405E0295D38463D
:10395000FFF7DDFF601C84B2B442F7DB00BF062135
:103960003846FFF7FDFE0028F9D0BDE8F08170B5BC
:1039700006460C46002500BF615D3046FFF7C7FFD5
:103980006D1C605D0028F7D100BF06213046FFF7AF
:10399000E7FE0028F9D070BD2DE9F04105460C4640
:1039A000260AE7B231462846FFF7F0FD00BF0621A0
:1039B0002A48FFF7D5FE0028F9D039462846FFF7F8
:1039C000E5FD00BF06212548FFF7CAFE0028F9D013
:1039D000BDE8F08170B504460D46164624B1012CB1
:1039E00011D0022C2DD11DE02A4603211C48FDF7E1
:1039F000CFFD324603211A48FDF7DCFD03211848AC
:103A0000FDF782FD1EE02A4606211548FDF7C0FDA0
:103A1000324606211248FDF7CDFD06211048FDF77C
:103A200073FD0FE02A4601210D48FDF7B1FD324636
:103A300001210B48FDF7BEFD01210948FDF764FD9A
:103A400000E000BF00BF70BD400000204200002029
:103A50003D000020004400408C010020003801405F
:103A60000000024010B50420FEF74EF91F48006820
:103A70001F49B0FBF1F01F49087040F6FF704FF08E
:103A8000E02148610846006940F00100086110BD6E
:103A900070B5034600224FF0E0267469154E367863
:103AA00003FB06F54FF0E026B16910E04FF0E02689
:103AB000B06981420BD0884202D20E1A324402E031
:103AC0006618361A32440146AA4200D300E0EDE7F8
:103AD00000BF70BD30B50446002504E04FF47A7095
:103AE000FFF7D6FF6D1CA542F8D330BD00000020C3
:103AF00040420F004400002070B504460D462946A0
:103B00002046FDF7B5FF012804D129462046FDF7E0
:103B10009AFF03E029462046FDF793FF70BD10B5DC
:103B200040F20260FEF7FEF940F20360FEF7FAF998
:103B30004FF4C060FEF7F6F901212848FDF7A4FF15
:103B400001210420FDF7A0FF04231A461821244870
:103B5000FDF719FF0823042211462148FDF713FF42
:103B60008023042210211E48FDF70DFF402304226C
:103B700000211B48FDF707FF0123042200211848FC
:103B8000FDF701FF0223042200211548FDF7FBFE8B
:103B90002023042200211248FDF7F5FE032304220E
:103BA00010211048FDF7EFFE8023042210210D485C
:103BB000FDF7E9FE1023042211460948FDF7E3FE54
:103BC00080210748FDF73FFF01210648FDF73BFF35
:103BD00002210448FDF737FF10BD0000000230004D
:103BE00000080140000C01401FB54FF4C060FEF713
:103BF00099F94FF4E060FEF795F94FF08040FEF739
:103C000087FC6846FEF73FFD42F6DF60ADF8000036
:103C10000020ADF80200ADF8040040F2E730029059
:103C20000020ADF80C008DF80E0069464FF0804082
:103C3000FEF734FD01218807FFF78AFB0121880781
:103C4000FFF772FB4FF08040FEF76CFD1FBD1FB504
:103C50004FF4C060FEF766F940F20170FEF762F9BA
:103C60003A48FEF755FC6846FEF70DFD42F6DF6068
:103C7000ADF800000020ADF80200ADF804003120DE
:103C800002900020ADF80C008DF80E0069462F4818
:103C9000FEF704FD01212D48FFF75AFB01212B48B7
:103CA000FFF742FB2948FEF73DFD1FBD1FB54FF44E
:103CB000C060FEF737F940F20170FEF733F9234890
:103CC000FEF726FC6846FEF7DEFC7720ADF8000024
:103CD0000020ADF80200ADF804006320029000203F
:103CE000ADF80C008DF80E0069461848FEF7D6FCBA
:103CF00001211648FFF72CFB01211448FFF714FBA4
:103D00001248FEF70FFD1FBD10B501218807FFF710
:103D100013FB012803D101218007FFF719FB10BD18
:103D200010B501210948FFF707FB01280CD101213B
:103D30000648FFF70DFB064802684068521C40F138
:103D4000000003490A60486010BD00000004004004
:103D50004800002000B587B04FF4A060FEF7E2F8FD
:103D600006212F48FDF78FFA6846FDF7C4FA0120B7
:103D70008DF81A002B48029001208DF819000020C0
:103D80000390192004902848009000208DF8180016
:103D900001904FF4405005906A4606212048FDF7F7
:103DA000B8FA06211E48FDF764FB022206211C48D2
:103DB000FDF768FD80211C48001FFFF7B9FC40217A
:103DC0001948001FFFF7ACFC05211548FDF75BFA09
:103DD0006846FDF790FA00208DF81A00134802900B
:103DE00001208DF8190000200390642004900E48F3
:103DF000009000208DF8180001904FF4405005907D
:103E00006A4605210648FDF784FA05210448FDF7B6
:103E100030FB05210248FDF777FB07B000BD00002D
:103E200000000240F0010020044400408C0100200A
:103E300010B54FF44070FDF7EFFE0022062112206E
:103E4000FDF7EFFE002209210E20FDF7EAFE002219
:103E50000A211120FDF7E5FE002208212520FDF7AB
:103E6000E0FE012208212620FDF7DBFE00220121D1
:103E70001D20FDF7D6FE012206210B20FDF7D1FE05
:103E800000220B211C20FDF7CCFE10BD10B5022234
:103E900000217348FDF799FC38B1022200217048D7
:103EA000FDF79FFC6F48FCF773FF10BD10B50222B1
:103EB00001216B48FDF789FC40B1022201216848CD
:103EC000FDF78FFC01216648FDF737FB10BD10B5EB
:103ED000022206216248FDF778FC40B10222062149
:103EE0005F48FDF77EFC06215D48FDF726FB10BD0F
:103EF00010B5022203215A48FDF767FC58B102228F
:103F000003215748FDF76DFC03215548FDF715FBCC
:103F100000205549087010BD1CB5002000900024F9
:103F200004215248FFF71CFC002843D04F4800688A
:103F300080B201904D48001D006880B201900421BC
:103F40004748FDF74AFBC0F1640084B204214448AD
:103F5000FDF7F3FA642204214148FDF72BFB04210D
:103F60003F48FDF7D1FA42480078F1280BD140488C
:103F70004078012807D121463D4800F04FFBC8B1E9
:103F800000F0F6FA16E03B483B490860084684809A
:103F900002236A463948006801F091F900BF009891
:103FA00038B14FF0805036490860BFF34F8FBFF3F0
:103FB0006F8F00BF1CBD10B532493348FFF706FCB8
:103FC00030B13148FFF7E6FAC4B22046FFF75FFC94
:103FD00004212D48FFF7C4FB20B12B4800682A4874
:103FE000001D006810BD08B504212848FFF7B8FB84
:103FF000A8B12648006880B200902448001D0068DF
:1040000080B2009002211648FDF797FA642202213F
:104010001348FDF7CFFA02211148FDF775FA08BDE4
:1040200008B50020009001210E48FDF7C1F80128D5
:1040300014D101210B48FDF7E7F8694614480068E0
:1040400001F0D1F900BF009838B14FF080500C4911
:104050000860BFF34F8FBFF36F8F00BF08BD000034
:1040600000000240002401405600002000380140BA
:10407000FB0000208C0100202800002020000020F0
:1040800004ED00E005030500004400400048004046
:10409000180000202DE9F04304460D4600220023BD
:1040A000002084E00022002334F810C000EB8007D9
:1040B00007EBC007DFF8A88308EB071700EB8008C1
:1040C00008EBC008DFF8989309EB081898F86880A7
:1040D00027F818C0002136E000EB800707EBC00787
:1040E000DFF87CC30CEB071797F868700F447F1C50
:1040F0004FF0320C97FBFCF80CFB1877BEB200EBCC
:10410000800707EBC007DFF858C30CEB071737F839
:1041100016C000EB800707EBC007DFF8448308EB0D
:1041200007176A3737F811700CFB072200EB80077E
:1041300007EBC007C4460CEB07176A3737F8117056
:104140003B444F1CF9B23229C6DBB2FBF3F700EB5C
:10415000800C0CEBC00CDFF8088308EB0C1CCCF8CF
:10416000647000EB800707EBC007C4460CEB071731
:10417000B7F8647025F8107000EB800707EBC007F4
:104180000CEB071797F868707F1C4FF0320C97FB09
:10419000FCF80CFB187700EB800C0CEBC00CDFF884
:1041A000C08208EB0C1C8CF86870471CF8B207281A
:1041B000FFF678AFBDE8F08310B500240020A949D0
:1041C0000880A9490880088027E000240020A5492C
:1041D000088010E0A3480088C0EBC000A34901EBB1
:1041E0004000A149098830F8110004449D48008826
:1041F000401C9C4908809B4800883228EADB32201A
:10420000B4FBF0F09A49984A128821F81200002471
:1042100095480088401C94490880934800880728E6
:10422000D3DB94499248FFF735FF10BD10B500204D
:1042300031E0002200EB800303EBC003884C04EB69
:1042400003135A6600EB800303EBC00304EB031374
:1042500083F8682000211AE0002200EB800303EBC2
:10426000C0037F4C04EB031323F811204A1CD20136
:10427000322392FBF3F293B200EB800202EBC00216
:1042800004EB02126A3222F811304A1CD1B23229F0
:10429000E2DB421CD0B20728CBDB10BD10B52DED00
:1042A0000E8B002402217448FCF704FF72493C3154
:1042B000086804F0F7FD41EC1E0B9FED700B53EC0A
:1042C000102B04F00EFD41EC1D0B9FED6E0B53EC1B
:1042D000102B04F078FD41EC1C0B9FED6C0B53ECA4
:1042E000102B04F0FBFC41EC1B0B9FED6A0B53EC15
:1042F000102B04F0F6FC41EC1A0B9FED680B53EC0D
:10430000102B04F060FD41EC190B9FED660B53EC94
:10431000102B04F03FFC41EC180B04F0D0FDC4B2AC
:104320002046BDEC0E8B10BD00B587B000215F4864
:10433000FCF7A9FF50484C30009000208DF8180081
:104340004A48029001208DF8190000020190800077
:10435000039000208DF81A004FF4AF7004904FF4D2
:10436000005005906A4600215048FCF7D2FF00211A
:104370004E48FDF765F800214C48FDF7C5F807B039
:1043800000BD10B540F20960FDF7CCFD0120FDF73E
:104390009DFE10BD10B5FFF7F4FFFFF747FFFFF7D5
:1043A000C3FF3548FCF78AFC0020FCF7A5FC01227E
:1043B00002213148FCF7ABFC012211022E48FCF728
:1043C000A6FC00212C48FCF7CFFC072201212A483B
:1043D000FCF76FFD0523072200212748FCF78CFD21
:1043E0000523082201212448FCF786FD052300222D
:1043F00002212148FCF780FD0523062203211E48E7
:10440000FCF77AFD0523012204211B48FCF774FD0B
:104410000523092219461848FCF76EFD05231A46A4
:1044200006211548FCF768FD4FF46022012112486F
:10443000FCF704FE012211460F48FCF717FE0E4858
:10444000FCF79DFC0120FFF745FB0B48FCF7A5FCA2
:104450000948FCF7FEFC01210748FCF72BFE10BDC4
:10446000E404002052000020540000200C02002030
:10447000C8040020D6040020002401406666666659
:1044800066660A40000000000000B040E17A14AE09
:1044900047E1F63F0000000000408F4033333333E4
:1044A000333311400000000000003940000002409A
:1044B00010B504462C480480224600212B48FEF704
:1044C0003FFB10BD30B587B004460D4640F20B608F
:1044D000FDF728FD2548FEF71BF86846FEF7D3F8E0
:1044E000ADF800500020ADF80200ADF804000294D1
:1044F000ADF80C008DF80E0069461C48FEF7CEF8AA
:1045000004A8FEF7E6F90120ADF810000020ADF890
:104510001200ADF81400ADF81600ADF81800ADF8B3
:104520001A0004AA00211148FEF7DBF9012200213C
:104530000E48FEF705FB702200210C48FEF7D3FA67
:10454000002211460948FEF70EFB01210748FEF73D
:104550009BF90648FEF7F0F80448FEF7E3F86420FC
:10456000FFF7A6FF07B030BD58000020002C014027
:104570004FF6FF7100E000BF081EA1F10101FAD162
:10458000012080F3138800BF00BFBFF34F8F09489D
:10459000006800F4E060084A1043001D054A1060FE
:1045A000BFF34F8F00BF00BFFEE704480149091F5A
:1045B000086070470CED00E00000FA05003C0008C0
:1045C000002111E00846002208E000F001031BB1C1
:1045D000334B83EA500000E04008521C082AF4D311
:1045E000304B43F82100491CFF29EBD9704730B507
:1045F00002460C464FF0FF31134608E013F8010B5A
:104600004840C0B2274D55F8200080EA1121201EF5
:10461000A4F10105ACB2F1D1C84330BD2DE9F041A0
:1046200006460D460027B846052D02DA0020BDE8F3
:10463000F0817019041F20780006617840EA01407B
:10464000A17840EA0120E17840EA0108281F81B200
:104650003046FFF7CCFF0746474501D10120E6E78A
:104660000020E4E730B502460B464FF6FF7000210C
:1046700012E0555C684000240AE000F0010525B115
:1046800040104AF20105684000E04010651CACB2E1
:10469000082CF2DB4D1CA9B29942EADB30BD0000C8
:1046A0002083B8ED940A002010B51C2004F00BF90B
:1046B000044624B100202060201D00F03BFA204673
:1046C00010BD2DE9FE4F07468846002001903C466C
:1046D000009057B900BF502080F31188BFF34F8F6F
:1046E000BFF36F8F00BF00BFFEE708F07F4008B93F
:1046F000012000E0002050B900BF502080F3118855
:10470000BFF34F8FBFF36F8F00BF00BFFEE704F111
:10471000040909F10800029001F0F7FDD9F80C60D6
:10472000206840EA0800206026E0D6F804B035682A
:104730000020009005F07F4A25F07F450AF0806058
:1047400028B92068284040B10120009005E0206889
:104750002840A84201D101200090009858B10AF0E9
:10476000807010B1019828430190206840F00071DA
:10477000304602F02BFC5E4602988642D5D1206876
:1047800001998843206001F0C5FC2068BDE8FE8FD8
:104790002DE9F84F8346884614461F465D460020A3
:1047A000009004F07F4008B9012000E0002050B9DB
:1047B00000BF502080F31188BFF34F8FBFF36F8F7E
:1047C00000BF00BFFEE70CB1012000E0002050B99F
:1047D00000BF502080F31188BFF34F8FBFF36F8F5E
:1047E00000BF00BFFEE702F0FFFC00B90FB90120D7
:1047F00000E0002050B900BF502080F31188BFF3C3
:104800004F8FBFF36F8F00BF00BFFEE701F07DFD4C
:10481000D5F8009041465846FFF753FF49EA080093
:104820002040A04206D149EA08062868A043286033
:1048300000270BE03FB144F0A0613A46281D02F08A
:10484000CFFA002602E02E680120009001F062FC01
:10485000824607B3BAF1000F07D14FF08050B44938
:104860000860BFF34F8FBFF36F8F02F00FFF064654
:1048700006F0007068B903F025FF2E6806EA040010
:10488000A04202D12868A043286003F042FF012023
:10489000009026F07F463046BDE8F88F10B50346FD
:1048A000002022B903EA010434B1012004E003EA44
:1048B00001048C4200D1012010BD2DE9FF4F83B0CF
:1048C00081460D461746DDF840804C464FF0000A01
:1048D00000200190B9F1000F0AD100BF502080F3F1
:1048E0001188BFF34F8FBFF36F8F00BF00BFFEE78C
:1048F00005F07F4008B9012000E0002050B900BF5A
:10490000502080F31188BFF34F8FBFF36F8F00BF2C
:1049100000BFFEE70DB1012000E0002050B900BF4C
:10492000502080F31188BFF34F8FBFF36F8F00BF0C
:1049300000BFFEE702F058FC10B9B8F1000F01D13A
:10494000012000E0002050B900BF502080F3118802
:10495000BFF34F8FBFF36F8F00BF00BFFEE701F0C3
:10496000D4FC206800902946069A0098FFF796FF2D
:104970000290029838B1009E4FF00008C7B120683D
:10498000A843206014E0B8F1000F03D1009E01207D
:1049900001900DE00FB14AF0807A069808B14AF014
:1049A000806A45EA0A014246201D02F019FA0026F3
:1049B00001F0B0FB8346B8F1000F23D0BBF1000F2C
:1049C00007D14FF080505A490860BFF34F8FBFF3B3
:1049D0006F8F02F05BFE064606F0007080B903F0B0
:1049E00071FE266829463046069AFFF757FF18B130
:1049F00017B12068A84320600120019003F089FED0
:104A000026F07F46304607B0BDE8F08F2DE9F04133
:104A100005460E462C4655B900BF502080F311883C
:104A2000BFF34F8FBFF36F8F00BF00BFFEE706F0ED
:104A30007F4008B9012000E0002050B900BF50209D
:104A400080F31188BFF34F8FBFF36F8F00BF00BF9C
:104A5000FEE703F037FE27682068B043206003F0CC
:104A600058FE3846BDE8F08170B501460B4600BFE0
:104A70005025EFF3118085F31188BFF34F8FBFF3FB
:104A80006F8F00BF02461C68104680F3118800BF7C
:104A9000204670BD70B505462E4656B900BF502061
:104AA00080F31188BFF34F8FBFF36F8F00BF00BF3C
:104AB000FEE7341D01F029FC18E004F10800E1686C
:104AC000814201D0012000E0002050B900BF5020F9
:104AD00080F31188BFF34F8FBFF36F8F00BF00BF0C
:104AE000FEE74FF00071E06802F070FA20680028DD
:104AF000E3D101F00FFB304603F071FF70BD70B5DC
:104B000004460D4629462046FFF7DBFD70BD70B513
:104B100004460D4629462046FFF778FF70BD014642
:104B20000A4609B9002000E090697047816170472A
:104B300004ED00E000F1080141604FF0FF318160B9
:104B400000F10801C160016100210160704700218E
:104B50000161704742684A6093688B60936859604E
:104B60009160086103685B1C0360704710B50246E2
:104B70000B685C1C0CB9106907E002F1080000E04A
:104B80004068446824689C42FAD944684C604C6888
:104B9000A160886041600A611468641C146010BDE3
:104BA00001460A69D1E901309860D1E901035860F2
:104BB0005068884201D18868506000200861106800
:104BC000401E1060106870472DE9F04105460E4602
:104BD00001272C4654B900BF502080F31188BFF341
:104BE0004F8FBFF36F8F00BF00BFFEE7002C42D096
:104BF000E06B00283FD04FF0FF31E06BB1FBF0F0ED
:104C0000216C884237D303F05DFDD4E90F12206890
:104C100001FB0200A0600020A06320686060E06BE0
:104C2000401E226C216800FB0211E160FF2084F825
:104C3000440084F845009EB9206908B9012000E0CD
:104C40000020A8B904F1100002F03CF980B14FF047
:104C50008050F6490860BFF34F8FBFF36F8F07E0B6
:104C600004F11000FFF766FF04F12400FFF762FF74
:104C700003F04FFD00E000270FB1012000E000200D
:104C800050B900BF502080F31188BFF34F8FBFF39E
:104C90006F8F00BF00BFFEE73846BDE8F0812DE909
:104CA000F04106460D4617469846069C0DB924600D
:104CB00000E02760E663256401212046FFF784FFBA
:104CC00084F84C80BDE8F0812DE9F84305460E4696
:104CD00017460024E5B1601EB0FBF5F0B04217D3D3
:104CE00005FB06F010F1510F12D805FB06F808F18C
:104CF000500003F0E8FD0446B4B1A14609F15009A3
:104D00003B464A46314628460094FFF7C8FF0BE071
:104D100054B900BF502080F31188BFF34F8FBFF309
:104D20006F8F00BF00BFFEE72046BDE8F88370B577
:104D3000044603F0C7FC94F9455010E0606A08B9D6
:104D4000012000E0002038B904F1240002F0BAF894
:104D500018B102F037FA00E003E0681E45B2002DFA
:104D6000ECDC00BFFF2084F8450003F0D2FC03F028
:104D7000A9FC94F9445010E0206908B9012000E032
:104D8000002048B904F1100002F09CF808B102F0CC
:104D900019FA681E45B200E001E0002DECDC00BF0E
:104DA000FF2084F8440003F0B4FC70BD70B50546E4
:104DB00003F088FCA86BE96B884201D1012400E074
:104DC000002403F0A6FC204670BD2DE9F041044606
:104DD0000F4615464FF00008A66B206C48B92068B6
:104DE00000282CD1A06802F07BFA80460020A06049
:104DF00025E07DB93946226C606803F097FE216C8E
:104E0000606808446060D4E90101884217D32068D3
:104E1000606014E03946226CE06803F087FE216C84
:104E2000E068411AE1602168E068884203D2216CA1
:104E3000A068411AE160022D01D106B1761E701CF6
:104E4000A0634046BDE8F0812DE9FF4383B00646EC
:104E500088461D464FF00009344654B900BF502023
:104E600080F31188BFF34F8FBFF36F8F00BF00BF78
:104E7000FEE7B8F1000F01D1206C08B9012000E075
:104E8000002050B900BF502080F31188BFF34F8F2E
:104E9000BFF36F8F00BF00BFFEE7022D02D1E06BB2
:104EA000012801D1012000E0002050B900BF5020AE
:104EB00080F31188BFF34F8FBFF36F8F00BF00BF28
:104EC000FEE702F091F908B9059808B9012000E061
:104ED000002050B900BF502080F31188BFF34F8FDE
:104EE000BFF36F8F00BF00BFFEE700BF03F0EAFB18
:104EF000A06BE16B884201D3022D28D12A4641469E
:104F00002046FFF762FF0746606A08B9012000E00B
:104F1000002068B904F1240001F0D4FF88B14FF0FB
:104F2000805042490860BFF34F8FBFF36F8F08E096
:104F30003FB14FF080503D490860BFF34F8FBFF342
:104F40006F8F03F0E6FB012007B0BDE8F083059802
:104F500018B903F0DEFB0020F6E7B9F1000F04D129
:104F600001A802F0C9F84FF0010903F0D2FB01F0EB
:104F7000CCF903F0A7FB94F94400401C10B90020C1
:104F800084F8440094F94500401C10B9002084F8CE
:104F9000450003F0BEFB05A901A802F0CFF8F0B967
:104FA0002046FFF703FFA0B104F11000059901F0BE
:104FB000FDFE2046FFF7BBFE01F0ACF8002895D1BE
:104FC0004FF0805019490860BFF34F8FBFF36F8FC8
:104FD0008CE72046FFF7ABFE01F09CF886E7204601
:104FE000FFF7A5FE01F096F80020ADE710B50446E6
:104FF00054B10020A06020600021E16000231A4627
:1050000019462046FFF720FF10BD2DE9F041044668
:1050100001260027224600210120FFF755FE054604
:105020002846FFF7E3FF2846BDE8F08104ED00E0E5
:1050300070B505462C4654B900BF502080F3118846
:10504000BFF34F8FBFF36F8F00BF00BFFEE702F0CB
:10505000C8F8A16888420CD1E068401EE060E068B2
:1050600028B900231A4619462046FFF7EDFE01260F
:1050700000E00026304670BD01464A6A22B10A6B44
:105080001268C2F11F0000E00020704770B50546AD
:1050900003F018FBA86B08B9012400E0002403F01A
:1050A00038FB204670BD2DE9F34182B0054600274C
:1050B0002C46B84654B900BF502080F31188BFF386
:1050C0004F8FBFF36F8F00BF00BFFEE7206C08B9A2
:1050D000012000E0002050B900BF502080F311886B
:1050E000BFF34F8FBFF36F8F00BF00BFFEE702F02B
:1050F0007BF808B9039808B9012000E0002050B9F6
:1051000000BF502080F31188BFF34F8FBFF36F8F24
:1051100000BF00BFFEE700BF03F0D4FAA66BFEB1EC
:10512000701EA063206810B902F0BCFAA06020696C
:1051300008B9012000E0002060B904F1100001F07E
:10514000C1FE38B14FF08050FE490860BFF34F8F69
:10515000BFF36F8F03F0DDFA012004B0BDE8F081EA
:10516000039818B903F0D5FA0020F6E71FB968468E
:1051700001F0C2FF012703F0CCFA01F0C6F803F0FA
:10518000A1FA94F94400401C10B9002084F84400AE
:1051900094F94500401C10B9002084F8450003F044
:1051A000B8FA03A9684601F0C9FF40BB2046FFF7E3
:1051B0006DFFF0B1206838B903F084FAA06802F0FE
:1051C0001FF8804603F0A5FA04F12400039901F0CA
:1051D000EDFD2046FFF7ABFD00F09CFF00289BD1C2
:1051E0004FF08050D7490860BFF34F8FBFF36F8FE8
:1051F00092E72046FFF79BFD00F08CFF8CE72046EE
:10520000FFF795FD00F086FF2046FFF73FFF0028DF
:1052100082D0B8F1000F0BD003F054FA2046FFF70C
:105220002BFF06463146A06802F0CBF803F071FA76
:10523000002092E72DE9F04106460F46344654B966
:1052400000BF502080F31188BFF34F8FBFF36F8FE3
:1052500000BF00BFFEE701F0C4FFA168884204D18F
:10526000E068401CE060012508E039462046FFF771
:105270001AFF054615B1E068401CE0602846BDE80D
:10528000F08170B505460E46002455B1AE4208D8EF
:10529000022200212846FFF717FD04466CB1A663E1
:1052A0000BE054B900BF502080F31188BFF34F8F3B
:1052B000BFF36F8F00BF00BFFEE7204670BD2DE932
:1052C000FC5F80468B4691461E46444654B900BF5B
:1052D000502080F31188BFF34F8FBFF36F8F00BF53
:1052E00000BFFEE7BBF1000F01D1206C08B901201F
:1052F00000E0002050B900BF502080F31188BFF3B8
:105300004F8FBFF36F8F00BF00BFFEE7022E02D1A9
:10531000E06B012801D1012000E0002050B900BF5E
:10532000502080F31188BFF34F8FBFF36F8F00BF02
:1053300000BFFEE703F021FA00BF5021EFF3118018
:1053400081F31188BFF34F8FBFF36F8F00BF054606
:10535000A06BE16B884201D3022E3BD194F94570DA
:10536000A06B0190324659462046FFF72EFD781C6F
:1053700088B9606A08B9012000E0002050B904F142
:10538000240001F09FFD28B1B9F1000F02D00120E7
:10539000C9F800001BE001F0D8FB0090009887429C
:1053A00014D27F2F01D0012000E0002050B900BFAF
:1053B000502080F31188BFF34F8FBFF36F8F00BF72
:1053C00000BFFEE7781C40B284F8450000BF4FF0F4
:1053D000010A01E04FF0000A00BF85F3118800BF09
:1053E0005046BDE8FC9F2DE9F05F074688463C46E5
:1053F00054B900BF502080F31188BFF34F8FBFF323
:105400006F8F00BF00BFFEE7206C08B9012000E0ED
:10541000002050B900BF502080F31188BFF34F8F98
:10542000BFF36F8F00BF00BFFEE7206808B9A06818
:1054300008B9012000E0002050B900BF502080F3DF
:105440001188BFF34F8FBFF36F8F00BF00BFFEE720
:1054500003F093F900BF5021EFF3118081F311881D
:10546000BFF34F8FBFF36F8F00BF0546D4F838A04E
:10547000E06B504536D994F945600AF10100A0630C
:10548000701C88B9606A08B9012000E0002030BBB8
:1054900004F1240001F016FD08B3B8F1000F1ED08E
:1054A0000120C8F800001AE001F04FFB83465E457A
:1054B00014D27F2E01D0012000E0002050B900BF9F
:1054C000502080F31188BFF34F8FBFF36F8F00BF61
:1054D00000BFFEE7701C40B284F8450000BF4FF0EB
:1054E000010901E04FF0000900BF85F3118800BFFA
:1054F0004846BDE8F09F70B504460D46206C70B17B
:10550000216CE0680144E160D4E90210884201D3D3
:105510002168E1602846226CE16803F007FB70BD5A
:105520002DE9F74183B005460E464FF000082C46A2
:105530006CB900BF502080F31188BFF34F8FBFF3C9
:105540006F8F01E004ED00E000BF00BFFEE70EB981
:10555000206C08B9012000E0002050B900BF5020A5
:1055600080F31188BFF34F8FBFF36F8F00BF00BF71
:10557000FEE701F039FE08B9059808B9012000E0FE
:10558000002050B900BF502080F31188BFF34F8F27
:10559000BFF36F8F00BF00BFFEE700BF03F092F8BC
:1055A000A76BF7B131462046FFF7A5FF781EA06331
:1055B000206908B9012000E0002060B904F1100062
:1055C00001F080FC38B14FF08050FC490860BFF317
:1055D0004F8FBFF36F8F03F09CF8012006B0BDE83A
:1055E000F081059818B903F094F80020F6E7B8F1B7
:1055F000000F04D101A801F07FFD4FF0010803F076
:1056000088F800F082FE03F05DF894F94400401C35
:1056100010B9002084F8440094F94500401C10B9EA
:10562000002084F8450003F074F805A901A801F0F2
:1056300085FDF0B92046FFF729FDA0B104F1240053
:10564000059901F0B3FB2046FFF771FB00F062FD06
:105650000028A3D14FF08050D8490860BFF34F8F86
:10566000BFF36F8F9AE72046FFF761FB00F052FD12
:1056700094E72046FFF75BFB00F04CFD2046FFF768
:1056800005FD00288AD00020A8E72DE9F74382B065
:1056900005460E464FF000082C4654B900BF502076
:1056A00080F31188BFF34F8FBFF36F8F00BF00BF30
:1056B000FEE70EB9206C08B9012000E0002050B9C7
:1056C00000BF502080F31188BFF34F8FBFF36F8F5F
:1056D00000BF00BFFEE701F087FD08B9049808B9D4
:1056E000012000E0002050B900BF502080F3118855
:1056F000BFF34F8FBFF36F8F00BF00BFFEE700BF48
:1057000002F0E0FFD4F83890B9F1000F1ED0E7683E
:1057100031462046FFF7EFFEE760606A08B90120D6
:1057200000E0002060B904F1240001F0CBFB38B1A7
:105730004FF08050A1490860BFF34F8FBFF36F8FC8
:1057400002F0E7FF012005B0BDE8F083049818B926
:1057500002F0DFFF0020F6E7B8F1000F04D1684641
:1057600001F0CAFC4FF0010802F0D3FF00F0CDFDBC
:1057700002F0A8FF94F94400401C10B9002084F8FE
:10578000440094F94500401C10B9002084F84500FD
:1057900002F0BFFF04A9684601F0D0FCF0B9204632
:1057A000FFF774FCA0B104F12400049901F0FEFAA3
:1057B0002046FFF7BCFA00F0ADFC0028A0D14FF066
:1057C00080507E490860BFF34F8FBFF36F8F97E71C
:1057D0002046FFF7ACFA00F09DFC91E72046FFF76A
:1057E000A6FA00F097FC2046FFF750FC002887D06F
:1057F0000020A8E72DE9F84F07468A4690463C4628
:1058000054B900BF502080F31188BFF34F8FBFF30E
:105810006F8F00BF00BFFEE7BAF1000F01D1206C0F
:1058200008B9012000E0002050B900BF502080F3EB
:105830001188BFF34F8FBFF36F8F00BF00BFFEE72C
:1058400002F09BFF00BF5021EFF3118081F311881C
:10585000BFF34F8FBFF36F8F00BF0546D4F838B04A
:10586000BBF1000F3BD094F9446051462046FFF74E
:1058700042FEABF10100A063701C88B9206908B931
:10588000012000E0002038BB04F1100001F01AFBF9
:1058900010B3B8F1000F1FD00120C8F800001BE0C2
:1058A00001F053F900900098864214D27F2E01D067
:1058B000012000E0002050B900BF502080F3118883
:1058C000BFF34F8FBFF36F8F00BF00BFFEE7701CA9
:1058D00040B284F8440000BF4FF0010901E04FF0EE
:1058E000000900BF85F3118800BF4846BDE8F88F66
:1058F0002DE9F04706468846344654B900BF50208B
:1059000080F31188BFF34F8FBFF36F8F00BF00BFCD
:10591000FEE7B8F1000F01D1206C08B9012000E0CA
:10592000002050B900BF502080F31188BFF34F8F83
:10593000BFF36F8F00BF00BFFEE7206C08B10120EE
:1059400000E0002050B900BF502080F31188BFF361
:105950004F8FBFF36F8F00BF00BFFEE702F00DFF58
:1059600000BF5021EFF3118081F31188BFF34F8FF7
:10597000BFF36F8F00BF0546A06B48B1D4F80C9001
:1059800041462046FFF7B7FDC4F80C90012700E020
:10599000002700BF85F3118800BF3846BDE8F087B7
:1059A00070B5044664B900BF502080F31188BFF37E
:1059B0004F8FBFF36F8F00BF00BFFEE704ED00E025
:1059C00002F080FEA56B02F0A4FE284670BD70B503
:1059D0000446254655B900BF502080F31188BFF317
:1059E0004F8FBFF36F8F00BF00BFFEE702F06AFE6C
:1059F000D5E90E10461A02F08CFE304670BD10B587
:105A000001460A4652B900BF502383F31188BFF301
:105A10004F8FBFF36F8F00BF00BFFEE7906B10BDCD
:105A2000014651B900BF502282F31188BFF34F8F56
:105A3000BFF36F8F00BF00BFFEE700200EE0684A93
:105A400002EBC00252688A4207D10022644B43F83D
:105A5000302003EBC0035A6002E0401C0828EED35C
:105A600000BF704770B50446254655B900BF5020A9
:105A700080F31188BFF34F8FBFF36F8F00BF00BF5C
:105A8000FEE72846FFF7CCFF284602F0A8FF70BDCE
:105A90000146886C704781647047014691F84C005C
:105AA000704710B501460A4652B900BF502383F330
:105AB0001188BFF34F8FBFF36F8F00BF00BFFEE7AA
:105AC000936B0BB9012000E0002010BD10B501461A
:105AD0000A4652B900BF502383F31188BFF34F8F9A
