:020000040800F2
:10000000F86E002035050008590500085B0500085A
:10001000410500085F0500086305000800000000B6
:10002000000000000000000000000000690100085E
:100030006705000800000000C50100088B9100085A
:100040004F0500084F0500084F0500084F05000840
:100050004F0500084F0500084F0500084F05000830
:100060004F0500084F0500084F05000833480008F9
:10007000534800084F050008974800084F0500083E
:100080004F05000875480008DF4900084F050008C3
:100090004F0500084F0500084F0500084F050008F0
:1000A0004F0500084F0500084F0500084F050008E0
:1000B000B9460008D14600084F0500084F05000862
:1000C0004F0500084F0500084F0500084F050008C0
:1000D0004F050008BF4800085B490008A549000813
:1000E0004F0500084F0500084F0500084F050008A0
:1000F0004F0500084F0500084F05000800000000EC
:100100004F050008000000004F0500084F050008DB
:100110004F0500084F0500084F0500084F0500086F
:100120004F0500084F0500084F0500084F0500085F
:100130004F05000800000000000000004F05000807
:100140004F0500084F0500084F0500084F0500083F
:10015000DFF810D009F076FD00480047DD06000802
:10016000AFF30080F86E00202C4B19680868B0E8E7
:10017000F04F80F30988BFF36F8F4FF0000080F3DA
:10018000118870470000000008480068006880F38C
:1001900008884FF0000080F3148862B661B6BFF3A0
:1001A0004F8FBFF36F8F00DF00BF00BF08ED00E08F
:1001B000DFF80C00016841F470010160704700BF76
:1001C00088ED00E0EFF30980BFF36F8F134B1A68DF
:1001D0001EF0100F08BF20ED108A20E9F04F1060CC
:1001E00009B44FF0500080F31188BFF34F8FBFF375
:1001F0006F8F06F06CFF4FF0000080F3118809BC90
:1002000019680868B0E8F04F1EF0100F08BFB0EC96
:10021000108A80F30988BFF36F8F70475000002069
:10022000EFF305807047000000200021B34A1268F8
:1002300042F00102B14B1A6000BF401CAF4A126885
:1002400002F0020111B9B0F5A06FF6D1AB4A126805
:1002500002F002020AB900BFFEE7A94A126822F0C2
:100260000702D21CA64B1A60A44A5268A34B5A60DC
:100270001A4652685A601A46526842F480625A60BE
:100280001A4652689F4B1A409C4B5A601A46526855
:100290009D4B1A43994B5A601A46126842F080727D
:1002A0001A6000BF954A126802F00072002AF9D065
:1002B000924A526822F00302904B5A601A465268E2
:1002C00042F002025A6000BF8C4A526802F00802F3
:1002D000002AF9D0704710B5FFF7A6FF10BD08B58A
:1002E0008A48006840F470008849086083480068C4
:1002F00040F001008149086000BF8048006800F0BC
:1003000002000028F9D000BF7C48406840F080001F
:100310007A4948600020009002E00098401C00905C
:1003200000985028F9D37548406840F09000734910
:1003300048600020009002E00098401C0090009867
:100340005028F9D300BF6D48406820F003006B4986
:100350004860084600686E490840684908604FF4E4
:100360007F00886000204860C8620846006820F46A
:1003700080200860FFF7AFFF00214FF0006002F01F
:10038000CAF908BD2DE9F04F85B0002300240025EF
:100390000026002100278C46002288468946CDF899
:1003A00010900FF2701999E8004CD9F80C908DE874
:1003B000004CCDF80C90DFF84491D9F80490C9F3C3
:1003C000810323B1012B09D0022B75D10DE0DFF899
:1003D0005491DFF854A1CAF8009074E0DFF844911A
:1003E000DFF844A1CAF800906DE0DFF81091D9F869
:1003F000049009F48034B4F5803F34D1DFF8FC90E8
:10040000D9F82C9009F080450DB9464900E04749DC
:10041000DFF8E890D9F82C9009F48036B6F5803FE3
:1004200016D1DFF8D890D9F82C90C9F3031909F147
:10043000010CDFF8C890D9F82C90C9F3032909F111
:100440000202112A00D11422B1FBFCF909FB02F1CE
:10045000DFF8A890D9F82C9009F00F0909F10107ED
:10046000B1FBF7F100E03249DFF89090D9F8049041
:10047000C9F38340DFF88490D9F8049009F000595B
:10048000B9F1000F01D040F010000F2801D2801CFC
:1004900000E0401C01FB00F9DFF88CA0CAF80090D6
:1004A0000F2807D101EB41094FEA490909EB51092E
:1004B000CAF8009007E0FFE7DFF86890DFF868A06F
:1004C000CAF8009000BF00BFDFF83090D9F8049060
:1004D000C9F303181DF80890CDF81090DFF8489084
:1004E000D9F80090DDF810A029FA0AF9DFF838A051
:1004F000CAF8009005B0BDE8F08F0000001002407F
:1005000000200240FFFFC3DF0000342088ED00E040
:10051000FFFFF6EA000000000000000001020304F3
:100520000607080900127A0000000020006CDC02B7
:1005300000093D000648804706480047FEE7FEE701
:10054000FEE7FEE7FEE7FEE7FEE7FEE7FEE7FEE783
:10055000DF02000851010008704700BFFEE700BF3E
:10056000FEE700BFFEE7704708B500BF00BF07F019
:1005700001F800901BE04FF0FF317948006805F06A
:10058000B2FA01280DD11722764903F0F2FE0320BA
:1005900006F046FC00231A4619467148006805F02B
:1005A00073F900BF1421684606F0D5FB00BFE2E7EF
:1005B000ADF5FB6D2BE04FF0FF3001230022082149
:1005C00000906948006804F098FE00281ED000F0F2
:1005D000CDFE02A807F0B0FC64A009F045FB02A91B
:1005E0006EA009F041FB02A807F01CFD6DA009F008
:1005F0003BFB02A969A009F037FB4FF400417348A7
:1006000003F042FF4FF4FA7006F00AFC00BFD2E795
:1006100008B500BF06F0AEFF009009E004F0A8FAAC
:1006200000F01CF900BF1421684606F094FB00BFDF
:10063000F4E77CB50546002408F064FD6448032116
:1006400000239622CDE9001062A1AFF23B0006F034
:10065000D9F8012802D062A009F006FB6548012103
:1006600000238022CDE9001063A1AFF2BB0006F0A9
:10067000C9F8012802D063A009F0F6FA66480521FE
:1006800000238022CDE9001064A1AFF2231006F010
:10069000B9F8012802D064A009F0E6FA08F059FD83
:1006A0006748006806F0FFF87CBD10B503F0FFFE58
:1006B00003F0A0FE04F094F804F024F804F044FBE6
:1006C0004FF4E13003F0CCFD03F066FF03F097FF39
:1006D0004FF400413D4803F0D7FE10BD1CB5FFF7B5
:1006E000E4FF04F08DFC39E01D48006820B90120CA
:1006F00005F0ABF91A4908605248006830B9032286
:100700000021012005F000F84E49086016480068F5
:1007100018B904F0E9FC144908604B48006830B986
:1007200000220821012004F0EFFF474908604748F4
:10073000006830B900220121084604F0E5FF434972
:1007400008603F4801210023C822CDE9001040A1E4
:10075000AFF2211006F056F806F0BDFEC4E7000027
:1007600014000020E10100201C0000200AC8CECEA9
:10077000F12020202020202020B5B1C7B0D7B4CC54
:10078000AC20D3C5CFC8BCB620D7EED0A1CAA3D366
:10079000E020B4B4BDA8CBB3D0F200000A25730AA0
:1007A000000000000AC8CECEF1202020202020200A
:1007B00020202020CAB1BCE420202020202020209E
:1007C0002020202020D5BCD3C30000000008014019
:1007D000040000204144435F7461736B000000001B
:1007E0004144435F7461736B20B4B4BDA8CAA7B021
:1007F000DC0A00000C000020544553545F74617300
:100800006B000000544553545F7461736B20B4B4A3
:10081000BDA8CAA7B0DC0A00100000205553415201
:10082000545F7461736B00005553415254325F74CE
:1008300061736B20B4B4BDA8CAA7B0DC0A00000085
:1008400008000020180000202000002024000020C4
:1008500073746172745F7461736B000000B599B05A
:10086000FE48C089179004F0DBFAFD490880FB4878
:10087000008840F61501884203DAF8480088081A13
:1008800000E00020F549088008464088B0F5CB7F9D
:1008900004DB08464088A0F2951000E00020EF49F4
:1008A00048800846808840F2EC71884204DDEB48BD
:1008B0008088A0F2EC7000E00020E84988800846BB
:1008C000C08840F2EA71884204DDE448C088A0F2A2
:1008D000EA7000E00020E149C8800846008940F243
:1008E000EE71884204DDDD480089A0F2EE7000E080
:1008F0000020DA4908810846408940F2EA718842BE
:1009000004DDD6484089A0F2EA7000E00020D34917
:100910004881084600880D9008F0E4FF9FEDD10B58
:1009200053EC102BCDE90E019DED0E0B51EC100B8D
:1009300008F0F7FECDE91201C8480088079008F0DA
:10094000D1FFCDE90A01C5480088059008F0CAFF2B
:100950009FEDC60B53EC102BCDE906019DED060B68
:1009600051EC100B08F0DDFECDE908019DED0A0BFE
:1009700053EC102B9DED080B51EC100B08F0D1FE41
:10098000CDE90E01B5480088079008F0ABFFCDE92E
:100990000A01B2480088039008F0A4FFCDE90601DF
:1009A000AE480088019008F09DFF9FEDB20B53EC1C
:1009B000102BCDE902019DED020B51EC100B08F05C
:1009C000B0FECDE904019DED060B53EC102B9DED1F
:1009D000040B51EC100B08F0A4FECDE908019DEDCD
:1009E0000A0B53EC102B9DED080B51EC100B08F08B
:1009F00098FECDE90C019DED0E0B53EC102B9DEDF7
:100A00000C0B51EC100B08F0E5FDCDE910019DED4C
:100A1000120B53EC102B9DED100B51EC100B08F04A
:100A2000D9FD9FED960B53EC102BCDE914019DEDF4
:100A3000140B51EC100B08F0CDFDCDE916019DED26
:100A4000160B51EC100B08F079FF8E490880834893
:100A500040880D9008F046FF9FED8B0B53EC102B58
:100A6000CDE90E019DED0E0B51EC100B08F059FE77
:100A7000CDE9120179484088079008F033FFCDE9AD
:100A80000A0176484088059008F02CFF9FED800B06
:100A900053EC102BCDE906019DED060B51EC100B2C
:100AA00008F03FFECDE908019DED0A0B53EC102B39
:100AB0009DED080B51EC100B08F033FECDE90E0153
:100AC00066484088079008F00DFFCDE90A016348A9
:100AD0004088039008F006FFCDE906015F48408892
:100AE000019008F0FFFE9FED6C0B53EC102BCDE94D
:100AF00002019DED020B51EC100B08F012FECDE946
:100B000004019DED060B53EC102B9DED040B51ECF5
:100B1000100B08F006FECDE908019DED0A0B53EC21
:100B2000102B9DED080B51EC100B08F0FAFDCDE9F0
:100B30000C019DED0E0B53EC102B9DED0C0B51ECAD
:100B4000100B08F047FDCDE910019DED120B53ECA1
:100B5000102B9DED100B51EC100B08F03BFD9FEDA1
:100B6000500B53EC102BCDE914019DED140B51ECFF
:100B7000100B08F02FFDCDE916019DED160B51EC81
:100B8000100B08F0DBFE3F494880344880880D9008
:100B900008F0A8FE9FED440B53EC102BCDE90E019D
:100BA0009DED0E0B51EC100B08F0BBFDCDE91201D1
:100BB0002A488088079008F095FECDE90A01274869
:100BC0008088059008F08EFE9FED390B53EC102BBA
:100BD000CDE906019DED060B51EC100B08F0A1FDCF
:100BE000CDE908019DED0A0B53EC102B9DED080B90
:100BF00051EC100B08F095FDCDE90E0117488088E7
:100C0000079008F06FFECDE90A0114488088039030
:100C100008F068FECDE9060110488088019008F0D0
:100C200061FE9FED250B53EC102BCDE902019DEDEC
:100C3000020B51EC100B08F074FDCDE904019DEDA1
:100C4000060B53EC102B9DED040B51EC100B08F030
:100C500068FDCDE908019DED0A0B31E02C0500206F
:100C60003A000020D7AB787D8776D93F871E1137B1
:100C70009DAE0E3F7831B084898C6CBEAE2F26BEFF
:100C800059310740DC000020AF68D67D7787E53F0B
:100C900056950A6A8B3111BF35828199C7B7553E87
:100CA000DAD857E4F80DF13F623CAC73F18FE43FC2
:100CB000217D41E7714803BF56C0DC237ABC4C3E1E
:100CC00053EC102B9DED080B51EC100B08F029FD97
:100CD000CDE90C019DED0E0B53EC102B9DED0C0B93
:100CE00051EC100B08F076FCCDE910019DED120BD4
:100CF00053EC102B9DED100B51EC100B08F06AFC1F
:100D00009FEDFE0B53EC102BCDE914019DED140B60
:100D100051EC100B08F05EFCCDE916019DED160BB1
:100D200051EC100B08F00AFEF6498880F648C0889E
:100D30000D9008F0D7FD9FEDF50B53EC102BCDE98E
:100D40000E019DED0E0B51EC100B08F0EAFCCDE905
:100D50001201ED48C088079008F0C4FDCDE90A01F2
:100D6000E948C088059008F0BDFD9FEDEA0B53EC03
:100D7000102BCDE906019DED060B51EC100B08F090
:100D8000D0FCCDE908019DED0A0B53EC102B9DED35
:100D9000080B51EC100B08F0C4FCCDE90E01DA4849
:100DA000C088079008F09EFDCDE90A01D648C088AA
:100DB000039008F097FDCDE90601D348C088019063
:100DC00008F090FD9FEDD50B53EC102BCDE90201FF
:100DD0009DED020B51EC100B08F0A3FCCDE90401D2
:100DE0009DED060B53EC102B9DED040B51EC100BFD
:100DF00008F097FCCDE908019DED0A0B53EC102B90
:100E00009DED080B51EC100B08F08BFCCDE90C01AB
:100E10009DED0E0B53EC102B9DED0C0B51EC100BBC
:100E200008F0D8FBCDE910019DED120B53EC102B0F
:100E30009DED100B51EC100B08F0CCFB9FEDB90BA6
:100E400053EC102BCDE914019DED140B51EC100B5C
:100E500008F0C0FBCDE916019DED160B51EC100B0F
:100E600008F06CFDA749C880A74800890D9008F0DC
:100E700039FD9FEDAE0B53EC102BCDE90E019DED2E
:100E80000E0B51EC100B08F04CFCCDE912019E4802
:100E90000089079008F026FDCDE90A019A480089EB
:100EA000059008F01FFD9FEDA30B53EC102BCDE92F
:100EB00006019DED060B51EC100B08F032FCCDE95C
:100EC00008019DED0A0B53EC102B9DED080B51EC26
:100ED000100B08F026FCCDE90E018B480089079025
:100EE00008F000FDCDE90A0187480089039008F069
:100EF000F9FCCDE9060184480089019008F0F2FC74
:100F00009FED8E0B53EC102BCDE902019DED020BF2
:100F100051EC100B08F005FCCDE904019DED060B2A
:100F200053EC102B9DED040B51EC100B08F0F9FB6A
:100F3000CDE908019DED0A0B53EC102B9DED080B3C
:100F400051EC100B08F0EDFBCDE90C019DED0E0B03
:100F500053EC102B9DED0C0B51EC100B08F03AFBF1
:100F6000CDE910019DED120B53EC102B9DED100BF4
:100F700051EC100B08F02EFB9FED720B53EC102B75
:100F8000CDE914019DED140B51EC100B08F022FB80
:100F9000CDE916019DED160B51EC100B08F0CEFCBF
:100FA00058490881584840890D9008F09BFC9FEDF6
:100FB000670B53EC102BCDE90E019DED0E0B51ECA0
:100FC000100B08F0AEFBCDE912014F4840890790A5
:100FD00008F088FCCDE90A014B484089059008F0EB
:100FE00081FC9FED5C0B53EC102BCDE906019DEDD0
:100FF000060B51EC100B08F094FBCDE908019DEDB8
:101000000A0B53EC102B9DED080B51EC100B08F064
:1010100088FBCDE90E013C484089079008F062FC4E
:10102000CDE90A0138484089039008F05BFCCDE91E
:10103000060135484089019008F054FC9FED470BAC
:1010400053EC102BCDE902019DED020B51EC100B7E
:1010500008F067FBCDE904019DED060B53EC102B66
:101060009DED040B51EC100B08F05BFBCDE9080182
:101070009DED0A0B53EC102B9DED080B51EC100B62
:1010800008F04FFBCDE90C019DED0E0B53EC102B3E
:101090009DED0C0B51EC100B08F09CFACDE9100102
:1010A0009DED120B53EC102B9DED100B51EC100B22
:1010B00008F090FA9FED2B0B53EC102BCDE91401A7
:1010C0009DED140B51EC100B08F084FACDE91601DC
:1010D0009DED160B51EC100B08F030FC09494881CE
:1010E000094880890D9008F0FDFB9FED200B53EC23
:1010F000102BCDE90E019DED0E0B3BE0FDF20BA791
:10110000B33611C0DC0000202C05002006E42104C9
:101110008A5EE43F399B70865E7CF6BED7C76E3F21
:101120009326413E17DD475C6A2EF7BFF72DDD9E03
:10113000CCC11140189CFD0408F13ABF2063B610E1
:10114000D3CBA13E704FE8D9D29113C015C60C1075
:10115000A9B611405FD833C9F47925BFB9E8612732
:10116000AAAD973E92DD37844B7911C0DEC464DDB1
:101170003DF4044051EC100B08F0D3FACDE9120114
:10118000F2488089079008F0ADFBCDE90A01EF48ED
:101190008089059008F0A6FB9FEDED0B53EC102B1A
:1011A000CDE906019DED060B51EC100B08F0B9FAE4
:1011B000CDE908019DED0A0B53EC102B9DED080BBA
:1011C00051EC100B08F0ADFACDE90E01DF48808933
:1011D000079008F087FBCDE90A01DC48808903907D
:1011E00008F080FBCDE90601D8488089019008F01D
:1011F00079FB9FEDD90B53EC102BCDE902019DED4E
:10120000020B51EC100B08F08CFACDE904019DEDB6
:10121000060B53EC102B9DED040B51EC100B08F05A
:1012200080FACDE908019DED0A0B53EC102B9DEDE2
:10123000080B51EC100B08F074FACDE90C019DED90
:101240000E0B53EC102B9DED0C0B51EC100B08F01A
:10125000C1F9CDE910019DED120B53EC102B9DED62
:10126000100B51EC100B08F0B5F99FEDBD0B53ECD2
:10127000102BCDE914019DED140B51EC100B08F06F
:10128000A9F9CDE916019DED160B51EC100B08F0F4
:1012900055FBB5498881AD48C089179003F0C0FD62
:1012A000B24908804FF0FF31B148006804F01BFCE0
:1012B000012859D1AA20AF4908705520487088707C
:1012C000AA20C870A84800780871A7480088000ABA
:1012D0004871A54880788871A3484088000AC87181
:1012E000A14800790872A0488088000A48729E4888
:1012F000807988729C48C088000AC8729A48007A2F
:10130000087399480089000A48739748807A88735F
:1013100095484089000AC8739348007B0874924836
:101320008089000A48749148007888741420C87431
:101330004FF48071904801F0AFF88E4908754FF472
:1013400000618D4801F0A8F88A4948754FF4805132
:10135000894801F0A1F88749887500231A46194683
:101360008348006804F090FA19B000BD10B52DED67
:10137000048B82B081A008F077FC7B49088808F0D4
:10138000B1FA41EC190B9FED7E0B53EC102B08F0DA
:101390003AFA41EC180B6D48008853EC182B00907A
:1013A00079A008F061FC7049488808F09BFA41EC8C
:1013B000190B9FED730B53EC102B08F024FA41EC42
:1013C000180B6248408853EC182B009073A008F06B
:1013D0004BFC6549888808F085FA41EC190B9FEDB4
:1013E000680B53EC102B08F00EFA41EC180B574821
:1013F000808853EC182B00906DA008F035FC5A49FA
:10140000C88808F06FFA41EC190B9FED5D0B53ECA7
:10141000102B08F0F8F941EC180B4C48C08853EC3D
:10142000182B009067A008F01FFC4F49088908F0AE
:1014300059FA41EC190B9FED520B53EC102B08F0AD
:10144000E2F941EC180B4148008953EC182B00904D
:1014500061A008F009FC4449488908F043FA41ECCE
:10146000190B9FED470B53EC102B08F0CCF941EC16
:10147000180B3648408953EC182B00905BA008F0FD
:10148000F3FB3949888908F02DFA41EC190B9FEDDF
:101490003C0B53EC102B08F0B6F941EC180B2B4821
:1014A000808953EC182B009055A008F0DDFB2F48E5
:1014B000B0F9001057A008F0D7FB5AA008F0D4FBF1
:1014C0004FF480712C4800F0E7FF0446214662A0EB
:1014D00008F0CAFB4FF40061274800F0DDFF044626
:1014E000214661A008F0C0FB4FF48051224800F073
:1014F000D3FF0446214660A008F0B6FB62A008F0C6
:10150000B3FB002001F064FC044621466BA008F008
:10151000ABFB012001F05CFC044621466BA008F007
:10152000A3FB022001F054FC044621466BA008F006
:101530009BFB032001F04CFC044621466BA008F005
:1015400093FB02B0BDEC048B10BD00002C05002005
:101550008AEEB1E2999824BF9FB0C2A9C1A5873E87
:10156000E4F68752899A3F40DC0000203A000020D0
:1015700014000020E1010020000801400D0A0000D5
:1015800000000000000059404144435F49302025DD
:101590002E3266205B25645D0A0000004144435FF3
:1015A000493120252E3266205B25645D0A0000004B
:1015B0004144435F493220252E3266205B25645D1D
:1015C0000A0000004144435F493320252E32662043
:1015D0005B25645D0A0000004144435F49342025D7
:1015E0002E3266205B25645D0A0000004144435FA3
:1015F000493520252E3266205B25645D0A000000F7
:101600004143696E5F562A20252E3266205B256491
:101610005D0A000054454D5020256420A1E60D0AC6
:10162000000000002D2D2D2D2D2D2D2D2D2D2D2D9E
:101630002D2D2D2D2D2D2D2D2D2D2DBCECB2E2D0AF
:10164000C5BAC52D2D2D2D2D2D2D2D2D2D2D2D2D0D
:101650002D2D2D2D000000004A435F3132563220DF
:101660002025640A000000004A435F3132563420CE
:101670002025640A000000004A435F3132563520BD
:101680002025640A000000002D2D2D2D2D2D2D2D3F
:101690002D2D2D2D2D2D2D2D2D2D2D2D2D2D2DCADD
:1016A000B1D6D3D0C5BAC52D2D2D2D2D2D2D2D2D37
:1016B0002D2D2D2D2D2D2D2D00000000CFB5CDB3BE
:1016C000CAB1D6D33A2025640A000000414842CA74
:1016D000B1D6D33A2025640A0000000041504231BF
:1016E000CAB1D6D33A2025640A00000041504232E4
:1016F000CAB1D6D33A2025640A00000010B50446CA
:10170000FA48204418B1B0F5806F12D108E040F2D9
:10171000093001F05FF940F2093001F069F909E0A0
:1017200040F20A3001F056F940F20A3001F060F957
:1017300000E000BF00BF10BDED49096821F4702131
:10174000EB4A116011460968014311607047AAB164
:1017500001F480731BB1436843F48073436001F468
:1017600080631BB1436843F48063436001F002036C
:10177000CBB1836843F00203836014E001F480730B
:101780001BB1436823F48073436001F480631BB191
:10179000436823F48063436001F002031BB1836854
:1017A00023F002038360704721B1826842F4006233
:1017B000826003E0826822F4006282607047816880
:1017C00001F0010119B9816841F0010181607047A0
:1017D000816821F0010181607047816841F0080152
:1017E000816000BF816801F008010029FAD1816899
:1017F00041F00401816000BF816801F0040100290B
:10180000FAD17047BA48001D006840F40000B8499A
:10181000091D08607047B648001D006820F40000EC
:10182000B349091D0860704750F8802F22F44052D8
:10183000026002680A4340F88029704730B5B1F56C
:10184000007F06D1D0F8804044F40074C0F8804096
:1018500005E0D0F8804024F40074C0F8804050F8CF
:10186000804F24F4FE740460046842EA03052C43AC
:1018700040F8804930BDD0F8801041F00101C0F837
:1018800080107047D0F8801021F00101C0F880105E
:101890007047816841F4807181607047816821F4EC
:1018A00080718160704730B5436823F4C053436052
:1018B000012904D0022913D0042916D116E0436867
:1018C00023F4604343604368541E4FF4604505EAC7
:1018D000443423434360436843F40063436006E0B9
:1018E000436843F48053436001E000BF00BF00BF82
:1018F00030BD30B5012902D002291AD10CE0C36AEB
:1019000023F47003C362C36A541E4FF4700505EAE2
:1019100004542343C3620DE0836B23F440138363B9
:10192000836B541E4FF4401505EA0454234383632C
:1019300000E000BF00BF30BDF0B51D4606290CDA3F
:10194000436B01EB81071F26BE40B34301EB8106C9
:1019500002FA06F63343436322E00C290EDA036BE6
:101960008E1F06EB86071F26BE40B3438E1F06EB75
:10197000860602FA06F63343036311E010290FDAF4
:10198000C36AA1F10C0606EB86071F26BE40B343CF
:10199000A1F10C0606EB860602FA06F63343C36293
:1019A0000A2A0CDA046902EB42070726BE40B44358
:1019B00002EB420605FA06F63443046111E0122AEE
:1019C0000FDAC468A2F10A0606EB46070726BE40F6
:1019D000B443A2F10A0606EB460605FA06F63443BE
:1019E000C460F0BDF0B50C46876BC7F30156856B3C
:1019F000E71CBF1B07EB870C1F2707FA0CF7BD433B
:101A0000E71CBF1B07EB870702FA07F73D43856317
:101A10000A2A0DDA016902EB420C072707FA0CF7D4
:101A2000B94302EB420703FA07F73943016112E0B9
:101A3000122A10DAC168A2F10A0707EB470C072740
:101A400007FA0CF7B943A2F10A0707EB470703FAB5
:101A500007F73943C160F0BD70B50B460021856BB7
:101A6000C5F30154E51AC5F10301032905D889001E
:101A7000C2F30B0600F114056E5070BD012902D0AF
:101A8000022910D107E0836823F460238360836810
:101A90001343836008E0836823F4E0438360836832
:101AA0001343836000E000BF00BF704772B101F0D4
:101AB00001031BB1836843F48013836001F00203C8
:101AC00093B1836843F4004383600DE001F00103A8
:101AD0001BB1836823F48013836001F002031BB100
:101AE000836823F4004383607047000000DCFEBF7E
:101AF0000424014001F001021AB1826842F480021C
:101B0000826001F002021AB1826842F4001282601F
:101B100070470146C86C80B2704702460B4633B12D
:101B2000012B06D0022B06D0032B08D105E0D16B88
:101B300007E0116C05E0516C03E0916C01E00021BD
:101B400000BF00BF88B270475748006870474268BE
:101B5000564B1A40426042680A4342604268544B06
:101B60001A43426070474268504B1F331A4042602C
:101B7000012904D0022907D003290FD109E04268C6
:101B800042F4000242600AE0426842F4800242608D
:101B900005E0426842F44002426000E000BF00BF3E
:101BA00070474168414A114041607047C1F30B03DF
:101BB0008362C2F30B03436270470246002013683E
:101BC0000B4003B10120704702688A4302607047EE
:101BD000014600200A6802F0100202B1012070479D
:101BE000014600200A6802F0080202B10120704795
:101BF00010B502460B460020012B04D0022B0CD05E
:101C0000042B1ED113E0146804F00101546804F0A1
:101C100040040CB101B1012014E0146804F0020189
:101C2000546804F020040CB101B101200AE01468EA
:101C300004F00401546804F080040CB101B10120E7
:101C400000E000BF00BF10BD02688A430260704719
:101C500001F001021AB1426842F04002426001F014
:101C600002021AB1426842F02002426001F004020E
:101C70001AB1426842F080024260704701F00102EE
:101C80001AB1426822F04002426001F002021AB129
:101C9000426822F02002426001F004021AB1426858
:101CA00022F08002426070474C240140E0FD3FFF7B
:101CB0000002C00002460120FD4B9A4202D10429D5
:101CC00000DD0020704770B504460D4629462046C9
:101CD000FFF7F0FF08B900BFFEE705EB85008100C4
:101CE00004F10800405820F0010105EB8500820056
:101CF00004F108008150002105EB8500820004F109
:101D00000800815005EB8500820004F10C00815031
:101D100005EB8500820004F11000815005EB850081
:101D2000820004F1140081506068AA000F219140E4
:101D30000843606070BD08B900BFFEE70021016084
:101D4000416001768160C1604176016181764161C7
:101D500070472DE9F04104460D46164629462046B7
:101D6000FFF7A8FF08B900BFFEE705EB850082007A
:101D700004F110003168815005EB8500820004F108
:101D80001400B1688150308A81B205EB8500820071
:101D900004F10C00815005EB8500810004F108007E
:101DA000475827F47C57F168706808437169084305
:101DB000074305EB8500810004F108004750307EA1
:101DC00001280ED105EB8500810004F10800405880
:101DD00040F0400105EB8500820004F108008150CD
:101DE0000DE005EB8500810004F10800405820F06B
:101DF000400105EB8500820004F108008150707EEF
:101E000001280ED105EB8500810004F1080040583F
:101E100040F0800105EB8500820004F1080081504C
:101E20000DE005EB8500810004F10800405820F02A
:101E3000800105EB8500820004F108008150B07E2E
:101E400070B905EB8500810004F10800405820F0CE
:101E5000100105EB8500820004F1080081500DE0BF
:101E600005EB8500810004F10800405840F01001A6
:101E700005EB8500820004F108008150BDE8F08187
:101E800070B505460C4621462846FFF713FF08B9F2
:101E900000BFFEE704EB8400810005F10800405814
:101EA00040F0200104EB8400820005F1080081501D
:101EB00070BD70B505460C4621462846FFF7FAFE70
:101EC00008B900BFFEE704EB8400810005F10800BB
:101ED000405820F0200104EB8400820005F1080046
:101EE000815070BD70B505460C4621462846FFF767
:101EF000E1FE08B900BFFEE704EB8400810005F1B4
:101F00000800405840F4804104EB8400820005F151
:101F10000800815070BD70B505460C462146284624
:101F2000FFF7C8FE08B900BFFEE704EB840081009C
:101F300005F10800405820F4804104EB8400820041
:101F400005F10800815070BD70B505460C4621466C
:101F50002846FFF7AFFE08B900BFFEE704EB840098
:101F6000810005F10800405840F0010104EB8400B5
:101F7000820005F10800815070BD70B505460C4621
:101F800021462846FFF796FE08B900BFFEE704EB9E
:101F90008400810005F10800405820F0010104EBA5
:101FA0008400820005F10800815070BD70B50646BE
:101FB0000C46154621463046FFF77CFE08B900BFA7
:101FC000FEE704EB8400810006F11000455070BD6F
:101FD00070B506460C46154621463046FFF76AFEA8
:101FE00008B900BFFEE704EB8400810006F114008D
:101FF000455070BD70B506460C4615462146304624
:10200000FFF758FE08B900BFFEE7A9B204EB840051
:10201000820006F10C00815070BD70B505460C467B
:1020200021462846FFF746FE08B900BFFEE704EB4D
:102030008400810005F10C00405870BD2DE9F0418D
:1020400004460D46174629462046FFF733FE08B9D9
:1020500000BFFEE705EB8500810004F1080046584B
:1020600026F440563E4305EB8500810004F108004C
:102070004650BDE8F0812DE9F04104460D46174673
:1020800029462046FFF716FE08B900BFFEE705EB1C
:102090008500810004F10800465826F440663E435E
:1020A00005EB8500810004F108004650BDE8F08191
:1020B000000402402DE9F04104460D46174629462A
:1020C0002046FFF7F7FD08B900BFFEE705EB8500E6
:1020D000810004F10800465826F440763E4305EBA3
:1020E0008500810004F108004650BDE8F08170B51C
:1020F00005460C4621462846FFF7DCFD08B900BF1F
:10210000FEE704EB8400810005F10800405840F030
:10211000800104EB8400820005F10800815070BD4D
:1021200070B505460C4621462846FFF7C3FD08B9A1
:1021300000BFFEE704EB8400810005F10800405871
:1021400020F0800104EB8400820005F1080081503A
:1021500070BD70B505460C4621462846FFF7AAFD1E
:1021600008B900BFFEE704EB8400810005F1080018
:10217000405840F0400104EB8400820005F1080063
:10218000815070BD70B505460C4621462846FFF7C4
:1021900091FD08B900BFFEE704EB8400810005F162
:1021A0000800405820F0400104EB8400820005F153
:1021B0000800815070BD70B504460D46164629468C
:1021C0002046FFF777FD08B900BFFEE776B905EBBB
:1021D0008500810004F10800405820F0100105EB53
:1021E0008500820004F1080081500DE005EB8500B8
:1021F000810004F10800405840F0100105EB850013
:10220000820004F10800815070BD30B503461C689F
:102210008D0002FA05F52C400CB1012000E00020F1
:1022200030BD10B543688C0002FA04F423434360C8
:1022300010BD70B5034600BF00BF022A04D0042AB7
:1022400011D0082A2DD11DE018688E0002FA06F67A
:1022500000EA060501EB8100860003F108008059C1
:1022600000F002041FE018688E0002FA06F600EA89
:10227000060501EB8100860003F10800805900F09B
:10228000040410E018688E0002FA06F600EA06055B
:1022900001EB8100860003F10800805900F008047A
:1022A00001E000BFFEE700BF15B10CB1012070BD19
:1022B0000020FCE710B543688C0002FA04F42343C5
:1022C000436010BD70B504460D46164629462046AB
:1022D000FFF7F0FC08B900BFFEE705EB85008100C1
:1022E00004F108004058304305EB85018A0004F1F1
:1022F0000801885070BD70B504460D461646294643
:102300002046FFF7D7FC08B900BFFEE705EB8500C4
:10231000810004F108004058B04305EB85018A00B4
:1023200004F10801885070BD10B50446C749601A11
:102330008C4220D006DCC648204450B1B0F5806FF6
:1023400034D10FE0B0F5806F1ED0B0F5006F2DD105
:1023500023E040F2023000F03DFB40F2023000F09A
:1023600047FB24E040F2033000F034FB40F203303E
:1023700000F03EFB1BE04FF4417000F02BFB4FF4EC
:10238000417000F035FB12E040F2053000F022FB16
:1023900040F2053000F02CFB09E040F2063000F07E
:1023A00019FB40F2063000F023FB00E000BF00BF45
:1023B00010BD10B54FF4407000F00CFB4FF44070AE
:1023C00000F016FB10BDF0B50446164600250022AD
:1023D00001F00F0501F0100747B1042E05D145F0BB
:1023E0000305E76B1F43E76300E0354300201EE071
:1023F000012787401F40C7B122684FEA800C0F2792
:1024000007FA0CF7BA43870005FA07F73A43282979
:1024100004D1012787401F40676105E0482903D1A7
:10242000012787401F4027612260471CB8B2082857
:10243000DED3082022E0012787401F40E7B1626811
:10244000A0F108074FEA870C0F2707FA0CF7BA43E9
:10245000A0F10807BF0005FA07F73A43282904D17D
:10246000012787401F40676105E0482903D1012704
:1024700087401F4027616260471CB8B21028DAD33A
:10248000F0BD01617047416170470AB1016100E030
:1024900041617047C160704702469068084008B1CA
:1024A000012070470020FCE70146886880B2704731
:1024B0000246D068084008B1012070470020FCE7C0
:1024C0000146C86880B27047F0B50A460023002470
:1024D0000021002500F00046B6F1004F02D15D4E0C
:1024E000F16901E05B4E7168C0F3034583B200F40B
:1024F0004016B6F5401F08D121F0E061554E7668D0
:1025000026F0E066534F7E6012E000F48016B6F5C8
:10251000801F06D1032606FA05F4A14341F0E061CD
:1025200006E0460D360103FA06F6B14341F0E061DC
:1025300022B1460D360103FA06F6314300F000469B
:10254000B6F1004F02D1434EF16101E0414E71609E
:10255000F0BD10B500228B071C0F0F2303FA04F205
:1025600004290EDA3B4B9B6893433A4CA360234605
:102570009B688C07240F00FA04F42343354CA360B6
:102580002FE008290EDA334BDB689343314CE360CC
:102590002346DB688C07240F00FA04F423432D4CF8
:1025A000E3601EE00C290EDA2A4B1B699343294C89
:1025B000236123461B698C07240F00FA04F423438C
:1025C000244C23610DE0234B5B699343214C6361F1
:1025D00023465B698C07240F00FA04F423431D4C47
:1025E000636110BD024600201A4B186820F07F007E
:1025F00040EA02100843186070471648006840F02F
:1026000080001449086070471248006820F080007C
:102610001049086070474FF480320A43826181613B
:1026200082618269826970470A4A116A21F0010158
:1026300041EA0002074B1A6270470648006A00F43C
:10264000807008B1012070470020FCE700100140B5
:1026500000F8FEBF0000014045490143454A1160B2
:1026600070472DE9F04103460D4616460024002729
:10267000A0464048006800F4E060B0F5A06F15D0B7
:1026800006DCB0F5407F18D0B0F5806F19D110E0AE
:10269000B0F5C06F06D0B0F5E06F12D100274FF053
:1026A000040815E001274FF0030811E00227B8469F
:1026B0000EE003274FF001080AE004274FF000085E
:1026C00006E04FF4A060FFF7C7FF0227B84600BF3F
:1026D00000BFC7F1040005FA00F4C8F104010F209F
:1026E000C8403040044324012348C45403F01F0170
:1026F000012088405911890001F1E021C1F8000151
:10270000BDE8F08100F01F02012191401B4A4311F6
:1027100042F8231070471A4A0A400243154B1B1F08
:102720001A60BFF34F8F70471249091D09680143B2
:10273000104A121D116070470E49091D0968814336
:102740000C4A121D11607047042808D14FF0E02197
:10275000096941F004014FF0E022116107E04FF0F8
:10276000E021096921F004014FF0E0221161704776
:102770000000FA050CED00E000E400E080E100E07C
:1027800080FFFF1F0146F74A02EB9110006801F03D
:102790001F0301229A40104008B101207047002019
:1027A000FCE7F0B506460024002700251C2E6ED05D
:1027B00007DCB6B3102E10D0182E67D01A2E67D1B2
:1027C00076E0B6F5006F19D0B6F5106F4CD0A6F5CF
:1027D000405010380028F2D134E004E01120FFF717
:1027E000D1FF0546641C1DB94FF6FF708442F5D138
:1027F0001120FFF7C7FF00B101277AE005E040F69E
:102800000100FFF7BFFF0546641C1DB96FF07C4057
:102810008442F4D140F60100FFF7B4FF00B1012774
:1028200067E0FFE704E00120FFF7ACFF0546641C0A
:1028300015B9B4F5A06FF6D10120FFF7A3FF00B1E1
:10284000012756E005E043F21100FFF79BFF054624
:10285000641C15B9C4488442F5D143F21100FFF756
:1028600091FF00B1012744E005E040F60110FFF7B9
:1028700089FF0546641C15B9BB488442F5D140F672
:102880000110FFF77FFF00B1012732E006E01FE0F3
:102890002EE01920FFF776FF0546641C15B9B248F3
:1028A0008442F6D11920FFF76DFF00B1012720E027
:1028B00004E01B20FFF766FF0546641C15B9AA4813
:1028C0008442F6D11B20FFF75DFF00B1012710E025
:1028D00004E01D20FFF756FF0546641C15B9A24809
:1028E0008442F6D11D20FFF74DFF00B1012700E023
:1028F00000BF00BF3846F0BD00B59A48006840F000
:102900000100984908600020FFF74BFF9548406898
:1029100020F0030093494860084600689349084046
:102920009049086008464068914908408D494860D0
:102930000846006820F480200860084640688D49F9
:102940000840884948600846006820F0A0500860A8
:102950004FF47F0088600846C06A87490840814973
:10296000C86200BD7F4A02EB9011096800F01F03A6
:1029700001229A4011437B4B03EB90121160704788
:10298000784A02EB9011096800F01F0301229A4077
:102990009143744B03EB901211607047714A02EB44
:1029A0009011096800F01F0301229A4011436D4BFA
:1029B00003EB9012116070476A4A02EB90110968AC
:1029C00000F01F0301229A409143664B03EB9012E3
:1029D00011607047634A02EB9011096800F01F0311
:1029E00001229A4011435F4B03EB90121160704734
:1029F0005C4A02EB9011096800F01F0301229A4023
:102A00009143584B03EB9012116070475548006A90
:102A100040F480305349086270475248006A20F4FD
:102A200080305049086270474E4A516821F00301D6
:102A300041EA00024B4B5A6070474A48406800F038
:102A40000C007047474A516821F0F00141EA00024A
:102A5000444B5A607047434A516821F4E06141EAAF
:102A60000002404B5A6070473E4A516821F4605161
:102A700041EA00023B4B5A6070473A4A516821F0E4
:102A8000706141EA0002374B5A60704702460020ED
:102A9000344B5868394B184042EA01031843314B14
:102AA00058607047014600202E4AD06A20F08040CE
:102AB0000843D0627047024600202A4BD86A304B48
:102AC000184042EA01031843264BD862704701467A
:102AD0000020244AD06A20F0F0000843D0627047FA
:102AE0002049C96A21F470611E4AD1621146C96A3F
:102AF0000143D16270471B49C96A21F47041194AE8
:102B0000D1621146C96A0143D1627047154B5968B9
:102B10001C4B1940134BDA6A22F000520C2833D2B6
:102B2000DFE800F006070809320C320D15161718F9
:102B300000BF00BF00BF41EA803126E000BF20F0A7
:102B400004004FF0805343EA803319431DE000BF77
:102B500000BF00BF20F00C0041EA803142F000527B
:102B600013E0000000100240FFFF0F00FFFFF6FE21
:102B70000C00FFE0FFFF005F0000F89FFFFFC2DFD7
:102B8000F0FFFEFFFF3FFFEF00BF00BFE84B5960C3
:102B9000DA627047E64A516821F4400141EA0002D6
:102BA000E34B5A607047E24A116A21F4407141EAEE
:102BB0000002DF4B1A627047DD4AD16A21F400310E
:102BC00041EA0002DA4BDA627047D94AD16A21F44D
:102BD000802141EA0002D64BDA627047D44AC03203
:102BE000116821F0010141EA0002D14BC3F8C02075
:102BF0007047CF48406A40F08070CD4948627047C6
:102C00000146CB4A02EB9110006801F01F0301223C
:102C10009A40104008B1012070470020FCE7C44AE8
:102C200002EB9011096800F01F0301229A40114342
:102C3000BF4B03EB901211607047BD4A02EB90113D
:102C4000096800F01F0301229A401143B84B03EBBF
:102C5000901211607047B64A02EB9011096800F0BB
:102C60001F0301229A409143B14B03EB9012116074
:102C70007047AF4A116A21F0180141EA0002AC4BDB
:102C80001A627047AA4A02EB9011096800F01F030C
:102C900001229A401143A64B03EB9012116070473A
:102CA000A34A02EB9011096800F01F0301229A4029
:102CB00091439F4B03EB90121160704701461C2912
:102CC0002ED007DC39B310290FD0182926D01A29A5
:102CD00027D124E0B1F5006F12D0B1F5106F1CD0F0
:102CE000A1F54052103AE2B916E0914A1068126814
:102CF00022F480328E4B1A6040F480221A6011E078
:102D00008B4A106A126A22F00102894B1A6240F063
:102D100004021A6206E000BF00BF00BF00BF00BF90
:102D200000E000BF00BF704701461C292ED007DC21
:102D300039B310290FD0182926D01A2927D124E019
:102D4000B1F5006F12D0B1F5106F1CD0A1F5405253
:102D5000103AE2B916E0764A1068126822F480321E
:102D6000734B1A6020F480221A6011E0704A106AD6
:102D7000126A22F001026E4B1A6220F004021A62FB
:102D800006E000BF00BF00BF00BF00BF00E000BF03
:102D900000BF70476648006840F40020644908603E
:102DA00070476348006820F400206149086070475C
:102DB0005F4A116821F0F80100F01F0241EAC202E7
:102DC0005B4B1A60704700F0030059494863704735
:102DD0002DE9F14F8EB000200C9056A090E8004CE9
:102DE000C068CDE905BECDF810A0079052A0D0F87C
:102DF00004A00068CDE9020A0FF23C1ADAE9000AE1
:102E0000CDE9000A4A484068C0F381000D900D9852
:102E100020B1012804D0022856D103E0494A55E0E8
:102E2000484A53E04248406800F48039B9F5803F91
:102E30002FD13F48C06A00F080400B900B9808B932
:102E4000404900E040493A48C06A00F480300A90A6
:102E50000A98B0F5803F12D13548C06AC0F303101C
:102E6000401C08903248C06AC0F30320871C112F11
:102E700000D114270898B1FBF0F000FB07F12C48B3
:102E8000C06A00F00F00401C09900998B1FBF0F1F6
:102E900000E02E4926484068C0F383432448406838
:102EA00000F0005008B143F010030F2B01D29B1C1F
:102EB00000E05B1C01FB03F20F2B04D101EB41008E
:102EC000400000EB510201E01E4A00BF00BF18485D
:102ED0004068C0F3031504A8465D22FA06F41448BE
:102EE0004068C0F3022502A8465D24FA06FC10489B
:102EF0004068C0F3C2251DF8056024FA06F80E9854
:102F000030B1012806D0022806D003280AD106E0F5
:102F10000C9208E00C9406E0CDF830C003E0CDF848
:102F2000308000E000BF00BF0C980FB0BDE8F08F0C
:102F30000010024000000000000000000102030435
:102F40000607080900127A00006CDC0200093D0047
:102F500010B50446F749601A8C426FD019DCF64967
:102F6000A4EB01008C424ED009DCB4F1804F2ED08E
:102F7000F2482044A0B3B0F5806F72D13AE0B0F5CA
:102F8000806F49D0B0F5006F4FD0B0F5406FF4D1ED
:102F90007BE0B0F5983F5BD009DCB0F5806F73D073
:102FA000B0F5883F0AD0B0F58C3F5AD147E0B0F574
:102FB0009A3F57D0B0F59C3F53D15CE040F20B30C4
:102FC000FFF708FD40F20B30FFF712FD79E04FF4F8
:102FD0008060FFF7FFFC4FF48060FFF709FD70E0B1
:102FE000FFE740F20140FFF7F5FC40F20140FFF738
:102FF000FFFC66E040F20240FFF7ECFC40F20240CA
:10300000FFF7F6FC5DE040F20340FFF7E3FC40F21F
:103010000340FFF7EDFC54E040F20440FFF7DAFC18
:1030200040F20440FFF7E4FC4BE040F20540FFF7BC
:10303000D1FC40F20540FFF7DBFC42E02EE040F21D
:103040000D30FFF7C7FC40F20D30FFF7D1FC38E040
:1030500040F21330FFF7BEFC40F21330FFF7C8FC1C
:103060002FE02DE04FF44570FFF7B4FC4FF44570AE
:10307000FFF7BEFC25E040F21530FFF7ABFC40F255
:103080001530FFF7B5FC1CE011E040F20640FFF7F9
:10309000A1FC40F20640FFF7ABFC12E040F2074013
:1030A000FFF798FC40F20740FFF7A2FC09E04FF45D
:1030B0008160FFF78FFC4FF48160FFF799FC00E01F
:1030C00000BF00BF10BD00210180418081804FF60C
:1030D000FF71816000218181817370470A8882625B
:1030E000974A90420FD0B0F1804F0CD0934A524291
:1030F000904208D0934A904205D08F4A904202D025
:10310000914A90420FD1026822F070020260026878
:103110008B7803F060031A43026002680B7903F0B6
:1031200010031A4302608A68C262884A90420CD037
:10313000874A904209D0026822F440720260026815
:103140008B8903F440731A4302607D4A904202D097
:103150007D4A904201D18A7B0263426942F00102BA
:1031600042617047016841F00101016070470168E8
:1031700021F0010101607047016841F080010160A8
:103180007047016821F0800101607047016821F0FB
:10319000020101607047016841F00201016070475F
:1031A000026822F06002026002680A43026070470F
:1031B000016821F0100101607047016841F01001C1
:1031C000016070478162012A03D1436943F0010322
:1031D0004361704701637047C16270474162704745
:1031E00001460020486A7047014600208A6A90B272
:1031F0007047082904D1026842F00802026004E026
:1032000019B9026822F0080202607047042904D14B
:10321000026842F00402026004E019B9026822F078
:10322000040202607047C2680A43C2607047C26805
:103230008A43C2607047082904D1426842F00802FC
:10324000426004E019B9426822F008024260704707
:1032500010B5836C41F61F74A3438364836C41EA09
:1032600002042343836410BD42690A4342617047EC
:103270000021018041808180C18001814181818163
:1032800070470A884B881A438B881A43CB881A43A5
:103290000B891A434B891A438B891A43426470473E
:1032A000416C41F4805141647047416C21F480517C
:1032B00041647047416C41F4804141647047416C06
:1032C00021F4804141647047012904D1426C42F4E9
:1032D0000042426403E0426C22F4004242647047C0
:1032E000012904D1426842F00102426003E04268D1
:1032F00022F001024260704721B9426822F00402C4
:10330000426005E0042903D1426842F004024260B1
:1033100070470021018041808180C180018141810D
:10332000704710B5B1B101294FD002297ED00329D1
:103330007DD1CFE0001C0040000C004000FCFFBF2E
:10334000002C014000080040003401400010004003
:1033500000140040036A23F001030362036A148827
:1033600023430362036A23F002030362036A94881F
:1033700023430362F84B984202D0F84B98421FD186
:10338000036A23F004030362036A5488234303623D
:10339000036A23F008030362036AD48823430362A9
:1033A000436823F480734360436814892343436074
:1033B000436823F4007343604368548923434360A4
:1033C000836923F003038361ABE0036A23F01003F6
:1033D0000362036A148843EA04130362036A23F056
:1033E00020030362036A948843EA04130362DA4BFE
:1033F000984202D0D94B984226D1036A23F0400369
:103400000362036A548843EA04130362036A23F0E5
:1034100080030362036AD48843EA041303624368A7
:1034200023F4806343604368148901E011E077E08E
:1034300043EA84034360436823F4006343604368C2
:10344000548943EA84034360836923F440738361AE
:1034500067E0036A23F480730362036A148843EA13
:1034600004230362036A23F400730362036A9488EB
:1034700043EA04230362B84B984202D0B74B984208
:1034800023D1036A23F480630362036A548843EA06
:1034900004230362036A23F400630362036AD4888B
:1034A00043EA04230362436823F480534360436880
:1034B000148943EA04134360436823F400534360D0
:1034C0004368548943EA04134360C36923F0030348
:1034D000C36126E0036A23F480530362036A1488FD
:1034E00043EA04330362036A23F400530362036A6A
:1034F000948843EA04330362974B984202D0974B77
:10350000984208D1436823F4804343604368148998
:1035100043EA84134360C36923F44073C36100E04A
:1035200000BF00BF10BD31B101290CD0022913D05A
:10353000032922D118E0836923F070038361836932
:10354000134383611AE0836923F4E0438361836951
:1035500043EA0223836111E0C36923F07003C3616E
:10356000C3691343C36109E0C36923F4E043C36142
:10357000C36943EA0223C36100E000BF00BF704794
:1035800031B1012906D0022906D0032908D105E06E
:10359000426306E0826304E0C26302E0026400E08A
:1035A00000BF00BF704731B101290CD0022913D0F0
:1035B000032922D118E0836923F00803836183691A
:1035C000134383611AE0836923F400638361836991
:1035D00043EA0223836111E0C36923F00803C36156
:1035E000C3691343C36109E0C36923F40063C36182
:1035F000C36943EA0223C36100E000BF00BF704714
:1036000031B101290CD0022913D0032922D118E0AD
:10361000836923F0040383618369134383611AE0A0
:10362000836923F480638361836943EA02238361AE
:1036300011E0C36923F00403C361C3691343C36189
:1036400009E0C36923F48063C361C36943EA0223C9
:10365000C36100E000BF00BF704731B101290CD049
:10366000022913D0032922D118E0836923F08003B3
:1036700083618369134383611AE0836923F4004300
:103680008361836943EA0223836111E0C36923F004
:103690008003C361C3691343C36109E0C36923F4B1
:1036A0000043C361C36943EA0223C36100E000BF72
:1036B00000BF704731B101290CD0022913D0032972
:1036C00023D119E0036A23F002030362036A134360
:1036D00003621BE0036A23F020030362036A43EAE8
:1036E0000213036212E0036A23F400730362036AA5
:1036F00043EA0223036209E0036A23F400530362EE
:10370000036A43EA0233036200E000BF00BF704770
:1037100021B101290AD002291AD110E0036A23F04D
:1037200008030362036A1343036212E0036A23F08F
:1037300080030362036A43EA0213036209E0036A37
:1037400023F400630362036A43EA0223036200E096
:1037500000BF00BF70470000002C01400034014052
:1037600031B101290CD0022913D0032923D119E04A
:10377000036A23F001030362036A134303621BE03D
:10378000036A23F010030362036A43EA021303622D
:1037900012E0036A23F480730362036A43EA02239C
:1037A000036209E0036A23F480530362036A43EA75
:1037B0000233036200E000BF00BF704721B101295E
:1037C0000AD002291AD110E0036A23F0040303622D
:1037D000036A1343036212E0036A23F040030362A7
:1037E000036A43EA0213036209E0036A23F4806375
:1037F0000362036A43EA0223036200E000BF00BFE2
:103800007047002101800121418000218180C18019
:10381000704731B101290CD0022913D0032922D1DC
:1038200018E0836923F00C03836183691343836188
:103830001AE0836923F440638361836943EA0223C6
:10384000836111E0C36923F00C03C361C3691343AF
:10385000C36109E0C36923F44063C361C36943EAF8
:103860000223C36100E000BF00BF704770B504468B
:103870000E46154636B1012E26D0022E48D0032E14
:103880007DD168E0206A20F001002062206A20F0EB
:103890000A002062206A298808432062A06920F07B
:1038A0000300A061A06969880843A061A06920F0B5
:1038B000F000A061A069E98840EA0110A061206AD7
:1038C00040F0010020626DE0206A20F010002062CC
:1038D000206A20F0A0002062206A298840EA0110B6
:1038E0002062A06920F44070A061A069698840EA64
:1038F0000120A061A06920F47040A061A069E9885E
:1039000040EA0130A061206A40F01000206249E0E6
:10391000206A20F480702062206A20F420602062F7
:10392000206A298840EA01202062E06920F0030033
:10393000E061E06969880843E061E06920F0F00037
:10394000E061E069E98840EA0110E061206A40F442
:103950008070206226E0206A20F480502062206A75
:1039600020F400502062206A298840EA0130206259
:10397000E06920F44070E061E069698800E010E0EF
:1039800040EA0120E061E06920F47040E061E06914
:10399000E98840EA0130E061206A40F4805020620A
:1039A00000E000BF00BFAA8831462046FFF731FF84
:1039B00070BD0246002031B1012906D0022906D08F
:1039C000032908D105E0506B06E0906B04E0D06B52
:1039D00002E0106C00E000BF00BF70472DE9F0412D
:1039E00004460E4615460027B846288808B902271F
:1039F00000E000276888012802D14FF0020801E0AA
:103A00004FF00108002E4CD1206A20F00100206206
:103A1000206A20F00A002062206A29880843206278
:103A2000A06920F00300A061A06969880843A06133
:103A3000A06920F0F000A061A069E98840EA0110C7
:103A4000A061206A40F001002062AA88002120467F
:103A5000FFF7DFFE206A20F010002062206A20F0CD
:103A6000A0002062206A40EA07102062A06920F4CA
:103A70004070A061A06940EA0820A061A06920F41C
:103A80007040A061A069E98840EA0130A061206A25
:103A900040F010002062AA8801212046FFF7B9FEFD
:103AA0004CE0206A20F010002062206A20F0A00084
:103AB0002062206A298840EA01102062A06920F46F
:103AC0004070A061A069698840EA0120A061A069F6
:103AD00020F47040A061A069E98840EA0130A0614B
:103AE000206A40F010002062AA8801212046FFF7DA
:103AF00090FE206A20F001002062206A20F00A0077
:103B00002062206A38432062A06920F00300A0618F
:103B1000A06940EA0800A061A06920F0F000A0615F
:103B2000A069E98840EA0110A061206A40F0010024
:103B30002062AA8800212046FFF76BFEBDE8F081D5
:103B4000802904D1426842F08002426004E019B941
:103B5000426822F0800242607047826822F0700260
:103B6000826082680A4382607047426822F0700275
:103B7000426042680A4342607047826822F007024E
:103B8000826082680A4382607047802904D182681B
:103B900042F08002826004E019B9826822F080025B
:103BA0008260704730B5846824F43F448460846840
:103BB00041EA02052C438460846844EA032484605B
:103BC00030BD30B5846824F00704846084680C43F9
:103BD0008460846940F20335AC438461846940F2B7
:103BE00001152C438461046A24F00A040462046A07
:103BF00024F0A0040462046A42EA03152C43046220
:103C000030BD816821F007018160704710B503461F
:103C10000C4621461846FFF7A0FF986820F00700E1
:103C20009860986840F00700986010BD70B5044631
:103C30000E461546602E20D1206A20F0100020622A
:103C4000206A20F0A0002062206A40EA051020626D
:103C5000A06920F44070A061A06940F48070A06168
:103C6000A06920F47040A061A06940EA0330A0611F
:103C7000206A40F0100020621EE0206A20F001005F
:103C80002062206A20F00A002062206A2843206215
:103C9000A06920F00300A061A06940F00100A061CC
:103CA000A06920F0F000A061A06940EA0310A061C3
:103CB000206A40F00100206231462046FFF74DFFA8
:103CC000A06820F00700A060A06840F00700A06096
:103CD00070BDF0B504460D4616461F463B463246BB
:103CE00029462046FFF75EFFA06820F07700A0601D
:103CF000A06840F07700A060F0BDF0B504460D4626
:103D000016461F463B46324629462046FFF74AFFE5
:103D1000A06840F48040A060F0BD816821F480413B
:103D200081607047012906D1D0F8FC2042F00202E0
:103D3000C0F8FC2006E029B9D0F8FC2022F00202ED
:103D4000C0F8FC207047012906D1D0F8FC2042F0D1
:103D50000102C0F8FC2006E029B9D0F8FC2022F0CE
:103D60000102C0F8FC207047C2680A43C260704775
:103D7000C2688A43C26070470246D06800EA010305
:103D80001069084010B10BB1012070470020FCE71A
:103D9000CA430261704702461069084008B1012019
:103DA00070470020FCE7CA430261704710B5044623
:103DB000F949601A8C4228D006DCF848204490B1BA
:103DC000B0F5806F33D117E0B0F5806F26D0B0F535
:103DD0006C4F2CD140F20E30FEF7FCFD40F20E305D
:103DE000FEF706FE24E040F21140FEF7F3FD40F23C
:103DF0001140FEF7FDFD1BE040F21240FEF7EAFD28
:103E000040F21240FEF7F4FD12E040F21340FEF7DC
:103E1000E1FD40F21340FEF7EBFD09E040F21440F3
:103E2000FEF7D8FD40F21440FEF7E2FD00E000BFCF
:103E300000BF10BD2DE9F04704460D460027B846E7
:103E4000B9460026D449601A8C421CD006DCD348FF
:103E5000204470B1B0F5806F1FD10FE0B0F5806FD6
:103E600016D0B0F56C4F18D10320FEF7B1FF07460E
:103E700014E00220FEF7ACFF07460FE00220FEF739
:103E8000A7FF07460AE00220FEF7A2FF074605E06B
:103E90000220FEF79DFF074600E000BF00BF07EBD2
:103EA0005500B0FBF5F64FF6F07006EA000806F094
:103EB0000F0948EA0900A060BDE8F087C26822F453
:103EC000C062C260C2680A43C2607047C26822F41E
:103ED0008052C260C2680A43C2607047026922F41D
:103EE0004052026102690A4302617047C16841F4AD
:103EF0000051C1607047C16821F40051C160704732
:103F00000A460021C16821F008011143C1607047D1
:103F10000A460021C16821F004011143C1607047C5
:103F20000A460021D0F8801021F400611143C0F846
:103F30008010704706292ED2DFE801F003180A1F0F
:103F40001126D0F8802042F48062C0F8802023E05F
:103F5000D0F8802042F40072C0F880201CE0D0F835
:103F6000802042F48072C0F8802015E0D0F88020D4
:103F700022F48062C0F880200EE0D0F8802022F485
:103F80000072C0F8802007E0D0F8802022F4807210
:103F9000C0F8802000E000BF00BF7047D0F880105C
:103FA00041F00101C0F880107047D0F8801021F076
:103FB0000101C0F88010704750F8842F02F07F4252
:103FC000026002680A4340F884297047C1F308027E
:103FD0004260704701464868C0F3080070470269B4
:103FE00022F00F020261026901F00F031A4302611D
:103FF0007047C16841F00201C1607047C16821F09B
:104000000201C1607047C26822F40062C260C268E7
:104010000A43C2607047016941F480410161704701
:10402000016921F4804101617047026922F0200298
:104030000261026901F020031A4302617047C168FE
:1040400041F00101C1607047416941F008014161DF
:104050007047416921F0080141617047016941F4ED
:10406000006101617047016921F4006101617047DD
:1040700070B50C460021016921F4E06104F48075FB
:1040800002F40076354303F4806635432943016129
:1040900070BD826922F47F42826182694FF47F435E
:1040A00003EA01231A4382617047416941F020010C
:1040B00041617047416921F02001416170474169C8
:1040C00041F0100141617047416921F010014161E7
:1040D000704750F8802F22F00E02026002680E2313
:1040E00003EA41031A4340F88029704750F8842FAF
:1040F00022F07F42026002684FF07F4303EA0163CF
:104100001A4340F884297047416941F00201416136
:104110007047416921F0020141617047826922F0D4
:10412000FF02826182690A4382617047426922F01C
:1041300004024261426901F004031A43426170477C
:104140000A460021416921F48071114341617047A1
:104150000A460021416921F4007111434161704711
:104160000A460021416921F0400111434161704735
:104170000A460021416921F08001114341617047E5
:1041800050F8C02F22F001020260026801F0010322
:104190001A4340F8C0297047004C004000BCFFBFE4
:1041A00010B5024602EB9110006801F01F040123D4
:1041B000A340184008B1012010BD0020FCE710B555
:1041C00000EB9112126801F01F040123A3409A43EF
:1041D00000EB91131A6010BD10B500EB911212683C
:1041E00001F01F040123A3401A4300EB91131A604E
:1041F00010BD10B500EB9112126801F01F040123ED
:10420000A3409A4300EB91131A6010BD70B50246AB
:1042100000230024C1F38910105801F01F06012566
:10422000B54000EA050302EB91500068C1F3044673
:104230000125B54000EA050414B10BB1012070BDA1
:104240000020FCE710B500EB91521268C1F3044462
:104250000123A3409A4300EB91531A6010BD000064
:1042600010B5044640F21170FEF77CFB5E48FFF784
:104270009DFD21465C48FFF7DDFD04215A48FFF70C
:1042800047FE08215848FFF73BFE4FF4417156485E
:10429000FFF7A2FF5448FFF729FE80215248FFF79D
:1042A00067FF40215048FFF75BFF10BD70B5044623
:1042B0000D4629462046FFF789FE00BF062120460D
:1042C000FFF76EFF0028F9D070BD70B504460D46AB
:1042D000E1B24648FFF7EAFF204670BD2DE9F04104
:1042E00007460D461646002405E0295D3846FFF7CF
:1042F000DDFF601C84B2B442F7DB00BF0621384604
:10430000FFF74EFF0028F9D0BDE8F08170B50646F2
:104310000C46002500BF615D3046FFF7C7FF6D1CEE
:10432000605D0028F7D100BF06213046FFF738FF57
:104330000028F9D070BD2DE9F04105460C46260A4B
:10434000E7B231462846FFF741FE00BF0621274865
:10435000FFF726FF0028F9D039462846FFF736FE3A
:1043600000BF06212148FFF71BFF0028F9D0BDE858
:10437000F08170B504460D46164624B1012C11D0CB
:10438000022C2DD11DE02A4603211948FDF720FEFD
:10439000324603211648FDF72DFE03211448FDF790
:1043A000D3FD1EE02A4606211148FDF711FE3246D4
:1043B00006210F48FDF71EFE06210D48FDF7C4FD3E
:1043C0000FE02A4601210A48FDF702FE324601218C
:1043D0000748FDF70FFE01210548FDF7B5FD00E098
:1043E00000BF00BF70BD0000004400400038014025
:1043F0000000024010B50420FEF7A6F91F4800682F
:104400001F49B0FBF1F01F49087040F6FF704FF0F4
:10441000E02148610846006940F00100086110BDD4
:1044200070B5034600224FF0E0267469154E3678C9
:1044300003FB06F54FF0E026B16910E04FF0E026EF
:10444000B06981420BD0884202D20E1A324402E097
:104450006618361A32440146AA4200D300E0EDE75E
:1044600000BF70BD30B50446002504E04FF47A70FB
:10447000FFF7D6FF6D1CA542F8D330BD0000002029
:1044800040420F003F00002070B504460D4629460B
:104490002046FEF70DF8012804D129462046FDF7F5
:1044A000F2FF03E029462046FDF7EBFF70BD10B593
:1044B00040F20260FEF756FA40F20360FEF752FA4D
:1044C0004FF4C060FEF74EFA01213048FDF7FCFFC3
:1044D00001210420FDF7F8FF04231A4618212C4877
:1044E000FDF771FF0823042211462948FDF76BFFF1
:1044F0000223042200212748FDF765FF012304223F
:1045000000212448FDF75FFF80230422002120487A
:10451000FDF759FF4023042200211D48FDF753FFFA
:104520000123042200211A48FDF74DFF0223042233
:1045300000211748FDF747FF1023042200211448EB
:10454000FDF741FF2023042200211148FDF73BFF26
:104550004FF48073042211460D48FDF734FF4FF4E9
:104560000063042211460A48FDF72DFF4FF48053E3
:10457000042211460648FDF726FF4FF400430422AB
:1045800010210348FDF71FFF10BD0000000230009E
:1045900000080140000C01401FB54FF4C060FEF759
:1045A000E1F94FF4E060FEF7DDF94FF08040FEF7EF
:1045B000CFFC6846FEF787FD42F6DF60ADF80000ED
:1045C0000020ADF80200ADF8040040F2E7300290A0
:1045D0000020ADF80C008DF80E0069464FF08040C9
:1045E000FEF77CFD01218807FFF7D2FB0121880738
:1045F000FFF7BAFB4FF08040FEF7B4FD1FBD1FB5BB
:104600004FF4C060FEF7AEF940F20170FEF7AAF970
:104610003A48FEF79DFC6846FEF755FD42F6DF601E
:10462000ADF800000020ADF80200ADF80400312024
:1046300002900020ADF80C008DF80E0069462F485E
:10464000FEF74CFD01212D48FFF7A2FB01212B486D
:10465000FFF78AFB2948FEF785FD1FBD1FB54FF404
:10466000C060FEF77FF940F20170FEF77BF9234846
:10467000FEF76EFC6846FEF726FD7720ADF80000D9
:104680000020ADF80200ADF8040063200290002085
:10469000ADF80C008DF80E0069461848FEF71EFDB7
:1046A00001211648FFF774FB01211448FFF75CFB5A
:1046B0001248FEF757FD1FBD10B501218807FFF70F
:1046C0005BFB012803D101218007FFF761FB10BDCF
:1046D00010B501210948FFF74FFB01280CD101213A
:1046E0000648FFF755FB064802684068521C40F137
:1046F000000003490A60486010BD0000000400404B
:104700004000002000B587B04FF4A060FEF72AF902
:1047100006212F48FDF7D7FA6846FDF70CFB01206C
:104720008DF81A002B48029001208DF81900002006
:104730000390192004902848009000208DF818005C
:1047400001904FF4405005906A4606212048FDF73D
:1047500000FB06211E48FDF7ACFB022206211C4887
:10476000FDF7B0FD80211C48001FFFF701FD40212F
:104770001948001FFFF7F4FC05211548FDF7A3FABF
:104780006846FDF7D8FA00208DF81A001348029009
:1047900001208DF8190000200390642004900E4839
:1047A000009000208DF8180001904FF440500590C3
:1047B0006A4605210648FDF7CCFA05210448FDF7B5
:1047C00078FB05210248FDF7BFFB07B000BD0000E4
:1047D00000000240E1010020044400407D0100206F
:1047E00010B54FF44070FDF737FF0022062112206C
:1047F000FDF737FF002209210E20FDF732FF0022CE
:104800000A211120FDF72DFF002208212520FDF7A8
:1048100028FF002201211D20FDF723FF0122062190
:104820000B20FDF71EFF00220B211C20FDF719FFB6
:1048300010BD10B5022200217848FDF7E6FC38B122
:10484000022200217548FDF7ECFC7548FCF7C0FF1B
:1048500010BD10B5022201217048FDF7D6FC40B111
:10486000022201216D48FDF7DCFC01216B48FDF7B8
:1048700084FB10BD10B5022206216848FDF7C5FC77
:1048800040B1022206216548FDF7CBFC06216348B2
:10489000FDF773FB10BD10B5022203215F48FDF741
:1048A000B4FC58B1022203215C48FDF7BAFC032195
:1048B0005A48FDF762FB00205A49087010BD1CB52C
:1048C0000020009004215848FFF76AFC002843D0DC
:1048D0005548006880B201905348001D006880B2BE
:1048E000019004214D48FDF798FBC0F1640084B2AB
:1048F00004214A48FDF741FB642204214748FDF7A3
:1049000079FB04214548FDF71FFB48480078F12852
:104910000BD146484078012807D12146434800F092
:104920009DFBC8B100F044FB16E0414841490860D6
:104930000846848002236A463F48006801F0DFF998
:1049400000BF009838B14FF080503C490860BFF379
:104950004F8FBFF36F8F00BF1CBD38B500250421FA
:104960003748FFF71DFCE0B13548006880B2009081
:104970003348001D006880B2009005212748FDF7EC
:104980004CFBC0F1640084B205212448FDF7F5FA20
:10499000642205212148FDF72DFB05211F48FDF765
:1049A000D3FA38BD08B504212648FFF7F9FBA8B1B2
:1049B0002448006880B200902248001D006880B240
:1049C000009002211548FDF7D8FA6422022113480D
:1049D000FDF710FB02211148FDF7B6FA08BD08B536
:1049E0000020009001210E48FDF702F9012814D1A2
:1049F00001210B48FDF728F969461348006801F0CA
:104A000012FA00BF009838B14FF080500B4908608F
:104A1000BFF34F8FBFF36F8F00BF08BD0000024090
:104A2000002401404E00002000380140EC0000202E
:104A30007D010020280000202000002004ED00E07F
:104A40000044004000480040180000202DE9F043D9
:104A500004460D4600220023002084E000220023AB
:104A600034F810C000EB800707EBC007DFF8C08404
:104A700008EB071700EB800808EBC008DFF8B094DC
:104A800009EB081898F8688027F818C0002136E06C
:104A900000EB800707EBC007DFF894C40CEB0717A7
:104AA00097F868700F447F1C4FF0320C97FBFCF8AE
:104AB0000CFB1877BEB200EB800707EBC007DFF8EE
:104AC00070C40CEB071737F816C000EB800707EB34
:104AD000C007DFF85C8408EB07176A3737F81170F6
:104AE0000CFB072200EB800707EBC007C4460CEB6A
:104AF00007176A3737F811703B444F1CF9B2322957
:104B0000C6DBB2FBF3F700EB800C0CEBC00CDFF85C
:104B1000208408EB0C1CCCF8647000EB800707EBDA
:104B2000C007C4460CEB0717B7F8647025F810707F
:104B300000EB800707EBC0070CEB071797F86870CE
:104B40007F1C4FF0320C97FBFCF80CFB187700EB46
:104B5000800C0CEBC00CDFF8D88308EB0C1C8CF835
:104B60006870471CF8B20828FFF678AFBDE8F083FC
:104B700010B500240020EF490880EF490880088024
:104B800025E000240020EB4908800EE0EB48E949CD
:104B9000098800EB0110E849098830F81100044445
:104BA000E4480088401CE3490880E2480088322835
:104BB000ECDB3220B4FBF0F0E149DF4A128821F847
:104BC00012000024DC480088401CDB490880DA48D9
:104BD00000880828D5DBDB49D948FFF737FF10BD2F
:104BE00010B5002031E0002200EB800303EBC0038E
:104BF000CF4C04EB03135A6600EB800303EBC003B6
:104C000004EB031383F8682000211AE0002200EB74
:104C1000800303EBC003C64C04EB031323F81120FD
:104C20004A1CD201322392FBF3F293B200EB8002D2
:104C300002EBC00204EB02126A3222F811304A1C65
:104C4000D1B23229E2DB421CD0B20828CBDB10BD46
:104C500010B52DED0E8B00240221BB48FCF74AFF56
:104C6000B9493C31086804F03DFE41EC1E0B9FED54
:104C7000B70B53EC102B04F054FD41EC1D0B9FEDD2
:104C8000B50B53EC102B04F0BEFD41EC1C0B9FED5B
:104C9000B30B53EC102B04F041FD41EC1B0B9FEDCB
:104CA000B10B53EC102B04F03CFD41EC1A0B9FEDC3
:104CB000AF0B53EC102B04F0A6FD41EC190B9FED4C
:104CC000AD0B53EC102B04F085FC41EC180B04F0F9
:104CD00035FEC4B22046BDEC0E8B10BD00B587B0CA
:104CE0000021A648FCF7EFFF97484C3000900020C9
:104CF0008DF818009148029001208DF819000002EB
:104D000001908000039000208DF81A004FF4C870C5
:104D100004904FF4005005906A4600219748FDF733
:104D200018F800219548FDF7ABF800219348FDF7EE
:104D30000BF907B000BD10B540F20960FDF712FE97
:104D40000120FDF7E3FE10BD10B5FFF7F4FFFFF7FC
:104D500047FFFFF7C3FF7C48FCF7D0FC0020FCF7BF
:104D6000EBFC012202217848FCF7F1FC0122110240
:104D70007548FCF7ECFC00217348FCF715FD082290
:104D800001217148FCF7B5FD0523072200216E487B
:104D9000FCF7D2FD0523082201216B48FCF7CCFD6E
:104DA0000523002202216848FCF7C6FD05230622E0
:104DB00003216548FCF7C0FD052301220421624858
:104DC000FCF7BAFD0523092219465F48FCF7B4FD3C
:104DD0000523042206215C48FCF7AEFD05231A4694
:104DE00007215948FCF7A8FD4FF4602201215648DD
:104DF000FCF744FE012211465348FCF757FE524887
:104E0000FCF7DDFC0120FFF72DFB4F48FCF7E5FC2C
:104E10004D48FCF73EFD01214B48FCF76BFE10BDF1
:104E200070B52DED108B044600259FED550AF0EE70
:104E3000408A204604F056FD41EC1B0B9FED430BCE
:104E400053EC102B04F06DFC41EC1A0B9FED410B61
:104E500053EC102B04F0D7FC41EC190B04F09AFD35
:104E600008EE100A18EE100A04F081FD41EC1C0B4C
:104E70009FED360B53EC102B04F050FC41EC1A0B59
:104E80009FED400A28EE000A10EE101A084604F0C2
:104E90006EFD41EC1B0B53EC1A2B04F0B4FC41ECFF
:104EA000190B04F077FD08EE900A9FED360AC8EE64
:104EB000800AB0EE60FAB0EE4F0A04F0F9FE10EE90
:104EC000106A304604F053FD41EC1E0B9FED2E0B93
:104ED00053EC102B04F097FC41EC1D0B9FED2C0BB9
:104EE00053EC102B04F076FB41EC1C0B53EC1C2B09
:104EF0009FED290B51EC100B04F085FC41EC1B0BD2
:104F00009FED270B53EC102B04F005FC41EC1A0B22
:104F10009FED250B53EC102B04F05CFB41EC190BBF
:104F200004F0EDFC05B22846BDEC108B70BD00000E
:104F30003C0500204A0000204C000020FC0100201D
:104F40001C0500202C0500200024014066666666D2
:104F500066660A40000000000000B040E17A14AE2E
:104F600047E1F63F0000000000408F403333333309
:104F700033331140000000000000394000000240BF
:104F80000000000000401C460000000000D6AA40BF
:104F900083DBB5DCE1796B3F000000000000F03FEF
:104FA0006666666666127140000000000000E03F21
:104FB0004FF6FF7100E000BF081EA1F10101FAD118
:104FC000012080F3138800BF00BFBFF34F8F094853
:104FD000006800F4E060084A1043001D054A1060B4
:104FE000BFF34F8F00BF00BFFEE704480149091F10
:104FF000086070470CED00E00000FA05003C000876
:10500000002111E00846002208E000F001031BB176
:10501000334B83EA500000E04008521C082AF4D3C6
:10502000304B43F82100491CFF29EBD9704730B5BC
:1050300002460C464FF0FF31134608E013F8010B0F
:105040004840C0B2274D55F8200080EA1121201EAB
:10505000A4F10105ACB2F1D1C84330BD2DE9F04156
:1050600006460D460027B846052D02DA0020BDE8A9
:10507000F0817019041F20780006617840EA014031
:10508000A17840EA0120E17840EA0108281F81B2B6
:105090003046FFF7CCFF0746474501D10120E6E740
:1050A0000020E4E730B502460B464FF6FF700021C2
:1050B00012E0555C684000240AE000F0010525B1CB
:1050C00040104AF20105684000E04010651CACB297
:1050D000082CF2DB4D1CA9B29942EADB30BD00007E
:1050E0002083B8EDBC0B002010B51C2004F00BF998
:1050F000044624B100202060201D00F03BFA204629
:1051000010BD2DE9FE4F07468846002001903C4621
:10511000009057B900BF502080F31188BFF34F8F24
:10512000BFF36F8F00BF00BFFEE708F07F4008B9F4
:10513000012000E0002050B900BF502080F311880A
:10514000BFF34F8FBFF36F8F00BF00BFFEE704F1C7
:10515000040909F10800029001F0F7FDD9F80C608C
:10516000206840EA0800206026E0D6F804B03568E0
:105170000020009005F07F4A25F07F450AF080600E
:1051800028B92068284040B10120009005E020683F
:105190002840A84201D101200090009858B10AF09F
:1051A000807010B1019828430190206840F0007190
:1051B000304602F02BFC5E4602988642D5D120682C
:1051C00001998843206001F0C5FC2068BDE8FE8F8E
:1051D0002DE9F84F8346884614461F465D46002059
:1051E000009004F07F4008B9012000E0002050B991
:1051F00000BF502080F31188BFF34F8FBFF36F8F34
:1052000000BF00BFFEE70CB1012000E0002050B954
:1052100000BF502080F31188BFF34F8FBFF36F8F13
:1052200000BF00BFFEE702F0FFFC00B90FB901208C
:1052300000E0002050B900BF502080F31188BFF378
:105240004F8FBFF36F8F00BF00BFFEE701F07DFD02
:10525000D5F8009041465846FFF753FF49EA080049
:105260002040A04206D149EA08062868A0432860E9
:1052700000270BE03FB144F0A0613A46281D02F040
:10528000CFFA002602E02E680120009001F062FCB7
:10529000824607B3BAF1000F07D14FF08050B449EE
:1052A0000860BFF34F8FBFF36F8F02F00FFF06460A
:1052B00006F0007068B903F025FF2E6806EA0400C6
:1052C000A04202D12868A043286003F042FF0120D9
:1052D000009026F07F463046BDE8F88F10B50346B3
:1052E000002022B903EA010434B1012004E003EAFA
:1052F00001048C4200D1012010BD2DE9FF4F83B085
:1053000081460D461746DDF840804C464FF0000AB6
:1053100000200190B9F1000F0AD100BF502080F3A6
:105320001188BFF34F8FBFF36F8F00BF00BFFEE741
:1053300005F07F4008B9012000E0002050B900BF0F
:10534000502080F31188BFF34F8FBFF36F8F00BFE2
:1053500000BFFEE70DB1012000E0002050B900BF02
:10536000502080F31188BFF34F8FBFF36F8F00BFC2
:1053700000BFFEE702F058FC10B9B8F1000F01D1F0
:10538000012000E0002050B900BF502080F31188B8
:10539000BFF34F8FBFF36F8F00BF00BFFEE701F079
:1053A000D4FC206800902946069A0098FFF796FFE3
:1053B0000290029838B1009E4FF00008C7B12068F3
:1053C000A843206014E0B8F1000F03D1009E012033
:1053D00001900DE00FB14AF0807A069808B14AF0CA
:1053E000806A45EA0A014246201D02F019FA0026A9
:1053F00001F0B0FB8346B8F1000F23D0BBF1000FE2
:1054000007D14FF080505A490860BFF34F8FBFF368
:105410006F8F02F05BFE064606F0007080B903F065
:1054200071FE266829463046069AFFF757FF18B1E5
:1054300017B12068A84320600120019003F089FE85
:1054400026F07F46304607B0BDE8F08F2DE9F041E9
:1054500005460E462C4655B900BF502080F31188F2
:10546000BFF34F8FBFF36F8F00BF00BFFEE706F0A3
:105470007F4008B9012000E0002050B900BF502053
:1054800080F31188BFF34F8FBFF36F8F00BF00BF52
:10549000FEE703F037FE27682068B043206003F082
:1054A00058FE3846BDE8F08170B501460B4600BF96
:1054B0005025EFF3118085F31188BFF34F8FBFF3B1
:1054C0006F8F00BF02461C68104680F3118800BF32
:1054D000204670BD70B505462E4656B900BF502017
:1054E00080F31188BFF34F8FBFF36F8F00BF00BFF2
:1054F000FEE7341D01F029FC18E004F10800E16822
:10550000814201D0012000E0002050B900BF5020AE
:1055100080F31188BFF34F8FBFF36F8F00BF00BFC1
:10552000FEE74FF00071E06802F070FA2068002892
:10553000E3D101F00FFB304603F071FF70BD70B591
:1055400004460D4629462046FFF7DBFD70BD70B5C9
:1055500004460D4629462046FFF778FF70BD0146F8
:105560000A4609B9002000E09069704781617047E0
:1055700004ED00E000F1080141604FF0FF3181606F
:1055800000F10801C1600161002101607047002144
:105590000161704742684A6093688B609368596004
:1055A0009160086103685B1C0360704710B5024698
:1055B0000B685C1C0CB9106907E002F1080000E000
:1055C0004068446824689C42FAD944684C604C683E
:1055D000A160886041600A611468641C146010BD99
:1055E00001460A69D1E901309860D1E901035860A8
:1055F0005068884201D188685060002008611068B6
:10560000401E1060106870472DE9F04105460E46B7
:1056100001272C4654B900BF502080F31188BFF3F6
:105620004F8FBFF36F8F00BF00BFFEE7002C42D04B
:10563000E06B00283FD04FF0FF31E06BB1FBF0F0A2
:10564000216C884237D303F05DFDD4E90F12206846
:1056500001FB0200A0600020A06320686060E06B96
:10566000401E226C216800FB0211E160FF2084F8DB
:10567000440084F845009EB9206908B9012000E083
:105680000020A8B904F1100002F03CF980B14FF0FD
:105690008050F6490860BFF34F8FBFF36F8F07E06C
:1056A00004F11000FFF766FF04F12400FFF762FF2A
:1056B00003F04FFD00E000270FB1012000E00020C3
:1056C00050B900BF502080F31188BFF34F8FBFF354
:1056D0006F8F00BF00BFFEE73846BDE8F0812DE9BF
:1056E000F04106460D4617469846069C0DB92460C3
:1056F00000E02760E663256401212046FFF784FF70
:1057000084F84C80BDE8F0812DE9F84305460E464B
:1057100017460024E5B1601EB0FBF5F0B04217D388
:1057200005FB06F010F1510F12D805FB06F808F141
:10573000500003F0E8FD0446B4B1A14609F1500958
:105740003B464A46314628460094FFF7C8FF0BE027
:1057500054B900BF502080F31188BFF34F8FBFF3BF
:105760006F8F00BF00BFFEE72046BDE8F88370B52D
:10577000044603F0C7FC94F9455010E0606A08B98C
:10578000012000E0002038B904F1240002F0BAF84A
:1057900018B102F037FA00E003E0681E45B2002DB0
:1057A000ECDC00BFFF2084F8450003F0D2FC03F0DE
:1057B000A9FC94F9445010E0206908B9012000E0E8
:1057C000002048B904F1100002F09CF808B102F082
:1057D00019FA681E45B200E001E0002DECDC00BFC4
:1057E000FF2084F8440003F0B4FC70BD70B505469A
:1057F00003F088FCA86BE96B884201D1012400E02A
:10580000002403F0A6FC204670BD2DE9F0410446BB
:105810000F4615464FF00008A66B206C48B920686B
:1058200000282CD1A06802F07BFA80460020A060FE
:1058300025E07DB93946226C606803F097FE216C43
:10584000606808446060D4E90101884217D3206889
:10585000606014E03946226CE06803F087FE216C3A
:10586000E068411AE1602168E068884203D2216C57
:10587000A068411AE160022D01D106B1761E701CAC
:10588000A0634046BDE8F0812DE9FF4383B00646A2
:1058900088461D464FF00009344654B900BF5020D9
:1058A00080F31188BFF34F8FBFF36F8F00BF00BF2E
:1058B000FEE7B8F1000F01D1206C08B9012000E02B
:1058C000002050B900BF502080F31188BFF34F8FE4
:1058D000BFF36F8F00BF00BFFEE7022D02D1E06B68
:1058E000012801D1012000E0002050B900BF502064
:1058F00080F31188BFF34F8FBFF36F8F00BF00BFDE
:10590000FEE702F091F908B9059808B9012000E016
:10591000002050B900BF502080F31188BFF34F8F93
:10592000BFF36F8F00BF00BFFEE700BF03F0EAFBCD
:10593000A06BE16B884201D3022D28D12A46414653
:105940002046FFF762FF0746606A08B9012000E0C1
:10595000002068B904F1240001F0D4FF88B14FF0B1
:10596000805042490860BFF34F8FBFF36F8F08E04C
:105970003FB14FF080503D490860BFF34F8FBFF3F8
:105980006F8F03F0E6FB012007B0BDE8F0830598B8
:1059900018B903F0DEFB0020F6E7B9F1000F04D1DF
:1059A00001A802F0C9F84FF0010903F0D2FB01F0A1
:1059B000CCF903F0A7FB94F94400401C10B9002077
:1059C00084F8440094F94500401C10B9002084F884
:1059D000450003F0BEFB05A901A802F0CFF8F0B91D
:1059E0002046FFF703FFA0B104F11000059901F074
:1059F000FDFE2046FFF7BBFE01F0ACF8002895D174
:105A00004FF0805019490860BFF34F8FBFF36F8F7D
:105A10008CE72046FFF7ABFE01F09CF886E72046B6
:105A2000FFF7A5FE01F096F80020ADE710B504469B
:105A300054B10020A06020600021E16000231A46DC
:105A400019462046FFF720FF10BD2DE9F04104461E
:105A500001260027224600210120FFF755FE0546BA
:105A60002846FFF7E3FF2846BDE8F08104ED00E09B
:105A700070B505462C4654B900BF502080F31188FC
:105A8000BFF34F8FBFF36F8F00BF00BFFEE702F081
:105A9000C8F8A16888420CD1E068401EE060E06868
:105AA00028B900231A4619462046FFF7EDFE0126C5
:105AB00000E00026304670BD01464A6A22B10A6BFA
:105AC0001268C2F11F0000E00020704770B5054663
:105AD00003F018FBA86B08B9012400E0002403F0D0
