:020000040800F2
:10000000207F002035050008590500085B05000821
:10001000410500085F0500086305000800000000B6
:10002000000000000000000000000000690100085E
:100030006705000800000000C50100080B980008D3
:100040004F0500084F0500084F0500084F05000840
:100050004F0500084F0500084F0500084F05000830
:100060004F0500084F0500084F050008F557000828
:100070000F5800084F0500084F0500084F050008FD
:100080004F050008315800084F0500084F050008CB
:100090004F0500084F0500084F0500084F050008F0
:1000A0004F0500084F0500084F0500084F050008E0
:1000B0004F0500084F050008CD5700084F05000800
:1000C0004F0500084F0500084F0500084F050008C0
:1000D0004F0500084F050008535800086F580008E6
:1000E0004F0500084F0500084F0500084F050008A0
:1000F0004F0500084F0500084F05000800000000EC
:100100004F050008000000004F0500084F050008DB
:100110004F0500084F0500084F0500084F0500086F
:100120004F0500084F0500084F0500084F0500085F
:100130004F05000800000000000000004F05000807
:100140004F0500084F0500084F0500084F0500083F
:10015000DFF810D009F0E8FF00480047F10B000875
:10016000AFF30080207F00202C4B19680868B0E8AE
:10017000F04F80F30988BFF36F8F4FF0000080F3DA
:10018000118870470000000008480068006880F38C
:1001900008884FF0000080F3148862B661B6BFF3A0
:1001A0004F8FBFF36F8F00DF00BF00BF08ED00E08F
:1001B000DFF80C00016841F470010160704700BF76
:1001C00088ED00E0EFF30980BFF36F8F134B1A68DF
:1001D0001EF0100F08BF20ED108A20E9F04F1060CC
:1001E00009B44FF0500080F31188BFF34F8FBFF375
:1001F0006F8F07F0ACFA4FF0000080F3118809BC54
:1002000019680868B0E8F04F1EF0100F08BFB0EC96
:10021000108A80F30988BFF36F8F7047A400002015
:10022000EFF305807047000000200021B34A1268F8
:1002300042F00102B14B1A6000BF401CAF4A126885
:1002400002F0020111B9B0F5A06FF6D1AB4A126805
:1002500002F002020AB900BFFEE7A94A126822F0C2
:100260000702D21CA64B1A60A44A5268A34B5A60DC
:100270001A4652685A601A46526842F480625A60BE
:100280001A4652689F4B1A409C4B5A601A46526855
:100290009D4B1A43994B5A601A46126842F080727D
:1002A0001A6000BF954A126802F00072002AF9D065
:1002B000924A526822F00302904B5A601A465268E2
:1002C00042F002025A6000BF8C4A526802F00802F3
:1002D000002AF9D0704710B5FFF7A6FF10BD08B58A
:1002E0008A48006840F470008849086083480068C4
:1002F00040F001008149086000BF8048006800F0BC
:1003000002000028F9D000BF7C48406840F080001F
:100310007A4948600020009002E00098401C00905C
:1003200000985028F9D37548406840F09000734910
:1003300048600020009002E00098401C0090009867
:100340005028F9D300BF6D48406820F003006B4986
:100350004860084600686E490840684908604FF4E4
:100360007F00886000204860C8620846006820F46A
:1003700080200860FFF7AFFF00214FF0006002F01F
:10038000CAFB08BD2DE9F04F85B0002300240025ED
:100390000026002100278C46002288468946CDF899
:1003A00010900FF2701999E8004CD9F80C908DE874
:1003B000004CCDF80C90DFF84491D9F80490C9F3C3
:1003C000810323B1012B09D0022B75D10DE0DFF899
:1003D0005491DFF854A1CAF8009074E0DFF844911A
:1003E000DFF844A1CAF800906DE0DFF81091D9F869
:1003F000049009F48034B4F5803F34D1DFF8FC90E8
:10040000D9F82C9009F080450DB9464900E04749DC
:10041000DFF8E890D9F82C9009F48036B6F5803FE3
:1004200016D1DFF8D890D9F82C90C9F3031909F147
:10043000010CDFF8C890D9F82C90C9F3032909F111
:100440000202112A00D11422B1FBFCF909FB02F1CE
:10045000DFF8A890D9F82C9009F00F0909F10107ED
:10046000B1FBF7F100E03249DFF89090D9F8049041
:10047000C9F38340DFF88490D9F8049009F000595B
:10048000B9F1000F01D040F010000F2801D2801CFC
:1004900000E0401C01FB00F9DFF88CA0CAF80090D6
:1004A0000F2807D101EB41094FEA490909EB51092E
:1004B000CAF8009007E0FFE7DFF86890DFF868A06F
:1004C000CAF8009000BF00BFDFF83090D9F8049060
:1004D000C9F303181DF80890CDF81090DFF8489084
:1004E000D9F80090DDF810A029FA0AF9DFF838A051
:1004F000CAF8009005B0BDE8F08F0000001002407F
:1005000000200240FFFFC3DF0000342088ED00E040
:10051000FFFFF6EA000000000000000001020304F3
:100520000607080900127A0000000020006CDC02B7
:1005300000093D000648804706480047FEE7FEE701
:10054000FEE7FEE7FEE7FEE7FEE7FEE7FEE7FEE783
:10055000DF02000851010008704700BFFEE700BF3E
:10056000FEE700BFFEE7704770B506460C46062C56
:1005700001DA022070BD301D04F052FB0546A01CBC
:10058000854201D00220F5E70020F3E70146A029CB
:1005900004DC01F00F0008B9012070470020FCE7DF
:1005A0002DE9F04704460D469046B8F1010F01D100
:1005B000BDE8F0870CB1062D00DAF9E7A01C04F0C5
:1005C0002FFB06462078F02806D101234246194623
:1005D000304600F008FE18E02078FA2815D140F2E5
:1005E0000E40864211D1242D0FDB677A182F00DDD3
:1005F000002704F1220004F013FB81464B463A46E3
:1006000004F10A01022000F0F8FE00BFD0E72DE956
:10061000F04106460F4639463046FFF7A5FF08B1C0
:10062000BDE8F0810E2F02D13078F12800D0F7E735
:10063000B479F579012D01DB042D00DD0125012CB4
:1006400001DB032C00DDEBE7FE480570012C03D134
:10065000284600F0CCFE0DE0022C06D10020FA491D
:100660000870284600F0C3FE04E0032C02D128469F
:1006700000F0BDFE00BFD3E72DE9F04104468846F7
:1006800041462046FFF770FF10B9B8F10E0F08D0B1
:1006900001230222194640F2034000F0A4FDBDE808
:1006A000F0812078F02801D1607838B1012305224B
:1006B000194640F2034000F096FDF0E7A679E7798D
:1006C000257A0EB1012E06D13846FFF75FFF10B133
:1006D0004DB1012D07D001230422194640F20340F9
:1006E00000F081FDDBE73946304600F0E1FC2A46A8
:1006F0003946304600F09CFB012D01D100F0BDFBD6
:1007000000231A46194640F2034000F06CFD00BF7A
:10071000C5E72DE9F0470446884641462046FFF7E5
:1007200023FF18B940F22640804501D0BDE8F0878C
:100730002078FA2801D1607800B1F7E7257A667A47
:1007400004F1220004F06CFA814604F1240004F064
:1007500067FA0746012D06DB032D04DC182E02DCA8
:10076000B7F5806F07DD4B46002204F10A01022035
:1007700000F043FEDAE74B46324604F10A0101205D
:1007800000F03BFE00BFD1E72DE9F0470446884664
:1007900041462046FFF7E8FE10B9B8F10E0F01D030
:1007A000BDE8F0872078F22801D1607800B1F7E742
:1007B000A01D04F035FA8146257A667AA77A012DC4
:1007C00003DC052E01DC012F00DDE9E73B46324664
:1007D0002946484600F056FE00BFE1E72DE9F0410A
:1007E00004460F4639462046FFF7BEFE08B9262FBD
:1007F00001D0BDE8F0812078FA2801D1607800B1FD
:10080000F7E7257A667A04F1220004F009FA8046B7
:10081000012D03DB042D01DC182E00DDE9E7434642
:10082000324604F10A01284600F039FE00BFE0E735
:1008300070B504460E46062E00DA70BDA01C04F00A
:10084000EFF90546607848B12078F02805D10123FA
:1008500005221946284600F0C6FCEEE740F20341A7
:10086000681A8D4216D006DCB5F5806F08D0A5F267
:100870000140F0B909E00B2811D00C2819D113E080
:1008800031462046FFF780FF1DE031462046FFF746
:10089000BEFE18E031462046FFF7EEFE13E031467B
:1008A0002046FFF736FF0EE031462046FFF796FF61
:1008B00009E02078F02805D10123032219462846B3
:1008C00000F091FC00BF00BF00BFB6E7ADF5307D82
:1008D0001FE000F035FE5DA009F094FC01A807F0D0
:1008E000E1FE5BA009F08EFC01A964A009F08AFC7E
:1008F00001A807F061FE63A009F084FC6EA009F076
:1009000081FC01A95DA009F07DFC4FF4167006F092
:10091000C7FDDEE728E000F0C3FB88B12021764860
:1009200001F0B1FF8021744801F0ADFF4021724811
:1009300001F0A7FF4FF480716F4801F0A2FF10E0B3
:1009400040216D4801F09FFF4FF480716A4801F02B
:100950009AFF2021684801F094FF8021664801F049
:1009600090FFC82006F09CFDD5E707E04FF47A70B1
:1009700006F096FD4FF47A7000F0B3FAF6E71CB576
:1009800026E000F049FA0020019001A95B4804F03C
:10099000A9F818B9022006F083FD19E000200090A4
:1009A0006B46574ABDF80410544804F01DFA04463B
:1009B00044B1012C05D02246BDF804104F48FFF782
:1009C000EFFD05E0BDF800104D48FFF731FF00BF17
:1009D000D7E704E000F082FB142006F061FDF9E7A0
:1009E0001CB5044608F0CEFE46480421002396229A
:1009F000CDE9001044A1AFF2250006F043FA4548C6
:100A0000062100234FF48072CDE9001042A1AFF21D
:100A1000910006F037FA434803210023A022CDE9D4
:100A2000001041A1AFF2BD0006F02CFA41480221AE
:100A300000238022CDE900103FA1AFF2271006F07D
:100A400021FA7FE040000020410000200D0A000054
:100A5000E4BBBBE58AA120202020202020202020EC
:100A600020E697B6E997B4202020202020202020DF
:100A700020202020E58DA0E794A800000A25730A15
:100A8000000000002D2D2D2D2D2D2D2D2D2D2D2D4A
:100A90002D2D2D2D2D2D2D2D2D2D2D2D2D2D2D2D86
:100AA0002D2D2D2D2D2D2D2D2D2D2D2D2D2D2D2D76
:100AB0002D2D2D0A00000000E4BBBBE58AA12020FB
:100AC000202020202020E5BD93E5898DE78AB6E629
:100AD000808120E4BC98E58588E7BAA720E69C8061
:100AE000E5B08FE589A9E4BD9920E5889BE5BBBA0F
:100AF000E9A1BAE5BA8F0000000C01402C010020EA
:100B0000540500200C0000204144435F7461736B66
:100B1000000000001000002055534152545F7461E2
:100B2000736B0000180000205374617475735F7458
:100B300061736B00140000204C45445F7461736B5B
:100B4000000000004B48022100234FF4AF72CDE9B2
:100B5000001049A1AFF28B2006F094F908F039FE9D
:100B6000002006F0E0F91CBD10B504F051FC04F0C3
:100B7000FFF904F05DFD04F095FE40F2AF4140F254
:100B8000F31004F035FD04F05CFF4FF4E13003F0A6
:100B9000F5FD4FF4E13003F034FE04F0F3FD3220B4
:100BA00004F01EFA4FF40041364801F06CFE0821B3
:100BB000354801F068FE1021334801F064FE4FF41F
:100BC0000061304801F05DFE4FF480512D4801F086
:100BD00058FE4FF480712B4801F055FE00F0FAFEEC
:100BE00000F006FF044600F06CF900F046F910BD75
:100BF0001CB500220821012005F0C6F82349086031
:100C000000220121084605F0BFF8214908600120B3
:100C100005F05BFA1F49086003220021012005F05E
:100C2000B3F81D490860FFF79FFF1C48012100230E
:100C30000A02CDE900101AA1AFF25B2006F022F9FA
:100C400006F089FF00BFFEE770B504460D46E1B22D
:100C5000164803F083FE204670BD10B5044600BF61
:100C60000521124803F09CFC0028F9D00F4803F03E
:100C7000B1FB10BD04000020544553545F746173F0
:100C80006B00000000080140000C0140240000201F
:100C9000280000201C000020200000200800002068
:100CA00073746172745F7461736B0000004800407C
:100CB00010B5130A43544B1CC25410BD01460878AA
:100CC0004A7840EA022070470146002908DA484283
:100CD00001B27F2900DD7F21CAB242F08000704757
:100CE0007F2900DD7F21C8B2F9E70B88834200DA53
:100CF00008801388834200DD1080704710B50446D9
:100D0000A01CFFF7DBFFFE490880201DFFF7D6FF80
:100D1000FC490880A01DFFF7D1FFFB490880207A1D
:100D2000FA49087004F10900FFF7C8FFF849088084
:100D300004F10B00FFF7C2FFF649088004F10D0033
:100D4000FFF7BCFFF449088004F10F00FFF7B6FF7E
:100D5000F249088004F11100FFF7B0FFF049088064
:100D60000120F0490870F0480068401CEE49086016
:100D7000EE4AEF49E2480088FFF7B7FFED4AEE4937
:100D8000DF480088FFF7B1FF10BD10B50446EB48FF
:100D9000007850B9552C07D1E84801780078401CFC
:100DA000E64A1070E648445410BDE4480078012833
:100DB00016D1AA2C08D1E14801780078401CDF4AFE
:100DC0001070DF4844540AE0552C05D10120DB495E
:100DD0000870DB48047002E00020D8490870E3E79F
:100DE000D64801780078401CD44A1070D448445446
:100DF0001046007815280DDBD148C07C662806D146
:100E0000CF48007DBB2802D1CD48FFF777FF0020F7
:100E1000CA49087000BFC7E708B503E09DF80000A5
:100E2000FFF7B3FF684603F070FD0028F6D108BD58
:100E3000FEB506460C461546002000900190029033
:100E400055208DF80000AA208DF80100C1208DF8F2
:100E500002008DF803608DF804408DF805500020E5
:100E60008DF8060066208DF80700BB208DF808007D
:100E70000921684603F09CFDFEBD0020B1490880B1
:100E80004FF6FF70B04908800020B04908804FF647
:100E9000FF70AF4908800020A54908804FF6FF7019
:100EA000A24908800020A44908804FF6FF70A1499C
:100EB00008800020A74908804FF6FF70A6490880E7
:100EC000704710B50446B4F1807F01D36FF07F44C2
:100ED000A2480460204600F091FD10BD9F480068C4
:100EE000704710B504469E48006820449C4908603D
:100EF00016E09B4800689B49401A9949086097484A
:100F000000686FF07F4188420AD294480068401C14
:100F1000924908600846006800F070FD00F02AFD64
:100F20008F4800688F498842E3D210BD014646F2DF
:100F3000A810814205DB46F66050814201DC0020AA
:100F4000704745F6C050814203DB46F2A81081424B
:100F500007DB46F66050814205DD47F248108142CA
:100F600001DC0320ECE70120EAE7F0B502465A2055
:100F700048436427B0FBF7F36E204843B0FBF7F417
:100F800001EB81000001B0FBF7F5C1EB0110C000DF
:100F9000B0FBF7F69A4203D3A24201D80020F0BD7D
:100FA000AA4203D3B24201D80320F8E70120F6E7B2
:100FB0005C48007810B15248008870476A48008940
:100FC000FBE75848007810B14D48008870476648E4
:100FD0000089FBE72DE9F047002463498889FFF782
:100FE000A5FF0546A146604988884FF49661FFF742
:100FF000BCFF0646FFF7DCFF82464FF42F61FFF788
:10100000B4FF0746FFF7DDFF82464FF42F61FFF77D
:10101000ACFF804605F0030044EA805444EA0954DA
:1010200006F0030044EA803407F0030044EA003489
:1010300008F0030044EA8024012D06D0012E04D0DC
:10104000012F02D0B8F1010F03D1012047490870E8
:101050000FE0032D06D0032E04D0032F02D0B8F1E9
:10106000030F03D102204149087002E000203F49EC
:1010700008702046BDE8F0873D48008818B93B4815
:101080000078012801D1012070473A48007818B94A
:1010900036480078022801D10220F5E70020F3E766
:1010A00000B5FFF7E9FF08B1012000BD0020FCE713
:1010B00070B504460D463048047030480570012C68
:1010C00004D110212E4801F0DEFB06E010212C484F
:1010D00001F0D7FB00202949087070BD10B504F05D
:1010E0007CFC2849284804F0E4FC26480488204673
:1010F00000F049FB0A2190FBF1F000B2234947E0E0
:1011000060000020620000206400002066000020D3
:10111000680000206A0000206C0000206E000020A3
:101120007000002072000020740000204C0000209D
:101130004A000020500000204E00002084000020C3
:101140008A090020420000204400002046000020C0
:1011500048000020520000205400002058000020C9
:101160005C00002080EE36007C0900204100002059
:10117000380000203A0000203E0000203F00002000
:10118000000C01402A1A00201C1A00203400002004
:1011900008800846B0F90000FFF796FDFE49088078
:1011A0008889FE4AFE49FFF7A0FDFB498888FD4A71
:1011B000FD49FFF79AFDFD48007858B9F6490889BE
:1011C000FB4AFC49FFF791FDF3490889FA4AFB49BC
:1011D000FFF78BFDF0494889F94AFA49FFF785FD89
:1011E000FFF7F8FE10BD2DE9FF4104460D461646F7
:1011F0001F4600200090019002900390F2208DF88D
:10120000000000208DF801004FF482610DF1020012
:1012100003F00CFD102101A803F008FD21460DF19B
:10122000060003F003FD8DF808508DF809608DF875
:101230000A7000208DF80B008DF80C008DF80D0061
:101240000E226946022003F022FEBDE8FF81F0B5C0
:1012500097B00546582101A808F0E1FCFFF7BAFE57
:101260000446FFF7A5FE0746FFF7ABFE0646F22051
:101270008DF8040000208DF8050040F212410DF1B8
:10128000060003F0D3FC582102A803F0CFFC8DF830
:101290000A500DF10B0000F0B9FB0DF1110000F048
:1012A000BBFB00208DF8140011208DF81500FFF70E
:1012B000E3FE8DF81600B8488289132101A8FFF7D4
:1012C000F7FCB5488289152101A8FFF7F1FCB44865
:1012D0000288172101A8FFF7EBFCB048028819210A
:1012E00001A8FFF7E5FCAC4882881B2101A8FFF7A5
:1012F000DFFCAD4802881D2101A8FFF7D9FCA948F1
:1013000002881F2101A8FFF7D3FC3A46212101A83A
:10131000FFF7CEFCA7480288232101A8FFF7C8FCED
:10132000A3480288252101A8FFF7C2FC32462721E5
:1013300001A8FFF7BDFCA1480288292101A8FFF7F9
:10134000B7FC9D4802882B2101A8FFF7B1FC200CB7
:101350008DF83100200A8DF83200E0B28DF83300AC
:1013600000208DF834008C484289312101A8FFF714
:101370009FFC94480288332101A8FFF799FC90480C
:101380000288352101A8FFF793FC8F48B0F90000CF
:10139000FFF79AFC8DF84D008C480068000C8DF822
:1013A0004E008A480088000A8DF84F008748007870
:1013B0008DF850008648007801280BD17B480078D2
:1013C00010B18448008828B100208DF851008DF8B4
:1013D000520005E0FF208DF8510080208DF852006A
:1013E000562201A9022003F052FD17B0F0BD10B53E
:1013F00004462046FFF72BFF10BD2DE9F0418AB0CF
:1014000007460E46154698462821684608F007FC10
:10141000182D00DD1825FA208DF8000000208DF829
:10142000010040F21E410DF1020003F0FFFB2821F4
:1014300001A803F0FBFB00208DF806008DF80700E3
:101440008DF808708DF8095056B1002406E0315D22
:1014500004F10A000DF80010601CC4B2AC42F6DBC7
:10146000424622216846FFF723FC00208DF8240025
:101470008DF8250026226946022003F008FD0AB0F7
:10148000BDE8F08130B5544C2080544C2170544C50
:101490002270544C23700124534D2C7030BD30B554
:1014A000182A00DD1822514C2070514C2380012451
:1014B000504D2C7030BD2DE9F0418AB007460E46E4
:1014C000154698462821684608F0A9FB182D00DD2E
:1014D0001825FA208DF8000000208DF8010040F258
:1014E0001F410DF1020003F0A1FB282101A803F028
:1014F0009DFB00208DF806008DF807008DF8087020
:101500008DF8095056B1002406E0315D04F10A005F
:101510000DF80010601CC4B2AC42F6DB424622213A
:101520006846FFF7C5FB00208DF824008DF82500E4
:1015300026226946022003F0AAFC0AB0BDE8F08129
:1015400000B52DED048B83B02BA008F05BFE37486F
:10155000018837A008F056FE1B48B0F9001039A0EA
:1015600008F050FE0C49488808F0E3FB41EC190BE9
:101570009FED380B53EC102B08F06CFB41EC180B73
:101580002A48408853EC182B009034A008F03AFE0B
:10159000014988886EE000007C090020440000209A
:1015A0004200002048000020460000207200002079
:1015B0004C0000204A000020500000204E00002077
:1015C0005400002052000020340000205800002069
:1015D0003E000020620000207A0000207C000020F5
:1015E0007D0000207E000020780000208000002088
:1015F000820000207F0000200A2D2D2D2D2D2D2D65
:101600002D2D2D2D2D2D2D2D2D2D2D2D2D2D2D2D0A
:101610002D2D2D2D2D2D2D2D2D2D2D2D2D2D2D2DFA
:101620002D2D2D2D2D2D2D2D0A0000002A1A0020E4
:1016300076616C75655F54454D50203D2564200AE8
:1016400000000000E6B8A9E5BAA6203D2564200AFE
:1016500000000000000000000000594076616C7539
:10166000655F3132565F4920252E3266205B256446
:101670005D0A000008F05DFB41EC190B1FED0B0B40
:1016800053EC102B08F0E6FA41EC180B5048808818
:1016900053EC182B00904FA008F0B4FD5349C888B4
:1016A00008F047FB41EC190B1FED160B53EC102B08
:1016B00008F0D0FA41EC180B4548C08853EC182BC1
:1016C00000904BA008F09EFD4849088908F031FBC6
:1016D00041EC190B1FED210B53EC102B08F0BAFA5B
:1016E00041EC180B3A48008953EC182B009046A0A7
:1016F00008F088FD3D49488908F01BFB41EC190BB7
:101700001FED2C0B53EC102B08F0A4FA41EC180B36
:101710002F48408953EC182B009041A008F072FD2F
:101720003249888908F005FB41EC190B1FED370B96
:1017300053EC102B08F08EFA41EC180B24488089EA
:1017400053EC182B00903CA008F05CFD4048027858
:101750004048017840A008F055FD464800784649C9
:101760000988464A1278CDE900210290444803884E
:10177000444802884448018844A008F043FD03B06F
:10178000BDEC048B00BDF0B503461A464E48B2F5D9
:10179000805F01D340F6FF72911002F0030440F223
:1017A000FF37B94202D3B0F9FE770EE014B930F931
:1017B00011700AE030F911504F1C30F91760771B97
:1017C0006743BF1C05EBA7073FB23846F0BD0000DA
:1017D0002A1A002076616C75655F3132565F55209C
:1017E000252E3266205B25645D0A00007C090020FE
:1017F00076616C75655F3238565F4920252E3266FA
:10180000205B25645D0A000076616C75655F323887
:10181000565F5520252E3266205B25645D0A000048
:1018200076616C75655F56494E5F4920252E32669C
:10183000205B25645D0A000076616C75655F564922
:101840004E5F5520252E3266205B25645D0A000020
:101850003F0000203E00002066616E5F7377697470
:101860006368203D256420647574793D30782530A7
:1018700032580A0072000020680000206600002034
:10188000640000206200002060000020736C61761C
:10189000655F663238763D25642066616E5F7370E1
:1018A0006565643D256420695F66313D2564207966
:1018B0003D256420665F70776D3D2564206F6E6CFA
:1018C000696E653D25640A0000AB000810B502464C
:1018D00013460020022104E05C5C0444E0B24C1C8E
:1018E000E1B21029F8D310BD10B5044612212046EC
:1018F00008F095F94AF25A5020800120A0707B48E8
:1019000001686160808820817948018861818078E0
:1019100020732046FFF7DAFFE07010BD10B50446D3
:1019200020884AF25A51884201D0002010BDA07888
:10193000012801D00020F9E72046FFF7C7FFE17832
:10194000884201D00020F1E70120EFE70146087846
:1019500000044A7840EA02208A7810437047B0F1C8
:10196000807F01D36FF07F40020C0A70020A4A7038
:101970008870704710B55F48007800B910BD5E48A8
:10198000FFF7A4FF5C49C8701022002003F01DFD82
:1019900000BFF3E700B585B05648007820B9564837
:1019A000FFF7A2FF05B000BD10226946002003F03A
:1019B000FBFC6846FFF7B2FF28B94F48FFF794FFDA
:1019C000FFF7D8FFEEE7122269464B4808F00EF900
:1019D00000BFE7E710B503F041FC03F0CEFC08B907
:1019E000012000E0002043490870FFF7D3FF10BD3D
:1019F00010B541480D30FFF7A9FF10BD10B50446E2
:101A00003D490D312046FFF7AAFF10BD3A494A680B
:101A1000026009898180704737494A890280097BC1
:101A20008170704770B506460C4615460CB900200B
:101A300070BD012E04D0022E0DD0032E1FD114E054
:101A4000032D01DA0020F3E72B482188A0F80D10C0
:101A5000A178C17315E0062D01DA0020E8E72648D9
:101A600021684160A18801810BE0032D01DA00208B
:101A7000DEE7214821884181A178017301E000203F
:101A8000D6E700BF4AF25A501B49088001208870EF
:101A9000FFF770FF0120CBE710B50446102C06D0ED
:101AA000112C0AD0122C0FD01F2C18D113E0124881
:101AB0000021A0F80D10C17313E00F480B490A680C
:101AC0004260898801810CE00B4809490A884281FB
:101AD0008978017305E00848FFF706FF01E0002060
:101AE00010BD00BFFFF746FF0120F9E700B3000873
:101AF00006B3000885000020A009002010B50446A8
:101B0000FA48204418B1B0F5806F12D108E040F2D5
:101B1000093001F05FF940F2093001F069F909E09C
:101B200040F20A3001F056F940F20A3001F060F953
:101B300000E000BF00BF10BDED49096821F470212D
:101B4000EB4A116011460968014311607047AAB160
:101B500001F480731BB1436843F48073436001F464
:101B600080631BB1436843F48063436001F0020368
:101B7000CBB1836843F00203836014E001F4807307
:101B80001BB1436823F48073436001F480631BB18D
:101B9000436823F48063436001F002031BB1836850
:101BA00023F002038360704721B1826842F400622F
:101BB000826003E0826822F400628260704781687C
:101BC00001F0010119B9816841F00101816070479C
:101BD000816821F0010181607047816841F008014E
:101BE000816000BF816801F008010029FAD1816895
:101BF00041F00401816000BF816801F00401002907
:101C0000FAD17047BA48001D006840F40000B84996
:101C1000091D08607047B648001D006820F40000E8
:101C2000B349091D0860704750F8802F22F44052D4
:101C3000026002680A4340F88029704730B5B1F568
:101C4000007F06D1D0F8804044F40074C0F8804092
:101C500005E0D0F8804024F40074C0F8804050F8CB
:101C6000804F24F4FE740460046842EA03052C43A8
:101C700040F8804930BDD0F8801041F00101C0F833
:101C800080107047D0F8801021F00101C0F880105A
:101C90007047816841F4807181607047816821F4E8
:101CA00080718160704730B5436823F4C05343604E
:101CB000012904D0022913D0042916D116E0436863
:101CC00023F4604343604368541E4FF4604505EAC3
:101CD000443423434360436843F40063436006E0B5
:101CE000436843F48053436001E000BF00BF00BF7E
:101CF00030BD30B5012902D002291AD10CE0C36AE7
:101D000023F47003C362C36A541E4FF4700505EADE
:101D100004542343C3620DE0836B23F440138363B5
:101D2000836B541E4FF4401505EA04542343836328
:101D300000E000BF00BF30BDF0B51D4606290CDA3B
:101D4000436B01EB81071F26BE40B34301EB8106C5
:101D500002FA06F63343436322E00C290EDA036BE2
:101D60008E1F06EB86071F26BE40B3438E1F06EB71
:101D7000860602FA06F63343036311E010290FDAF0
:101D8000C36AA1F10C0606EB86071F26BE40B343CB
:101D9000A1F10C0606EB860602FA06F63343C3628F
:101DA0000A2A0CDA046902EB42070726BE40B44354
:101DB00002EB420605FA06F63443046111E0122AEA
:101DC0000FDAC468A2F10A0606EB46070726BE40F2
:101DD000B443A2F10A0606EB460605FA06F63443BA
:101DE000C460F0BDF0B50C46876BC7F30156856B38
:101DF000E71CBF1B07EB870C1F2707FA0CF7BD4337
:101E0000E71CBF1B07EB870702FA07F73D43856313
:101E10000A2A0DDA016902EB420C072707FA0CF7D0
:101E2000B94302EB420703FA07F73943016112E0B5
:101E3000122A10DAC168A2F10A0707EB470C07273C
:101E400007FA0CF7B943A2F10A0707EB470703FAB1
:101E500007F73943C160F0BD70B50B460021856BB3
:101E6000C5F30154E51AC5F10301032905D889001A
:101E7000C2F30B0600F114056E5070BD012902D0AB
:101E8000022910D107E0836823F46023836083680C
:101E90001343836008E0836823F4E043836083682E
:101EA0001343836000E000BF00BF704772B101F0D0
:101EB00001031BB1836843F48013836001F00203C4
:101EC00093B1836843F4004383600DE001F00103A4
:101ED0001BB1836823F48013836001F002031BB1FC
:101EE000836823F4004383607047000000DCFEBF7A
:101EF0000424014001F001021AB1826842F4800218
:101F0000826001F002021AB1826842F4001282601B
:101F100070470146C86C80B2704702460B4633B129
:101F2000012B06D0022B06D0032B08D105E0D16B84
:101F300007E0116C05E0516C03E0916C01E00021B9
:101F400000BF00BF88B270475748006870474268BA
:101F5000564B1A40426042680A4342604268544B02
:101F60001A43426070474268504B1F331A40426028
:101F7000012904D0022907D003290FD109E04268C2
:101F800042F4000242600AE0426842F48002426089
:101F900005E0426842F44002426000E000BF00BF3A
:101FA00070474168414A114041607047C1F30B03DB
:101FB0008362C2F30B03436270470246002013683A
:101FC0000B4003B10120704702688A4302607047EA
:101FD000014600200A6802F0100202B10120704799
:101FE000014600200A6802F0080202B10120704791
:101FF00010B502460B460020012B04D0022B0CD05A
:10200000042B1ED113E0146804F00101546804F09D
:1020100040040CB101B1012014E0146804F0020185
:10202000546804F020040CB101B101200AE01468E6
:1020300004F00401546804F080040CB101B10120E3
:1020400000E000BF00BF10BD02688A430260704715
:1020500001F001021AB1426842F04002426001F010
:1020600002021AB1426842F02002426001F004020A
:102070001AB1426842F080024260704701F00102EA
:102080001AB1426822F04002426001F002021AB125
:10209000426822F02002426001F004021AB1426854
:1020A00022F08002426070474C240140E0FD3FFF77
:1020B0000002C00002460120FD4B9A4202D10429D1
:1020C00000DD0020704770B504460D4629462046C5
:1020D000FFF7F0FF08B900BFFEE705EB85008100C0
:1020E00004F10800405820F0010105EB8500820052
:1020F00004F108008150002105EB8500820004F105
:102100000800815005EB8500820004F10C0081502D
:1021100005EB8500820004F11000815005EB85007D
:10212000820004F1140081506068AA000F219140E0
:102130000843606070BD08B900BFFEE70021016080
:10214000416001768160C1604176016181764161C3
:1021500070472DE9F04104460D46164629462046B3
:10216000FFF7A8FF08B900BFFEE705EB8500820076
:1021700004F110003168815005EB8500820004F104
:102180001400B1688150308A81B205EB850082006D
:1021900004F10C00815005EB8500810004F108007A
:1021A000475827F47C57F168706808437169084301
:1021B000074305EB8500810004F108004750307E9D
:1021C00001280ED105EB8500810004F1080040587C
:1021D00040F0400105EB8500820004F108008150C9
:1021E0000DE005EB8500810004F10800405820F067
:1021F000400105EB8500820004F108008150707EEB
:1022000001280ED105EB8500810004F1080040583B
:1022100040F0800105EB8500820004F10800815048
:102220000DE005EB8500810004F10800405820F026
:10223000800105EB8500820004F108008150B07E2A
:1022400070B905EB8500810004F10800405820F0CA
:10225000100105EB8500820004F1080081500DE0BB
:1022600005EB8500810004F10800405840F01001A2
:1022700005EB8500820004F108008150BDE8F08183
:1022800070B505460C4621462846FFF713FF08B9EE
:1022900000BFFEE704EB8400810005F10800405810
:1022A00040F0200104EB8400820005F10800815019
:1022B00070BD70B505460C4621462846FFF7FAFE6C
:1022C00008B900BFFEE704EB8400810005F10800B7
:1022D000405820F0200104EB8400820005F1080042
:1022E000815070BD70B505460C4621462846FFF763
:1022F000E1FE08B900BFFEE704EB8400810005F1B0
:102300000800405840F4804104EB8400820005F14D
:102310000800815070BD70B505460C462146284620
:10232000FFF7C8FE08B900BFFEE704EB8400810098
:1023300005F10800405820F4804104EB840082003D
:1023400005F10800815070BD70B505460C46214668
:102350002846FFF7AFFE08B900BFFEE704EB840094
:10236000810005F10800405840F0010104EB8400B1
:10237000820005F10800815070BD70B505460C461D
:1023800021462846FFF796FE08B900BFFEE704EB9A
:102390008400810005F10800405820F0010104EBA1
:1023A0008400820005F10800815070BD70B50646BA
:1023B0000C46154621463046FFF77CFE08B900BFA3
:1023C000FEE704EB8400810006F11000455070BD6B
:1023D00070B506460C46154621463046FFF76AFEA4
:1023E00008B900BFFEE704EB8400810006F1140089
:1023F000455070BD70B506460C4615462146304620
:10240000FFF758FE08B900BFFEE7A9B204EB84004D
:10241000820006F10C00815070BD70B505460C4677
:1024200021462846FFF746FE08B900BFFEE704EB49
:102430008400810005F10C00405870BD2DE9F04189
:1024400004460D46174629462046FFF733FE08B9D5
:1024500000BFFEE705EB8500810004F10800465847
:1024600026F440563E4305EB8500810004F1080048
:102470004650BDE8F0812DE9F04104460D4617466F
:1024800029462046FFF716FE08B900BFFEE705EB18
:102490008500810004F10800465826F440663E435A
:1024A00005EB8500810004F108004650BDE8F0818D
:1024B000000402402DE9F04104460D461746294626
:1024C0002046FFF7F7FD08B900BFFEE705EB8500E2
:1024D000810004F10800465826F440763E4305EB9F
:1024E0008500810004F108004650BDE8F08170B518
:1024F00005460C4621462846FFF7DCFD08B900BF1B
:10250000FEE704EB8400810005F10800405840F02C
:10251000800104EB8400820005F10800815070BD49
:1025200070B505460C4621462846FFF7C3FD08B99D
:1025300000BFFEE704EB8400810005F1080040586D
:1025400020F0800104EB8400820005F10800815036
:1025500070BD70B505460C4621462846FFF7AAFD1A
:1025600008B900BFFEE704EB8400810005F1080014
:10257000405840F0400104EB8400820005F108005F
:10258000815070BD70B505460C4621462846FFF7C0
:1025900091FD08B900BFFEE704EB8400810005F15E
:1025A0000800405820F0400104EB8400820005F14F
:1025B0000800815070BD70B504460D461646294688
:1025C0002046FFF777FD08B900BFFEE776B905EBB7
:1025D0008500810004F10800405820F0100105EB4F
:1025E0008500820004F1080081500DE005EB8500B4
:1025F000810004F10800405840F0100105EB85000F
:10260000820004F10800815070BD30B503461C689B
:102610008D0002FA05F52C400CB1012000E00020ED
:1026200030BD10B543688C0002FA04F423434360C4
:1026300010BD70B5034600BF00BF022A04D0042AB3
:1026400011D0082A2DD11DE018688E0002FA06F676
:1026500000EA060501EB8100860003F108008059BD
:1026600000F002041FE018688E0002FA06F600EA85
:10267000060501EB8100860003F10800805900F097
:10268000040410E018688E0002FA06F600EA060557
:1026900001EB8100860003F10800805900F0080476
:1026A00001E000BFFEE700BF15B10CB1012070BD15
:1026B0000020FCE710B543688C0002FA04F42343C1
:1026C000436010BD70B504460D46164629462046A7
:1026D000FFF7F0FC08B900BFFEE705EB85008100BD
:1026E00004F108004058304305EB85018A0004F1ED
:1026F0000801885070BD70B504460D46164629463F
:102700002046FFF7D7FC08B900BFFEE705EB8500C0
:10271000810004F108004058B04305EB85018A00B0
:1027200004F10801885070BD10B50446C749601A0D
:102730008C4220D006DCC648204450B1B0F5806FF2
:1027400034D10FE0B0F5806F1ED0B0F5006F2DD101
:1027500023E040F2023000F03DFB40F2023000F096
:1027600047FB24E040F2033000F034FB40F203303A
:1027700000F03EFB1BE04FF4417000F02BFB4FF4E8
:10278000417000F035FB12E040F2053000F022FB12
:1027900040F2053000F02CFB09E040F2063000F07A
:1027A00019FB40F2063000F023FB00E000BF00BF41
:1027B00010BD10B54FF4407000F00CFB4FF44070AA
:1027C00000F016FB10BDF0B50446164600250022A9
:1027D00001F00F0501F0100747B1042E05D145F0B7
:1027E0000305E76B1F43E76300E0354300201EE06D
:1027F000012787401F40C7B122684FEA800C0F278E
:1028000007FA0CF7BA43870005FA07F73A43282975
:1028100004D1012787401F40676105E0482903D1A3
:10282000012787401F4027612260471CB8B2082853
:10283000DED3082022E0012787401F40E7B162680D
:10284000A0F108074FEA870C0F2707FA0CF7BA43E5
:10285000A0F10807BF0005FA07F73A43282904D179
:10286000012787401F40676105E0482903D1012700
:1028700087401F4027616260471CB8B21028DAD336
:10288000F0BD01617047416170470AB1016100E02C
:1028900041617047C160704702469068084008B1C6
:1028A000012070470020FCE70146886880B270472D
:1028B0000246D068084008B1012070470020FCE7BC
:1028C0000146C86880B27047F0B50A46002300246C
:1028D0000021002500F00046B6F1004F02D15D4E08
:1028E000F16901E05B4E7168C0F3034583B200F407
:1028F0004016B6F5401F08D121F0E061554E7668CC
:1029000026F0E066534F7E6012E000F48016B6F5C4
:10291000801F06D1032606FA05F4A14341F0E061C9
:1029200006E0460D360103FA06F6B14341F0E061D8
:1029300022B1460D360103FA06F6314300F0004697
:10294000B6F1004F02D1434EF16101E0414E71609A
:10295000F0BD10B500228B071C0F0F2303FA04F201
:1029600004290EDA3B4B9B6893433A4CA360234601
:102970009B688C07240F00FA04F42343354CA360B2
:102980002FE008290EDA334BDB689343314CE360C8
:102990002346DB688C07240F00FA04F423432D4CF4
:1029A000E3601EE00C290EDA2A4B1B699343294C85
:1029B000236123461B698C07240F00FA04F4234388
:1029C000244C23610DE0234B5B699343214C6361ED
:1029D00023465B698C07240F00FA04F423431D4C43
:1029E000636110BD024600201A4B186820F07F007A
:1029F00040EA02100843186070471648006840F02B
:102A000080001449086070471248006820F0800078
:102A10001049086070474FF480320A438261816137
:102A200082618269826970470A4A116A21F0010154
:102A300041EA0002074B1A6270470648006A00F438
:102A4000807008B1012070470020FCE700100140B1
:102A500000F8FEBF0000014045490143454A1160AE
:102A600070472DE9F04103460D4616460024002725
:102A7000A0464048006800F4E060B0F5A06F15D0B3
:102A800006DCB0F5407F18D0B0F5806F19D110E0AA
:102A9000B0F5C06F06D0B0F5E06F12D100274FF04F
:102AA000040815E001274FF0030811E00227B8469B
:102AB0000EE003274FF001080AE004274FF000085A
:102AC00006E04FF4A060FFF7C7FF0227B84600BF3B
:102AD00000BFC7F1040005FA00F4C8F104010F209B
:102AE000C8403040044324012348C45403F01F016C
:102AF000012088405911890001F1E021C1F800014D
:102B0000BDE8F08100F01F02012191401B4A4311F2
:102B100042F8231070471A4A0A400243154B1B1F04
:102B20001A60BFF34F8F70471249091D09680143AE
:102B3000104A121D116070470E49091D0968814332
:102B40000C4A121D11607047042808D14FF0E02193
:102B5000096941F004014FF0E022116107E04FF0F4
:102B6000E021096921F004014FF0E0221161704772
:102B70000000FA050CED00E000E400E080E100E078
:102B800080FFFF1F0146F74A02EB9110006801F039
:102B90001F0301229A40104008B101207047002015
:102BA000FCE7F0B506460024002700251C2E6ED059
:102BB00007DCB6B3102E10D0182E67D01A2E67D1AE
:102BC00076E0B6F5006F19D0B6F5106F4CD0A6F5CB
:102BD000405010380028F2D134E004E01120FFF713
:102BE000D1FF0546641C1DB94FF6FF708442F5D134
:102BF0001120FFF7C7FF00B101277AE005E040F69A
:102C00000100FFF7BFFF0546641C1DB96FF07C4053
:102C10008442F4D140F60100FFF7B4FF00B1012770
:102C200067E0FFE704E00120FFF7ACFF0546641C06
:102C300015B9B4F5A06FF6D10120FFF7A3FF00B1DD
:102C4000012756E005E043F21100FFF79BFF054620
:102C5000641C15B9C4488442F5D143F21100FFF752
:102C600091FF00B1012744E005E040F60110FFF7B5
:102C700089FF0546641C15B9BB488442F5D140F66E
:102C80000110FFF77FFF00B1012732E006E01FE0EF
:102C90002EE01920FFF776FF0546641C15B9B248EF
:102CA0008442F6D11920FFF76DFF00B1012720E023
:102CB00004E01B20FFF766FF0546641C15B9AA480F
:102CC0008442F6D11B20FFF75DFF00B1012710E021
:102CD00004E01D20FFF756FF0546641C15B9A24805
:102CE0008442F6D11D20FFF74DFF00B1012700E01F
:102CF00000BF00BF3846F0BD00B59A48006840F0FC
:102D00000100984908600020FFF74BFF9548406894
:102D100020F0030093494860084600689349084042
:102D20009049086008464068914908408D494860CC
:102D30000846006820F480200860084640688D49F5
:102D40000840884948600846006820F0A0500860A4
:102D50004FF47F0088600846C06A8749084081496F
:102D6000C86200BD7F4A02EB9011096800F01F03A2
:102D700001229A4011437B4B03EB90121160704784
:102D8000784A02EB9011096800F01F0301229A4073
:102D90009143744B03EB901211607047714A02EB40
:102DA0009011096800F01F0301229A4011436D4BF6
:102DB00003EB9012116070476A4A02EB90110968A8
:102DC00000F01F0301229A409143664B03EB9012DF
:102DD00011607047634A02EB9011096800F01F030D
:102DE00001229A4011435F4B03EB90121160704730
:102DF0005C4A02EB9011096800F01F0301229A401F
:102E00009143584B03EB9012116070475548006A8C
:102E100040F480305349086270475248006A20F4F9
:102E200080305049086270474E4A516821F00301D2
:102E300041EA00024B4B5A6070474A48406800F034
:102E40000C007047474A516821F0F00141EA000246
:102E5000444B5A607047434A516821F4E06141EAAB
:102E60000002404B5A6070473E4A516821F460515D
:102E700041EA00023B4B5A6070473A4A516821F0E0
:102E8000706141EA0002374B5A60704702460020E9
:102E9000344B5868394B184042EA01031843314B10
:102EA00058607047014600202E4AD06A20F08040CA
:102EB0000843D0627047024600202A4BD86A304B44
:102EC000184042EA01031843264BD8627047014676
:102ED0000020244AD06A20F0F0000843D0627047F6
:102EE0002049C96A21F470611E4AD1621146C96A3B
:102EF0000143D16270471B49C96A21F47041194AE4
:102F0000D1621146C96A0143D1627047154B5968B5
:102F10001C4B1940134BDA6A22F000520C2833D2B2
:102F2000DFE800F006070809320C320D15161718F5
:102F300000BF00BF00BF41EA803126E000BF20F0A3
:102F400004004FF0805343EA803319431DE000BF73
:102F500000BF00BF20F00C0041EA803142F0005277
:102F600013E0000000100240FFFF0F00FFFFF6FE1D
:102F70000C00FFE0FFFF005F0000F89FFFFFC2DFD3
:102F8000F0FFFEFFFF3FFFEF00BF00BFE84B5960BF
:102F9000DA627047E64A516821F4400141EA0002D2
:102FA000E34B5A607047E24A116A21F4407141EAEA
:102FB0000002DF4B1A627047DD4AD16A21F400310A
:102FC00041EA0002DA4BDA627047D94AD16A21F449
:102FD000802141EA0002D64BDA627047D44AC032FF
:102FE000116821F0010141EA0002D14BC3F8C02071
:102FF0007047CF48406A40F08070CD4948627047C2
:103000000146CB4A02EB9110006801F01F03012238
:103010009A40104008B1012070470020FCE7C44AE4
:1030200002EB9011096800F01F0301229A4011433E
:10303000BF4B03EB901211607047BD4A02EB901139
:10304000096800F01F0301229A401143B84B03EBBB
:10305000901211607047B64A02EB9011096800F0B7
:103060001F0301229A409143B14B03EB9012116070
:103070007047AF4A116A21F0180141EA0002AC4BD7
:103080001A627047AA4A02EB9011096800F01F0308
:1030900001229A401143A64B03EB90121160704736
:1030A000A34A02EB9011096800F01F0301229A4025
:1030B00091439F4B03EB90121160704701461C290E
:1030C0002ED007DC39B310290FD0182926D01A29A1
:1030D00027D124E0B1F5006F12D0B1F5106F1CD0EC
:1030E000A1F54052103AE2B916E0914A1068126810
:1030F00022F480328E4B1A6040F480221A6011E074
:103100008B4A106A126A22F00102894B1A6240F05F
:1031100004021A6206E000BF00BF00BF00BF00BF8C
:1031200000E000BF00BF704701461C292ED007DC1D
:1031300039B310290FD0182926D01A2927D124E015
:10314000B1F5006F12D0B1F5106F1CD0A1F540524F
:10315000103AE2B916E0764A1068126822F480321A
:10316000734B1A6020F480221A6011E0704A106AD2
:10317000126A22F001026E4B1A6220F004021A62F7
:1031800006E000BF00BF00BF00BF00BF00E000BFFF
:1031900000BF70476648006840F40020644908603A
:1031A00070476348006820F4002061490860704758
:1031B0005F4A116821F0F80100F01F0241EAC202E3
:1031C0005B4B1A60704700F0030059494863704731
:1031D0002DE9F14F8EB000200C9056A090E8004CE5
:1031E000C068CDE905BECDF810A0079052A0D0F878
:1031F00004A00068CDE9020A0FF23C1ADAE9000ADD
:10320000CDE9000A4A484068C0F381000D900D984E
:1032100020B1012804D0022856D103E0494A55E0E4
:10322000484A53E04248406800F48039B9F5803F8D
:103230002FD13F48C06A00F080400B900B9808B92E
:10324000404900E040493A48C06A00F480300A90A2
:103250000A98B0F5803F12D13548C06AC0F3031018
:10326000401C08903248C06AC0F30320871C112F0D
:1032700000D114270898B1FBF0F000FB07F12C48AF
:10328000C06A00F00F00401C09900998B1FBF0F1F2
:1032900000E02E4926484068C0F383432448406834
:1032A00000F0005008B143F010030F2B01D29B1C1B
:1032B00000E05B1C01FB03F20F2B04D101EB41008A
:1032C000400000EB510201E01E4A00BF00BF184859
:1032D0004068C0F3031504A8465D22FA06F41448BA
:1032E0004068C0F3022502A8465D24FA06FC104897
:1032F0004068C0F3C2251DF8056024FA06F80E9850
:1033000030B1012806D0022806D003280AD106E0F1
:103310000C9208E00C9406E0CDF830C003E0CDF844
:10332000308000E000BF00BF0C980FB0BDE8F08F08
:103330000010024000000000000000000102030431
:103340000607080900127A00006CDC0200093D0043
:1033500010B50446F749601A8C426FD019DCF64963
:10336000A4EB01008C424ED009DCB4F1804F2ED08A
:10337000F2482044A0B3B0F5806F72D13AE0B0F5C6
:10338000806F49D0B0F5006F4FD0B0F5406FF4D1E9
:103390007BE0B0F5983F5BD009DCB0F5806F73D06F
:1033A000B0F5883F0AD0B0F58C3F5AD147E0B0F570
:1033B0009A3F57D0B0F59C3F53D15CE040F20B30C0
:1033C000FFF708FD40F20B30FFF712FD79E04FF4F4
:1033D0008060FFF7FFFC4FF48060FFF709FD70E0AD
:1033E000FFE740F20140FFF7F5FC40F20140FFF734
:1033F000FFFC66E040F20240FFF7ECFC40F20240C6
:10340000FFF7F6FC5DE040F20340FFF7E3FC40F21B
:103410000340FFF7EDFC54E040F20440FFF7DAFC14
:1034200040F20440FFF7E4FC4BE040F20540FFF7B8
:10343000D1FC40F20540FFF7DBFC42E02EE040F219
:103440000D30FFF7C7FC40F20D30FFF7D1FC38E03C
:1034500040F21330FFF7BEFC40F21330FFF7C8FC18
:103460002FE02DE04FF44570FFF7B4FC4FF44570AA
:10347000FFF7BEFC25E040F21530FFF7ABFC40F251
:103480001530FFF7B5FC1CE011E040F20640FFF7F5
:10349000A1FC40F20640FFF7ABFC12E040F207400F
:1034A000FFF798FC40F20740FFF7A2FC09E04FF459
:1034B0008160FFF78FFC4FF48160FFF799FC00E01B
:1034C00000BF00BF10BD00210180418081804FF608
:1034D000FF71816000218181817370470A88826257
:1034E000974A90420FD0B0F1804F0CD0934A52428D
:1034F000904208D0934A904205D08F4A904202D021
:10350000914A90420FD1026822F070020260026874
:103510008B7803F060031A43026002680B7903F0B2
:1035200010031A4302608A68C262884A90420CD033
:10353000874A904209D0026822F440720260026811
:103540008B8903F440731A4302607D4A904202D093
:103550007D4A904201D18A7B0263426942F00102B6
:1035600042617047016841F00101016070470168E4
:1035700021F0010101607047016841F080010160A4
:103580007047016821F0800101607047016821F0F7
:10359000020101607047016841F00201016070475B
:1035A000026822F06002026002680A43026070470B
:1035B000016821F0100101607047016841F01001BD
:1035C000016070478162012A03D1436943F001031E
:1035D0004361704701637047C16270474162704741
:1035E00001460020486A7047014600208A6A90B26E
:1035F0007047082904D1026842F00802026004E022
:1036000019B9026822F0080202607047042904D147
:10361000026842F00402026004E019B9026822F074
:10362000040202607047C2680A43C2607047C26801
:103630008A43C2607047082904D1426842F00802F8
:10364000426004E019B9426822F008024260704703
:1036500010B5836C41F61F74A3438364836C41EA05
:1036600002042343836410BD42690A4342617047E8
:103670000021018041808180C1800181418181815F
:1036800070470A884B881A438B881A43CB881A43A1
:103690000B891A434B891A438B891A43426470473A
:1036A000416C41F4805141647047416C21F4805178
:1036B00041647047416C41F4804141647047416C02
:1036C00021F4804141647047012904D1426C42F4E5
:1036D0000042426403E0426C22F4004242647047BC
:1036E000012904D1426842F00102426003E04268CD
:1036F00022F001024260704721B9426822F00402C0
:10370000426005E0042903D1426842F004024260AD
:1037100070470021018041808180C1800181418109
:10372000704710B5B1B101294FD002297ED00329CD
:103730007DD1CFE0001C0040000C004000FCFFBF2A
:10374000002C0140000800400034014000100040FF
:1037500000140040036A23F001030362036A148823
:1037600023430362036A23F002030362036A94881B
:1037700023430362F84B984202D0F84B98421FD182
:10378000036A23F004030362036A54882343036239
:10379000036A23F008030362036AD48823430362A5
:1037A000436823F480734360436814892343436070
:1037B000436823F4007343604368548923434360A0
:1037C000836923F003038361ABE0036A23F01003F2
:1037D0000362036A148843EA04130362036A23F052
:1037E00020030362036A948843EA04130362DA4BFA
:1037F000984202D0D94B984226D1036A23F0400365
:103800000362036A548843EA04130362036A23F0E1
:1038100080030362036AD48843EA041303624368A3
:1038200023F4806343604368148901E011E077E08A
:1038300043EA84034360436823F4006343604368BE
:10384000548943EA84034360836923F440738361AA
:1038500067E0036A23F480730362036A148843EA0F
:1038600004230362036A23F400730362036A9488E7
:1038700043EA04230362B84B984202D0B74B984204
:1038800023D1036A23F480630362036A548843EA02
:1038900004230362036A23F400630362036AD48887
:1038A00043EA04230362436823F48053436043687C
:1038B000148943EA04134360436823F400534360CC
:1038C0004368548943EA04134360C36923F0030344
:1038D000C36126E0036A23F480530362036A1488F9
:1038E00043EA04330362036A23F400530362036A66
:1038F000948843EA04330362974B984202D0974B73
:10390000984208D1436823F4804343604368148994
:1039100043EA84134360C36923F44073C36100E046
:1039200000BF00BF10BD31B101290CD0022913D056
:10393000032922D118E0836923F07003836183692E
:10394000134383611AE0836923F4E043836183694D
:1039500043EA0223836111E0C36923F07003C3616A
:10396000C3691343C36109E0C36923F4E043C3613E
:10397000C36943EA0223C36100E000BF00BF704790
:1039800031B1012906D0022906D0032908D105E06A
:10399000426306E0826304E0C26302E0026400E086
:1039A00000BF00BF704731B101290CD0022913D0EC
:1039B000032922D118E0836923F008038361836916
:1039C000134383611AE0836923F40063836183698D
:1039D00043EA0223836111E0C36923F00803C36152
:1039E000C3691343C36109E0C36923F40063C3617E
:1039F000C36943EA0223C36100E000BF00BF704710
:103A000031B101290CD0022913D0032922D118E0A9
:103A1000836923F0040383618369134383611AE09C
:103A2000836923F480638361836943EA02238361AA
:103A300011E0C36923F00403C361C3691343C36185
:103A400009E0C36923F48063C361C36943EA0223C5
:103A5000C36100E000BF00BF704731B101290CD045
:103A6000022913D0032922D118E0836923F08003AF
:103A700083618369134383611AE0836923F40043FC
:103A80008361836943EA0223836111E0C36923F000
:103A90008003C361C3691343C36109E0C36923F4AD
:103AA0000043C361C36943EA0223C36100E000BF6E
:103AB00000BF704731B101290CD0022913D003296E
:103AC00023D119E0036A23F002030362036A13435C
:103AD00003621BE0036A23F020030362036A43EAE4
:103AE0000213036212E0036A23F400730362036AA1
:103AF00043EA0223036209E0036A23F400530362EA
:103B0000036A43EA0233036200E000BF00BF70476C
:103B100021B101290AD002291AD110E0036A23F049
:103B200008030362036A1343036212E0036A23F08B
:103B300080030362036A43EA0213036209E0036A33
:103B400023F400630362036A43EA0223036200E092
:103B500000BF00BF70470000002C0140003401404E
:103B600031B101290CD0022913D0032923D119E046
:103B7000036A23F001030362036A134303621BE039
:103B8000036A23F010030362036A43EA0213036229
:103B900012E0036A23F480730362036A43EA022398
:103BA000036209E0036A23F480530362036A43EA71
:103BB0000233036200E000BF00BF704721B101295A
:103BC0000AD002291AD110E0036A23F00403036229
:103BD000036A1343036212E0036A23F040030362A3
:103BE000036A43EA0213036209E0036A23F4806371
:103BF0000362036A43EA0223036200E000BF00BFDE
:103C00007047002101800121418000218180C18015
:103C1000704731B101290CD0022913D0032922D1D8
:103C200018E0836923F00C03836183691343836184
:103C30001AE0836923F440638361836943EA0223C2
:103C4000836111E0C36923F00C03C361C3691343AB
:103C5000C36109E0C36923F44063C361C36943EAF4
:103C60000223C36100E000BF00BF704770B5044687
:103C70000E46154636B1012E26D0022E48D0032E10
:103C80007DD168E0206A20F001002062206A20F0E7
:103C90000A002062206A298808432062A06920F077
:103CA0000300A061A06969880843A061A06920F0B1
:103CB000F000A061A069E98840EA0110A061206AD3
:103CC00040F0010020626DE0206A20F010002062C8
:103CD000206A20F0A0002062206A298840EA0110B2
:103CE0002062A06920F44070A061A069698840EA60
:103CF0000120A061A06920F47040A061A069E9885A
:103D000040EA0130A061206A40F01000206249E0E2
:103D1000206A20F480702062206A20F420602062F3
:103D2000206A298840EA01202062E06920F003002F
:103D3000E061E06969880843E061E06920F0F00033
:103D4000E061E069E98840EA0110E061206A40F43E
:103D50008070206226E0206A20F480502062206A71
:103D600020F400502062206A298840EA0130206255
:103D7000E06920F44070E061E069698800E010E0EB
:103D800040EA0120E061E06920F47040E061E06910
:103D9000E98840EA0130E061206A40F48050206206
:103DA00000E000BF00BFAA8831462046FFF731FF80
:103DB00070BD0246002031B1012906D0022906D08B
:103DC000032908D105E0506B06E0906B04E0D06B4E
:103DD00002E0106C00E000BF00BF70472DE9F04129
:103DE00004460E4615460027B846288808B902271B
:103DF00000E000276888012802D14FF0020801E0A6
:103E00004FF00108002E4CD1206A20F00100206202
:103E1000206A20F00A002062206A29880843206274
:103E2000A06920F00300A061A06969880843A0612F
:103E3000A06920F0F000A061A069E98840EA0110C3
:103E4000A061206A40F001002062AA88002120467B
:103E5000FFF7DFFE206A20F010002062206A20F0C9
:103E6000A0002062206A40EA07102062A06920F4C6
:103E70004070A061A06940EA0820A061A06920F418
:103E80007040A061A069E98840EA0130A061206A21
:103E900040F010002062AA8801212046FFF7B9FEF9
:103EA0004CE0206A20F010002062206A20F0A00080
:103EB0002062206A298840EA01102062A06920F46B
:103EC0004070A061A069698840EA0120A061A069F2
:103ED00020F47040A061A069E98840EA0130A06147
:103EE000206A40F010002062AA8801212046FFF7D6
:103EF00090FE206A20F001002062206A20F00A0073
:103F00002062206A38432062A06920F00300A0618B
:103F1000A06940EA0800A061A06920F0F000A0615B
:103F2000A069E98840EA0110A061206A40F0010020
:103F30002062AA8800212046FFF76BFEBDE8F081D1
:103F4000802904D1426842F08002426004E019B93D
:103F5000426822F0800242607047826822F070025C
:103F6000826082680A4382607047426822F0700271
:103F7000426042680A4342607047826822F007024A
:103F8000826082680A4382607047802904D1826817
:103F900042F08002826004E019B9826822F0800257
:103FA0008260704730B5846824F43F44846084683C
:103FB00041EA02052C438460846844EA0324846057
:103FC00030BD30B5846824F00704846084680C43F5
:103FD0008460846940F20335AC438461846940F2B3
:103FE00001152C438461046A24F00A040462046A03
:103FF00024F0A0040462046A42EA03152C4304621C
:1040000030BD816821F007018160704710B503461B
:104010000C4621461846FFF7A0FF986820F00700DD
:104020009860986840F00700986010BD70B504462D
:104030000E461546602E20D1206A20F01000206226
:10404000206A20F0A0002062206A40EA0510206269
:10405000A06920F44070A061A06940F48070A06164
:10406000A06920F47040A061A06940EA0330A0611B
:10407000206A40F0100020621EE0206A20F001005B
:104080002062206A20F00A002062206A2843206211
:10409000A06920F00300A061A06940F00100A061C8
:1040A000A06920F0F000A061A06940EA0310A061BF
:1040B000206A40F00100206231462046FFF74DFFA4
:1040C000A06820F00700A060A06840F00700A06092
:1040D00070BDF0B504460D4616461F463B463246B7
:1040E00029462046FFF75EFFA06820F07700A06019
:1040F000A06840F07700A060F0BDF0B504460D4622
:1041000016461F463B46324629462046FFF74AFFE1
:10411000A06840F48040A060F0BD816821F4804137
:1041200081607047012906D1D0F8FC2042F00202DC
:10413000C0F8FC2006E029B9D0F8FC2022F00202E9
:10414000C0F8FC207047012906D1D0F8FC2042F0CD
:104150000102C0F8FC2006E029B9D0F8FC2022F0CA
:104160000102C0F8FC207047C2680A43C260704771
:10417000C2688A43C26070470246D06800EA010301
:104180001069084010B10BB1012070470020FCE716
:10419000CA430261704702461069084008B1012015
:1041A00070470020FCE7CA430261704710B504461F
:1041B000F949601A8C4228D006DCF848204490B1B6
:1041C000B0F5806F33D117E0B0F5806F26D0B0F531
:1041D0006C4F2CD140F20E30FEF7FCFD40F20E3059
:1041E000FEF706FE24E040F21140FEF7F3FD40F238
:1041F0001140FEF7FDFD1BE040F21240FEF7EAFD24
:1042000040F21240FEF7F4FD12E040F21340FEF7D8
:10421000E1FD40F21340FEF7EBFD09E040F21440EF
:10422000FEF7D8FD40F21440FEF7E2FD00E000BFCB
:1042300000BF10BD2DE9F04704460D460027B846E3
:10424000B9460026D449601A8C421CD006DCD348FB
:10425000204470B1B0F5806F1FD10FE0B0F5806FD2
:1042600016D0B0F56C4F18D10320FEF7B1FF07460A
:1042700014E00220FEF7ACFF07460FE00220FEF735
:10428000A7FF07460AE00220FEF7A2FF074605E067
:104290000220FEF79DFF074600E000BF00BF07EBCE
:1042A0005500B0FBF5F64FF6F07006EA000806F090
:1042B0000F0948EA0900A060BDE8F087C26822F44F
:1042C000C062C260C2680A43C2607047C26822F41A
:1042D0008052C260C2680A43C2607047026922F419
:1042E0004052026102690A4302617047C16841F4A9
:1042F0000051C1607047C16821F40051C16070472E
:104300000A460021C16821F008011143C1607047CD
:104310000A460021C16821F004011143C1607047C1
:104320000A460021D0F8801021F400611143C0F842
:104330008010704706292ED2DFE801F003180A1F0B
:104340001126D0F8802042F48062C0F8802023E05B
:10435000D0F8802042F40072C0F880201CE0D0F831
:10436000802042F48072C0F8802015E0D0F88020D0
:1043700022F48062C0F880200EE0D0F8802022F481
:104380000072C0F8802007E0D0F8802022F480720C
:10439000C0F8802000E000BF00BF7047D0F8801058
:1043A00041F00101C0F880107047D0F8801021F072
:1043B0000101C0F88010704750F8842F02F07F424E
:1043C000026002680A4340F884297047C1F308027A
:1043D0004260704701464868C0F3080070470269B0
:1043E00022F00F020261026901F00F031A43026119
:1043F0007047C16841F00201C1607047C16821F097
:104400000201C1607047C26822F40062C260C268E3
:104410000A43C2607047016941F4804101617047FD
:10442000016921F4804101617047026922F0200294
:104430000261026901F020031A4302617047C168FA
:1044400041F00101C1607047416941F008014161DB
:104450007047416921F0080141617047016941F4E9
:10446000006101617047016921F4006101617047D9
:1044700070B50C460021016921F4E06104F48075F7
:1044800002F40076354303F4806635432943016125
:1044900070BD826922F47F42826182694FF47F435A
:1044A00003EA01231A4382617047416941F0200108
:1044B00041617047416921F02001416170474169C4
:1044C00041F0100141617047416921F010014161E3
:1044D000704750F8802F22F00E02026002680E230F
:1044E00003EA41031A4340F88029704750F8842FAB
:1044F00022F07F42026002684FF07F4303EA0163CB
:104500001A4340F884297047416941F00201416132
:104510007047416921F0020141617047826922F0D0
:10452000FF02826182690A4382617047426922F018
:1045300004024261426901F004031A434261704778
:104540000A460021416921F480711143416170479D
:104550000A460021416921F400711143416170470D
:104560000A460021416921F0400111434161704731
:104570000A460021416921F08001114341617047E1
:1045800050F8C02F22F001020260026801F001031E
:104590001A4340F8C0297047004C004000BCFFBFE0
:1045A00010B5024602EB9110006801F01F040123D0
:1045B000A340184008B1012010BD0020FCE710B551
:1045C00000EB9112126801F01F040123A3409A43EB
:1045D00000EB91131A6010BD10B500EB9112126838
:1045E00001F01F040123A3401A4300EB91131A604A
:1045F00010BD10B500EB9112126801F01F040123E9
:10460000A3409A4300EB91131A6010BD70B50246A7
:1046100000230024C1F38910105801F01F06012562
:10462000B54000EA050302EB91500068C1F304466F
:104630000125B54000EA050414B10BB1012070BD9D
:104640000020FCE710B500EB91521268C1F304445E
:104650000123A3409A4300EB91531A6010BD000060
:104660000146012902D0022902D102E0062070474A
:1046700000BF0120FBE770B505462846FFF7F0FFB5
:10468000044604EB8400F84901EB8000806800F0E8
:10469000010028B104EB840001EB8000C06808B978
:1046A000012070BD0020FCE770B50446EF4D04E02A
:1046B000281EA5F1010500D170BD2046FFF7DBFFE4
:1046C0000028F5D00120F7E7E8490AE072B6E8488B
:1046D000007828B90120E64A107062B601207047C0
:1046E00062B6081EA1F10101F0D100BFF7E772B672
:1046F0000020DF49087062B6704710B540F20260D2
:10470000FEF730FB4FF4C060FEF72CFB04230322BE
:104710001821D848FEF757F8082303220421D5486A
:10472000FEF751F810BD10B540F20360FEF71AFB1A
:104730004FF4C060FEF716FB0021CF48FEF7C4F827
:104740000021CD482038FEF7BFF84FF480630322E4
:104750001821CA48FEF737F84FF4006303220421FA
:10476000C648FEF730F810BD72B60020C449088074
:10477000C4490880C449087062B6704710B5044641
:10478000FFF7BBFF40F21170FEF7ECFABF48FFF7EE
:104790000DFD2146BD48FFF74DFD0021BB48FFF749
:1047A00095FD0021B948FFF799FD0021B748FFF7B3
:1047B00085FD0021B548FFF7C3FE0021B348FFF790
:1047C000C7FE0421B148FFF7A3FD0821AF48FFF75A
:1047D00097FDFFF7C9FF0021AC48FFF7C9FE002194
:1047E000AA48FFF7BDFE4FF44171A848FFF701FF4B
:1047F00040F20531A548FFF7EFFEA448FFF776FD2C
:1048000010BD10B50446FFF78EFF40F21270FEF7A0
:10481000A9FA9F48FFF7CAFC21469D48FFF70AFD09
:1048200000219B48FFF752FD00219948FFF756FDF4
:1048300000219748FFF742FD00219548FFF780FED1
:1048400000219348FFF784FE04219148FFF760FDA3
:1048500008218F48FFF754FD00218D48FFF788FE9F
:1048600000218B48FFF77CFE4FF441718848FFF729
:10487000C0FE40F205318648FFF7AEFE8448FFF7E0
:1048800035FD10BD70B540F20360FEF76BFA4FF4D2
:104890008063032210217948FDF795FF002518E079
:1048A0004FF480617548FDF7ECFF002401E000BF84
:1048B000641CB4F5FA5FFAD34FF480616F48FDF7DA
:1048C000E2FF002401E000BF641CB4F5FA5FFAD3F4
:1048D0006D1C142DE4D3FFF726FF70BD0146684A16
:1048E0001288521C90B2402800DB0020654A1288D2
:1048F000904206D0674A624B1B88D154604A1080B0
:1049000002E00122604B1A707047014609B900208D
:1049100070475B4800885B4A1288904201D10020B2
:10492000F6E772B656480088564A1288904212D06E
:104930005848544A1288805C087052480088401CCD
:10494000504A108010460088402801DB002010806B
:1049500062B60120DCE762B60020D9E770B50446F4
:104960000D4629462046FFF731FD00BF07212046AE
:10497000FFF716FE0028F9D070BD2DE9F04107467B
:104980000D4616460DB9BDE8F081002405E0295D0D
:104990003846FFF7E3FF601C84B2B442F7DB00BF88
:1049A00006213846FFF7FCFD0028F9D000BFEAE7F2
:1049B00070B505460C4605B104B970BD22462946BE
:1049C0003248FFF7DAFF00BFF7E770B50446C02CA6
:1049D00028D13148007840B901202F4908700020C3
:1049E0002E4908702E49088070BD2D48008808287F
:1049F0000FDB2C48007860B9294802882A492B48E7
:104A000005F0F4F826480088294908800120254946
:104A100008700120204908700020204908702049B2
:104A20000880E1E71C48007800B9DDE71B48007802
:104A300098B1DC2C01D1C0250BE0DD2C01D1DB25A8
:104A400007E00020144908701449087014490880D0
:104A5000CAE70020114908702DE0DB2C2AD1012083
:104A60000E490870C0E700000000024080FC0A0008
:104A7000880000200008014030001400000C0140B4
:104A80008A0000208C0000208600002000440040A6
:104A900000480040B209002092000020930000204E
:104AA000940000208E000020361300200E0F0020FE
:104AB000900000202546FD480088B0F5856F08DA93
:104AC000FA4801880088401CF84A1080F84845548C
:104AD00006E00020F7490870F7490870F34908809C
:104AE00000BF81E770B505460C4605B10CB9002042
:104AF00070BDF248007808B90020F9E772B6EF48B7
:104B0000007880B1EE480288EE49284605F06EF83C
:104B1000EB48008820800020E8490870E8490880B8
:104B200062B60120E4E762B60020E1E770B5064610
:104B30000C46002504B970BD04E0615D3046FFF706
:104B40000DFF6D1C605D0028F7D100BF06213046C7
:104B5000FFF726FD0028F9D000BFECE710B50446AA
:104B600004B910BD04E02178D748FFF7F7FE641CB4
:104B700020780028F7D100BF0621D348FFF710FDA9
:104B80000028F9D000BFECE706E0D0A0FFF7E6FF71
:104B90004FF47A7000F024FAF7E72DE9F04105466A
:104BA0000C46260AE7B231462846FFF70FFC00BF45
:104BB00007212846FFF7F4FC0028F9D0394628469B
:104BC000FFF704FC00BF07212846FFF7E9FC002897
:104BD000F9D0BDE8F08170B506460C461546012EA9
:104BE00002D0022E0ED10EE00621C048FDF7C5FB13
:104BF000BE488C300460BD48C0F884500621FDF7E3
:104C0000A3FB0BE000BF0121B848FDF7B6FBB74896
:104C1000846205620121FDF797FB00BF00BF70BDF4
:104C2000014648780A7840EA022070470A0A027072
:104C30004170704730B502460B46002016E012F86E
:104C4000015B80EA052000210EE000F400442CB155
:104C500048F2050484EA4004A0B203E04FF6FF7472
:104C600004EA40004C1CE1B20829EEDB1C1EA3F153
:104C70000105ABB2E3D130BD70B504460D462946FF
:104C80002046FFF7D7FF70BD00B503461846FFF773
:104C9000C7FF00BD10B503460C4621461846FFF776
:104CA000C5FF10BD2DE9F04104460E461546002211
:104CB0000027022E02DA0220BDE8F0812078C02809
:104CC00001D1012100E0002137E0605CC02800D163
:104CD00035E0B2F5856F01DB0220EDE7EFB1605CF6
:104CE000DC2809D14FF0C008104602F1010C1FFA70
:104CF0008CF205F800800EE0605CDD2809D14FF0F1
:104D0000DB08104602F1010C1FFA8CF205F8008056
:104D100001E00420D0E700270DE0605CDB2801D132
:104D2000012708E014F80180104602F1010C1FFA77
:104D30008CF205F80080481C81B2B142C5DB00BF8F
:104D40000FB10420B8E71A800020B5E7F0B504469B
:104D50000E461D460021022D01DA0020F0BD4FF065
:104D6000C00C08464F1CB9B202F800C0002330E066
:104D7000881CA84201DB0020F0E7E05CC0280ED1CF
:104D80004FF0DB0C08464F1CB9B202F800C04FF0E0
:104D9000DC0C08464F1CB9B202F800C017E0E05C1A
:104DA000DB280DD1844608464F1CB9B202F800C07A
:104DB0004FF0DD0C08464F1CB9B202F800C006E007
:104DC00014F803C008464F1CB9B202F800C0581CC2
:104DD00083B2B342CCDB4FF0C00C08464F1CB9B2D3
:104DE00002F800C00846B9E72DE9F84F06460C4620
:104DF00015461F46002000900EB105B117B90420DA
:104E0000BDE8F88F002C0EDD3078C0280BD16B4642
:104E10002A4621463046FFF745FF8246BAF1000F89
:104E20000CD05046ECE7B4F5856F01DD0220E7E7D2
:104E300022463146284604F0D9FE0094BDF8000011
:104E4000082801DA0220DBE7281DFFF7E9FE80468B
:104E5000BDF80010884501D00220D1E7BDF8001050
:104E6000891E4819FFF710FF8346BDF80000801E19
:104E700081B22846FFF700FF8146CB4501D00120D3
:104E8000BEE7BDF80000801E38800020B8E72DE99D
:104E9000F04107460D46144625B1062C02DBA01C46
:104EA000602825DD0220BDE8F0810000940000208C
:104EB0003613002092000020930000208E00002076
:104EC000900000200E0F002000480040504231307A
:104ED0002F5042313120555341525432204F5554B6
:104EE00050555420544553540D0A00000000024010
:104EF000FFF7EAFB10B90420BDE8F0813846FFF760
:104F0000D3FB18B9FFF7F3FB0420F5E7A01C81B22F
:104F1000281DFFF78BFE21462846FFF7ADFE804691
:104F200028194146FFF7B6FEA01C81B2C4230D4AE2
:104F30002846FFF70BFF06461EB9FFF7D8FB0220F5
:104F4000DAE7012F05D1324606490748FFF715FD7C
:104F500004E0324603490548FFF70FFDFFF7C7FBA2
:104F60000020C9E74A0E00200044004000480040ED
:104F700010B50420FDF7E8FD1F4800681F49B0FB8D
:104F8000F1F01F49087040F6FF704FF0E0214861D2
:104F90000846006940F00100086110BD70B5034685
:104FA00000224FF0E0267469154E367803FB06F5B3
:104FB0004FF0E026B16910E04FF0E026B069814281
:104FC0000BD0884202D20E1A324402E06618361A1A
:104FD00032440146AA4200D300E0EDE700BF70BDB5
:104FE00030B50446002504E04FF47A70FFF7D6FF91
:104FF0006D1CA542F8D330BD0000002040420F00D8
:105000009600002010B540F20360FDF7ABFE4FF4B0
:105010008043042210219048FDF7D5FB4FF4004354
:10502000042210218C48FDF7CEFB10BD10B54FF4C3
:105030000043042210218848FDF7C5FB10BD10B5C0
:105040004FF40043042248218348FDF7BCFB10BD08
:1050500010B5FFF7EBFF4FF400417F48FDF711FC5F
:105060004FF480417C48FDF70CFC0520FFF796FFCC
:105070004FF400417848FDF706FC0620FFF78EFF4D
:105080004FF480417448FDF7FEFB10BD10B5FFF7EB
:10509000CDFF4FF480417048FDF7F5FB4FF4004120
:1050A0006D48FDF7F0FB4FF480416B48FDF7E9FBDD
:1050B0000620FFF773FF4FF400416748FDF7E1FB5F
:1050C0000620FFF76BFF10BD10B500244FF4004120
:1050D0006148FDF7D6FB0120FFF760FFFFF7AFFF48
:1050E0004FF480415C48FDF7CCFB0120FFF756FFF1
:1050F00007E0601CC4B2FA2C03DDFFF7C7FF0120F4
:1051000010BD4FF400415448FDF7C6FB0028F0D114
:105110004FF480415048FDF7B6FB0020F0E710B592
:105120004FF480414C48FDF7AEFBFFF77FFF4FF493
:1051300000414948FDF7A7FB0220FFF72FFF4FF47E
:1051400080414548FDF79DFB0520FFF727FF4FF401
:1051500080414148FDF797FB10BD10B54FF48041E9
:105160003D48FDF790FBFFF761FF4FF400413A48DF
:10517000FDF787FB0220FFF711FF4FF4804136480F
:10518000FDF77FFB0520FFF709FF4FF48041324810
:10519000FDF779FB10BD70B50446FFF747FF4FF4EC
:1051A00080412D48FDF76FFB002525E004F08000CD
:1051B000002805DD4FF400412748FDF762FB04E0BD
:1051C0004FF400412448FDF75EFB6006040E022008
:1051D000FFF7E4FE4FF480411F48FDF752FB022029
:1051E000FFF7DCFE4FF480411B48FDF74CFB02202B
:1051F000FFF7D4FE681CC5B2082DD7DB70BD70B5B3
:1052000005460024FFF71BFF00261BE04FF48041FA
:105210001148FDF738FB0220FFF7C0FE4FF4804134
:105220000D48FDF72EFB6006040E4FF400410A48BE
:10523000FDF732FB08B1601CC4B20120FFF7AEFEDF
:10524000701CC6B2082EE1DB15B9FFF786FF01E03E
:10525000FFF765FF204670BD000C014010B5FFF759
:10526000D1FE10BD70B504460026FFF7F1FE2546BD
:10527000E11704EB11610912A82202EB4101C8B247
:10528000FFF789FFFFF720FFE11704EB1161091217
:10529000A4EB0121C8B2FFF77EFFFFF715FFFFF770
:1052A000D7FEE11704EB11610912012202EB410163
:1052B000C9B241F0A800FFF76EFFFFF705FF00201D
:1052C000FFF79DFF0646FFF7E1FE304670BD70B563
:1052D00004460E46FFF7BCFE2546E11704EB1161BC
:1052E0000912002202EB4101C9B241F0A800FFF708
:1052F00052FFFFF7E9FEE11704EB11610912A4EB7D
:105300000121C8B2FFF747FFFFF7DEFE3046FFF787
:1053100042FFFFF7D9FEFFF7B9FE42F21070FFF728
:105320003DFE70BD2DE9F04105460E4617460024AE
:1053300009E0E20026FA02F2D1B22A1990B2FFF790
:10534000C6FF601CC4B2BC42F3DBBDE8F0812DE9AE
:10535000F04107460C460026002509E036023919BF
:10536000491B491E88B2FFF77DFF0644681CC5B281
:10537000A542F3DB3046BDE8F08110B5FF20FFF712
:1053800071FF0446012C01D1002010BD0121FF2036
:10539000FFF79DFFFF20FFF765FF0446012C01D1B9
:1053A0000020F2E70120F0E770B506460C461546EE
:1053B00008E03046721C96B2FFF754FF04F8010B68
:1053C000681E85B2002DF4D170BD70B505460C463F
:1053D000164606E021782846FFF779FF681C85B25B
:1053E000641C301EA6F101018EB2F3D170BD000025
:1053F00070B504460D46E068284020B12946204695
:10540000FDF741FA03E029462046FDF73AFA70BD60
:1054100010B540F20260FDF7A5FC40F20360FDF715
:10542000A1FC40F20460FDF79DFC4FF4C060FDF765
:1054300099FC40F21170FDF795FC40F21270FDF7F7
:1054400091FC0423032218214948FDF7BCF90823E5
:10545000032204214648FDF7B6F94FF48063032286
:1054600018214448FDF7AFF94FF4006303220421EB
:105470004048FDF7A8F9F323032200213C48FDF73B
:10548000A2F903231A4600213A48FDF79CF94FF48C
:105490008053032218213748FDF795F94FF4005344
:1054A000032218213348FDF78EF94FF4804303227D
:1054B00004213048FDF787F94FF4004303221821F7
:1054C0002C48FDF780F901212B48FDF7FDF94FF439
:1054D0000043032210212648FDF775F94FF4FC73B1
:1054E000032210212348FDF76EF94FF48053032265
:1054F00010211F48FDF767F94FF4006303221021C4
:105500001B48FDF760F94FF48073032210211848FF
:10551000FDF759F94FF400411548FDF7B2F908219C
:105520001448FDF7AEF910211248FDF7AAF94FF41F
:1055300000610F48FDF7A7F94FF480510C48FDF7C3
:10554000A2F94FF480710A48FDF79BF94021094800
:10555000FDF799F94FF480710648FDF794F9202181
:105560000448FDF790F980210248FDF78CF910BD41
:1055700000080140000C0140000230002DE9FF410D
:1055800007460C4615461E463846FDF7E1FE6846BE
:10559000FDF799FFADF800500020ADF80200ADF81E
:1055A00004000294ADF80C008DF80E0069463846F0
:1055B000FDF794FF01213846FEF7EAFD0121384648
:1055C000FEF7D2FD1EB13846FDF7CCFF02E03846AB
:1055D000FDF7CDFFBDE8FF8110B540F20270FDF789
:1055E000C1FB0123472263210F48FFF7C7FF10BD0E
:1055F00070B504460D464FF4E060FDF7B3FB0123A0
:105600002A4621469807FFF7B9FF70BD70B50446DA
:105610000D4640F20170FDF7A5FB00232A46214606
:105620000248FFF7ABFF70BD0008004000040040D7
:1056300000B587B04FF4A060FDF794FB00214A4805
:10564000FCF741FD6846FCF776FD48480090484865
:10565000029000208DF81A004FF4AF7004900020E3
:105660008DF8180001208DF81900000201908000CB
:105670000390C00005906A4600213B48FCF769FD95
:1056800000213948FCF7FCFD00213748FCF743FEB8
:1056900006213548FCF717FD6846FCF74CFD3548F8
:1056A00000903548029001208DF81A0020200490C7
:1056B00000208DF8180001208DF8190000200190BD
:1056C000039005906A4606212748FCF742FD062113
:1056D0002548FCF7EEFD06212348FCF71CFE0222BC
:1056E00006212148FCF7EEFF06211F48FCF745FE86
:1056F00001211D48FCF7E7FC6846FCF71CFD1F482C
:1057000000901F48029001208DF81A00102004908C
:1057100000208DF8180001208DF81900002001905C
:1057200003904FF4805005906A4601210E48FCF723
:1057300010FD01210C48FCF7BCFD01210A48FCF7D3
:10574000EAFD022201210848FCF7BCFF01210648BE
:10575000FCF713FE02210448FCF7B5FC02210248C5
:10576000FCF70BFE07B000BD000002404C240140D6
:105770006017002004440040F20900200448004063
:105780003A0E002010B54FF44070FDF765F9002285
:1057900007212620FDF765F9002207212720FDF7C4
:1057A00060F9002209210C20FDF75BF90022092194
:1057B0001120FDF756F9002207210B20FDF751F9C2
:1057C000012205211E20FDF74CF910BD10B5012165
:1057D0002E48FEF7D1FC60B101212C48FEF7D8FC21
:1057E0002B4802684068521C40F1000028490A60BA
:1057F000486010BD10B5022200212648FCF719FFB1
:1058000020B1012200212348FCF754FF10BD10B540
:10581000022201211F48FCF70CFF40B10122114672
:105820001C48FCF747FF01211A48FCF7A6FD10BDF4
:1058300010B5022206211748FCF7FBFE40B10122F9
:1058400006211448FCF736FF06211248FCF795FDA7
:1058500010BD10B510491148FEF7D8FE30B10F4801
:10586000FEF7B8FDC4B22046FFF738F810BD10B5FA
:1058700009490B48FEF7CAFE30B10948FEF7AAFDF8
:10588000C4B22046FFF7A1F810BD00000008004098
:10589000980000200000024005030500004400407D
:1058A0000048004010B540F20960FDF75BFA0220A5
:1058B000FDF72CFBC848FCF721F90020FCF73CF968
:1058C00001221102C448FCF742F901220221C24818
:1058D000FCF73DF90021C048FCF766F907220121D9
:1058E000BD48FCF706FA052309220021BA48FCF757
:1058F00023FA052307220121B748FCF71DFA0523E7
:105900001A460221B448FCF717FA052306220321A0
:10591000B148FCF711FA052304221146AE48FCF702
:105920000BFA052301221946AB48FCF705FA0523BB
:1059300000220621A848FCF7FFF9A748FCF7A9F9BF
:10594000A548FCF73CF90120FFF74AFBA248FCF709
:1059500044F90021A148FCF7F7FC01219E48FCF71F
:10596000C9FA10BD10B5044600224FF480719A4860
:10597000FCF7EDF8002202219748FCF7E8F8012235
:1059800011469548FCF7B5F900232246194692487E
:10599000FCF7D2F901219048FCF7ACFA00BF0221D4
:1059A0008D48FCF70AFB0028F9D08B48FCF7B1FAC8
:1059B00010BD2DE9F04107460C460025002605E004
:1059C0003846FFF7CFFF0544701CC6B2A642F7DB8E
:1059D000B5FBF4F080B2BDE8F0810021804A11707F
:1059E000804A1170117027E0002000217C4A11705C
:1059F00010E07B490978C1EBC1017B4A02EB410110
:105A0000784A127831F81210084475490978491C0F
:105A1000734A1170724909783229EADB3221B0FBEE
:105A2000F1F1724A6F4B1B7822F8131000206D4978
:105A30000978491C6B4A11706A4909780729D3DB38
:105A4000704710B5002031E0002200EB800303EB2B
:105A5000C003674C04EB03135A6600EB800303EBAF
:105A6000C00304EB031383F8682000211AE000222E
:105A700000EB800303EBC0035D4C04EB031323F83E
:105A800011204A1CD201322392FBF3F293B200EBB5
:105A9000800202EBC00204EB02126A3222F81130DB
:105AA0004A1CD1B23229E2DB421CD0B20728CBDB40
:105AB00010BD2DE9F04304460D46002200230020CE
:105AC00084E00022002334F810C000EB800707EBCD
:105AD000C007DFF81C8108EB071700EB800808EB14
